{
  "contractName": "Company",
  "abi": [
    {
      "constant": true,
      "inputs": [],
      "name": "getRating",
      "outputs": [
        {
          "name": "",
          "type": "int256"
        }
      ],
      "payable": false,
      "stateMutability": "view",
      "type": "function"
    },
    {
      "constant": true,
      "inputs": [],
      "name": "name",
      "outputs": [
        {
          "name": "",
          "type": "string"
        }
      ],
      "payable": false,
      "stateMutability": "view",
      "type": "function"
    },
    {
      "constant": false,
      "inputs": [
        {
          "name": "work",
          "type": "address"
        }
      ],
      "name": "addWork",
      "outputs": [],
      "payable": false,
      "stateMutability": "nonpayable",
      "type": "function"
    },
    {
      "constant": true,
      "inputs": [],
      "name": "getReviewRating",
      "outputs": [
        {
          "name": "result",
          "type": "int256"
        }
      ],
      "payable": false,
      "stateMutability": "view",
      "type": "function"
    },
    {
      "constant": true,
      "inputs": [],
      "name": "owner",
      "outputs": [
        {
          "name": "",
          "type": "address"
        }
      ],
      "payable": false,
      "stateMutability": "view",
      "type": "function"
    },
    {
      "constant": false,
      "inputs": [],
      "name": "changeRating",
      "outputs": [],
      "payable": false,
      "stateMutability": "nonpayable",
      "type": "function"
    },
    {
      "constant": true,
      "inputs": [],
      "name": "getWorks",
      "outputs": [
        {
          "name": "",
          "type": "address[]"
        }
      ],
      "payable": false,
      "stateMutability": "view",
      "type": "function"
    },
    {
      "constant": false,
      "inputs": [
        {
          "name": "employee",
          "type": "address"
        },
        {
          "name": "_rating",
          "type": "int256"
        }
      ],
      "name": "addReview",
      "outputs": [],
      "payable": false,
      "stateMutability": "nonpayable",
      "type": "function"
    },
    {
      "constant": false,
      "inputs": [
        {
          "name": "newOwner",
          "type": "address"
        }
      ],
      "name": "transferOwnership",
      "outputs": [],
      "payable": false,
      "stateMutability": "nonpayable",
      "type": "function"
    },
    {
      "constant": false,
      "inputs": [
        {
          "name": "work",
          "type": "address"
        }
      ],
      "name": "dispute",
      "outputs": [
        {
          "name": "",
          "type": "bool"
        }
      ],
      "payable": false,
      "stateMutability": "nonpayable",
      "type": "function"
    },
    {
      "inputs": [
        {
          "name": "_name",
          "type": "string"
        },
        {
          "name": "_companyAddress",
          "type": "address"
        }
      ],
      "payable": false,
      "stateMutability": "nonpayable",
      "type": "constructor"
    },
    {
      "payable": true,
      "stateMutability": "payable",
      "type": "fallback"
    },
    {
      "anonymous": false,
      "inputs": [
        {
          "indexed": false,
          "name": "index",
          "type": "int256"
        },
        {
          "indexed": false,
          "name": "data",
          "type": "int256"
        }
      ],
      "name": "CompanyTrace",
      "type": "event"
    },
    {
      "anonymous": false,
      "inputs": [
        {
          "indexed": true,
          "name": "previousOwner",
          "type": "address"
        },
        {
          "indexed": true,
          "name": "newOwner",
          "type": "address"
        }
      ],
      "name": "OwnershipTransferred",
      "type": "event"
    }
  ],
  "bytecode": "0x606060405234156200001057600080fd5b604051620012dd380380620012dd83398101604052808051820191906020018051906020019091905050336000806101000a81548173ffffffffffffffffffffffffffffffffffffffff021916908373ffffffffffffffffffffffffffffffffffffffff160217905550816001908051906020019062000092929190620000e6565b5080600460006101000a81548173ffffffffffffffffffffffffffffffffffffffff021916908373ffffffffffffffffffffffffffffffffffffffff160217905550620f4240600581905550505062000195565b828054600181600116156101000203166002900490600052602060002090601f016020900481019282601f106200012957805160ff19168380011785556200015a565b828001600101855582156200015a579182015b82811115620001595782518255916020019190600101906200013c565b5b5090506200016991906200016d565b5090565b6200019291905b808211156200018e57600081600090555060010162000174565b5090565b90565b61113880620001a56000396000f3006060604052600436106100a4576000357c0100000000000000000000000000000000000000000000000000000000900463ffffffff16806305cf8d5d146100a657806306fdde03146100cf5780632f0dca8e1461015d5780635388c585146101965780638da5cb5b146101bf578063a035442f14610214578063a6c70b8314610229578063bbfea4d714610293578063f2fde38b146102d5578063f75f9f7b1461030e575b005b34156100b157600080fd5b6100b961035f565b6040518082815260200191505060405180910390f35b34156100da57600080fd5b6100e2610369565b6040518080602001828103825283818151815260200191508051906020019080838360005b83811015610122578082015181840152602081019050610107565b50505050905090810190601f16801561014f5780820380516001836020036101000a031916815260200191505b509250505060405180910390f35b341561016857600080fd5b610194600480803573ffffffffffffffffffffffffffffffffffffffff16906020019091905050610407565b005b34156101a157600080fd5b6101a9610542565b6040518082815260200191505060405180910390f35b34156101ca57600080fd5b6101d261058d565b604051808273ffffffffffffffffffffffffffffffffffffffff1673ffffffffffffffffffffffffffffffffffffffff16815260200191505060405180910390f35b341561021f57600080fd5b6102276105b2565b005b341561023457600080fd5b61023c610a5e565b6040518080602001828103825283818151815260200191508051906020019060200280838360005b8381101561027f578082015181840152602081019050610264565b505050509050019250505060405180910390f35b341561029e57600080fd5b6102d3600480803573ffffffffffffffffffffffffffffffffffffffff16906020019091908035906020019091905050610ba5565b005b34156102e057600080fd5b61030c600480803573ffffffffffffffffffffffffffffffffffffffff16906020019091905050610d04565b005b341561031957600080fd5b610345600480803573ffffffffffffffffffffffffffffffffffffffff16906020019091905050610e59565b604051808215151515815260200191505060405180910390f35b6000600554905090565b60018054600181600116156101000203166002900480601f0160208091040260200160405190810160405280929190818152602001828054600181600116156101000203166002900480156103ff5780601f106103d4576101008083540402835291602001916103ff565b820191906000526020600020905b8154815290600101906020018083116103e257829003601f168201915b505050505081565b600080339150600190503073ffffffffffffffffffffffffffffffffffffffff168273ffffffffffffffffffffffffffffffffffffffff1663f3fe8bec6000604051602001526040518163ffffffff167c0100000000000000000000000000000000000000000000000000000000028152600401602060405180830381600087803b151561049457600080fd5b6102c65a03f115156104a557600080fd5b5050506040518051905073ffffffffffffffffffffffffffffffffffffffff161480156104cf5750805b15156104da57600080fd5b600280548060010182816104ee9190611027565b9160005260206000209001600085909190916101000a81548173ffffffffffffffffffffffffffffffffffffffff021916908373ffffffffffffffffffffffffffffffffffffffff16021790555050505050565b600080600090505b6003805490508110156105895760038181548110151561056657fe5b90600052602060002090600202016001015482019150808060010191505061054a565b5090565b6000809054906101000a900473ffffffffffffffffffffffffffffffffffffffff1681565b600080600080600080600080339150600190503073ffffffffffffffffffffffffffffffffffffffff168273ffffffffffffffffffffffffffffffffffffffff1663f3fe8bec6000604051602001526040518163ffffffff167c0100000000000000000000000000000000000000000000000000000000028152600401602060405180830381600087803b151561064857600080fd5b6102c65a03f1151561065957600080fd5b5050506040518051905073ffffffffffffffffffffffffffffffffffffffff161480156106835750805b151561068e57600080fd5b620f42409750600096506000955060009450600093505b6002805490508410156108af576002848154811015156106c157fe5b906000526020600020900160009054906101000a900473ffffffffffffffffffffffffffffffffffffffff16925060008373ffffffffffffffffffffffffffffffffffffffff1663c032846b6000604051602001526040518163ffffffff167c0100000000000000000000000000000000000000000000000000000000028152600401602060405180830381600087803b151561075d57600080fd5b6102c65a03f1151561076e57600080fd5b505050604051805190501215610783576108a2565b8273ffffffffffffffffffffffffffffffffffffffff16638918767f6000604051602001526040518163ffffffff167c0100000000000000000000000000000000000000000000000000000000028152600401602060405180830381600087803b15156107ef57600080fd5b6102c65a03f1151561080057600080fd5b50505060405180519050870196508273ffffffffffffffffffffffffffffffffffffffff16637aeb875d6000604051602001526040518163ffffffff167c0100000000000000000000000000000000000000000000000000000000028152600401602060405180830381600087803b151561087a57600080fd5b6102c65a03f1151561088b57600080fd5b505050604051805190508601955084806001019550505b83806001019450506106a5565b7f8127b48416bffe20615d09ec0aa08d7d5347611eafaf7912508c1e8900927a7c600188604051808381526020018281526020019250505060405180910390a17f8127b48416bffe20615d09ec0aa08d7d5347611eafaf7912508c1e8900927a7c600287604051808381526020018281526020019250505060405180910390a17f8127b48416bffe20615d09ec0aa08d7d5347611eafaf7912508c1e8900927a7c600386604051808381526020018281526020019250505060405180910390a1858781151561097a57fe5b0596507f8127b48416bffe20615d09ec0aa08d7d5347611eafaf7912508c1e8900927a7c600488604051808381526020018281526020019250505060405180910390a1876109c6610542565b02870196507f8127b48416bffe20615d09ec0aa08d7d5347611eafaf7912508c1e8900927a7c600588604051808381526020018281526020019250505060405180910390a18787016005819055507f8127b48416bffe20615d09ec0aa08d7d5347611eafaf7912508c1e8900927a7c600688604051808381526020018281526020019250505060405180910390a15050505050505050565b610a66611053565b6000809054906101000a900473ffffffffffffffffffffffffffffffffffffffff1673ffffffffffffffffffffffffffffffffffffffff163373ffffffffffffffffffffffffffffffffffffffff161480610b0e5750600460009054906101000a900473ffffffffffffffffffffffffffffffffffffffff1673ffffffffffffffffffffffffffffffffffffffff163373ffffffffffffffffffffffffffffffffffffffff16145b1515610b1957600080fd5b6002805480602002602001604051908101604052809291908181526020018280548015610b9b57602002820191906000526020600020905b8160009054906101000a900473ffffffffffffffffffffffffffffffffffffffff1673ffffffffffffffffffffffffffffffffffffffff1681526020019060010190808311610b51575b5050505050905090565b6000809054906101000a900473ffffffffffffffffffffffffffffffffffffffff1673ffffffffffffffffffffffffffffffffffffffff163373ffffffffffffffffffffffffffffffffffffffff161480610c4d5750600460009054906101000a900473ffffffffffffffffffffffffffffffffffffffff1673ffffffffffffffffffffffffffffffffffffffff163373ffffffffffffffffffffffffffffffffffffffff16145b1515610c5857600080fd5b60038054806001018281610c6c9190611067565b9160005260206000209060020201600060408051908101604052808673ffffffffffffffffffffffffffffffffffffffff16815260200185815250909190915060008201518160000160006101000a81548173ffffffffffffffffffffffffffffffffffffffff021916908373ffffffffffffffffffffffffffffffffffffffff160217905550602082015181600101555050505050565b6000809054906101000a900473ffffffffffffffffffffffffffffffffffffffff1673ffffffffffffffffffffffffffffffffffffffff163373ffffffffffffffffffffffffffffffffffffffff16141515610d5f57600080fd5b600073ffffffffffffffffffffffffffffffffffffffff168173ffffffffffffffffffffffffffffffffffffffff1614151515610d9b57600080fd5b8073ffffffffffffffffffffffffffffffffffffffff166000809054906101000a900473ffffffffffffffffffffffffffffffffffffffff1673ffffffffffffffffffffffffffffffffffffffff167f8be0079c531659141344cd1fd0a4f28419497f9722a3daafe3b4186f6b6457e060405160405180910390a3806000806101000a81548173ffffffffffffffffffffffffffffffffffffffff021916908373ffffffffffffffffffffffffffffffffffffffff16021790555050565b6000806000809054906101000a900473ffffffffffffffffffffffffffffffffffffffff1673ffffffffffffffffffffffffffffffffffffffff163373ffffffffffffffffffffffffffffffffffffffff161480610f045750600460009054906101000a900473ffffffffffffffffffffffffffffffffffffffff1673ffffffffffffffffffffffffffffffffffffffff163373ffffffffffffffffffffffffffffffffffffffff16145b1515610f0f57600080fd5b600090505b60028054905081101561101c57600281815481101515610f3057fe5b906000526020600020900160009054906101000a900473ffffffffffffffffffffffffffffffffffffffff1673ffffffffffffffffffffffffffffffffffffffff168373ffffffffffffffffffffffffffffffffffffffff16141561100f578273ffffffffffffffffffffffffffffffffffffffff166386da88656040518163ffffffff167c0100000000000000000000000000000000000000000000000000000000028152600401600060405180830381600087803b1515610ff257600080fd5b6102c65a03f1151561100357600080fd5b50505060019150611021565b8080600101915050610f14565b600091505b50919050565b81548183558181151161104e5781836000526020600020918201910161104d9190611099565b5b505050565b602060405190810160405280600081525090565b8154818355818115116110945760020281600202836000526020600020918201910161109391906110be565b5b505050565b6110bb91905b808211156110b757600081600090555060010161109f565b5090565b90565b61110991905b8082111561110557600080820160006101000a81549073ffffffffffffffffffffffffffffffffffffffff02191690556001820160009055506002016110c4565b5090565b905600a165627a7a723058209722fa4dd3fe5be7a433b058fe37bf1436a6e8b83d9a47899d4a5051d676baf30029",
  "source": "pragma solidity ^0.4.11;\r\nimport \"zeppelin-solidity/contracts/ownership/Ownable.sol\";\r\nimport \"./Work.sol\";\r\n\r\n\r\ncontract Company is Ownable {\r\n\r\n    struct Review {\r\n        address employeeAddress;\r\n        int rating;\r\n    }\r\n    event CompanyTrace(int index, int data);\r\n\r\n    string public name;\r\n    Work[] private works;\r\n    Review[] private reviews;\r\n    address private companyAddress;\r\n    int private rating;\r\n\r\n    modifier onlyOwnerOrCompany() {\r\n        require(msg.sender == owner || msg.sender == companyAddress);\r\n        _;\r\n    }\r\n\r\n    modifier onlyWork() {\r\n        Work work = Work(msg.sender);\r\n        //check in store\r\n        bool isInStore = true;\r\n        require(work.getCompanyContractAddress() == address(this) && isInStore);\r\n        _;\r\n    }\r\n\r\n    function Company(string _name, address _companyAddress) public {\r\n        name = _name;\r\n        companyAddress = _companyAddress;\r\n        rating = 1000000;\r\n    }\r\n\r\n    function () public payable {\r\n\r\n    }\r\n\r\n    function addReview(address employee, int _rating) public onlyOwnerOrCompany {\r\n        reviews.push(Review(employee, _rating));\r\n    }\r\n\r\n    function addWork(Work work) public onlyWork {\r\n        works.push(work);\r\n    }\r\n\r\n    function getWorks() public view onlyOwnerOrCompany returns(Work[]) {\r\n        return works;\r\n    }\r\n\r\n    function getRating() public view returns(int) {\r\n        return rating;\r\n    }\r\n\r\n    function getReviewRating() public view returns(int result) {\r\n        for (uint i = 0; i < reviews.length; i++) {\r\n            result += reviews[i].rating;\r\n        }\r\n    }\r\n\r\n    function dispute(Work work) public onlyOwnerOrCompany returns(bool) {\r\n        for (uint i = 0; i < works.length; i++) {\r\n            if (work == works[i]) {\r\n                work.disputeStatusOn();\r\n                return true;\r\n            }\r\n        }\r\n        return false;\r\n    }\r\n\r\n    function changeRating() public onlyWork {\r\n        int n = 1000000;\r\n        int result = 0;\r\n        int totalHours = 0;\r\n        int workCount = 0;\r\n\r\n        for (uint i = 0; i < works.length; i++) {\r\n            Work work = works[i];\r\n            if (work.getContractStatus() < 0) {\r\n                continue;\r\n            }\r\n            result += work.getCompanyWorkRating(); //// R(empl) I\r\n            totalHours += int(work.getWorkedHours()); // R(empl) II\r\n            workCount++; // R(salary) II\r\n        }\r\n        CompanyTrace(1, result);\r\n        CompanyTrace(2, totalHours);\r\n        CompanyTrace(3, workCount);\r\n        // R(empl) II\r\n        result /= int(totalHours);\r\n        CompanyTrace(4, result);\r\n\r\n        result += getReviewRating() * n; // R(reviews)\r\n\r\n        CompanyTrace(5, result);\r\n        rating = result + n;\r\n        CompanyTrace(6, result);\r\n    }\r\n}\r\n",
  "sourcePath": "E:\\ilgiz\\nodeProjects\\emploreum_smart_contracts\\contracts\\Company.sol",
  "compiler": {
    "name": "solc",
    "version": "0.4.18+commit.9cf6e910.Emscripten.clang"
  },
  "schemaVersion": "1.0.1",
  "updatedAt": "2018-03-31T16:06:29.060Z"
}