{
  "contractName": "Company",
  "abi": [
    {
      "constant": true,
      "inputs": [],
      "name": "name",
      "outputs": [
        {
          "name": "",
          "type": "string"
        }
      ],
      "payable": false,
      "stateMutability": "view",
      "type": "function"
    },
    {
      "constant": true,
      "inputs": [],
      "name": "rating",
      "outputs": [
        {
          "name": "",
          "type": "uint256"
        }
      ],
      "payable": false,
      "stateMutability": "view",
      "type": "function"
    },
    {
      "constant": true,
      "inputs": [],
      "name": "owner",
      "outputs": [
        {
          "name": "",
          "type": "address"
        }
      ],
      "payable": false,
      "stateMutability": "view",
      "type": "function"
    },
    {
      "constant": false,
      "inputs": [
        {
          "name": "newOwner",
          "type": "address"
        }
      ],
      "name": "transferOwnership",
      "outputs": [],
      "payable": false,
      "stateMutability": "nonpayable",
      "type": "function"
    },
    {
      "inputs": [
        {
          "name": "_name",
          "type": "string"
        },
        {
          "name": "_rating",
          "type": "uint256"
        },
        {
          "name": "_companyAddress",
          "type": "address"
        }
      ],
      "payable": false,
      "stateMutability": "nonpayable",
      "type": "constructor"
    },
    {
      "payable": true,
      "stateMutability": "payable",
      "type": "fallback"
    },
    {
      "anonymous": false,
      "inputs": [
        {
          "indexed": true,
          "name": "previousOwner",
          "type": "address"
        },
        {
          "indexed": true,
          "name": "newOwner",
          "type": "address"
        }
      ],
      "name": "OwnershipTransferred",
      "type": "event"
    },
    {
      "constant": false,
      "inputs": [
        {
          "name": "newRaiting",
          "type": "uint256"
        }
      ],
      "name": "changeRaiting",
      "outputs": [],
      "payable": false,
      "stateMutability": "nonpayable",
      "type": "function"
    },
    {
      "constant": false,
      "inputs": [
        {
          "name": "_employee",
          "type": "address"
        }
      ],
      "name": "addEmployee",
      "outputs": [],
      "payable": false,
      "stateMutability": "nonpayable",
      "type": "function"
    },
    {
      "constant": false,
      "inputs": [
        {
          "name": "_employee",
          "type": "address"
        }
      ],
      "name": "removeEmployee",
      "outputs": [],
      "payable": false,
      "stateMutability": "nonpayable",
      "type": "function"
    }
  ],
  "bytecode": "0x6060604052341561000f57600080fd5b604051610bd4380380610bd483398101604052808051820191906020018051906020019091908051906020019091905050336000806101000a81548173ffffffffffffffffffffffffffffffffffffffff021916908373ffffffffffffffffffffffffffffffffffffffff16021790555082600190805190602001906100969291906100e7565b508160028190555080600460006101000a81548173ffffffffffffffffffffffffffffffffffffffff021916908373ffffffffffffffffffffffffffffffffffffffff16021790555050505061018c565b828054600181600116156101000203166002900490600052602060002090601f016020900481019282601f1061012857805160ff1916838001178555610156565b82800160010185558215610156579182015b8281111561015557825182559160200191906001019061013a565b5b5090506101639190610167565b5090565b61018991905b8082111561018557600081600090555060010161016d565b5090565b90565b610a398061019b6000396000f300606060405260043610610083576000357c0100000000000000000000000000000000000000000000000000000000900463ffffffff16806306fdde03146100e6578063637b825c1461017457806380f474f6146101975780638da5cb5b146101c0578063d108177a14610215578063f2fde38b1461024e578063f3cb8c3114610287575b6000809054906101000a900473ffffffffffffffffffffffffffffffffffffffff1673ffffffffffffffffffffffffffffffffffffffff166108fc349081150290604051600060405180830381858888f1935050505015156100e457600080fd5b005b34156100f157600080fd5b6100f96102c0565b6040518080602001828103825283818151815260200191508051906020019080838360005b8381101561013957808201518184015260208101905061011e565b50505050905090810190601f1680156101665780820380516001836020036101000a031916815260200191505b509250505060405180910390f35b341561017f57600080fd5b610195600480803590602001909190505061035e565b005b34156101a257600080fd5b6101aa6103c3565b6040518082815260200191505060405180910390f35b34156101cb57600080fd5b6101d36103c9565b604051808273ffffffffffffffffffffffffffffffffffffffff1673ffffffffffffffffffffffffffffffffffffffff16815260200191505060405180910390f35b341561022057600080fd5b61024c600480803573ffffffffffffffffffffffffffffffffffffffff169060200190919050506103ee565b005b341561025957600080fd5b610285600480803573ffffffffffffffffffffffffffffffffffffffff1690602001909190505061050e565b005b341561029257600080fd5b6102be600480803573ffffffffffffffffffffffffffffffffffffffff16906020019091905050610663565b005b60018054600181600116156101000203166002900480601f0160208091040260200160405190810160405280929190818152602001828054600181600116156101000203166002900480156103565780601f1061032b57610100808354040283529160200191610356565b820191906000526020600020905b81548152906001019060200180831161033957829003601f168201915b505050505081565b6000809054906101000a900473ffffffffffffffffffffffffffffffffffffffff1673ffffffffffffffffffffffffffffffffffffffff163373ffffffffffffffffffffffffffffffffffffffff161415156103b957600080fd5b8060028190555050565b60025481565b6000809054906101000a900473ffffffffffffffffffffffffffffffffffffffff1681565b60008060009054906101000a900473ffffffffffffffffffffffffffffffffffffffff1673ffffffffffffffffffffffffffffffffffffffff163373ffffffffffffffffffffffffffffffffffffffff1614806104985750600460009054906101000a900473ffffffffffffffffffffffffffffffffffffffff1673ffffffffffffffffffffffffffffffffffffffff163373ffffffffffffffffffffffffffffffffffffffff16145b15156104a357600080fd5b6104ac8261084b565b9050600081101515156104be57600080fd5b60006003828154811015156104cf57fe5b906000526020600020900160000160146101000a81548160ff02191690831515021790555060038054809190600190036105099190610929565b505050565b6000809054906101000a900473ffffffffffffffffffffffffffffffffffffffff1673ffffffffffffffffffffffffffffffffffffffff163373ffffffffffffffffffffffffffffffffffffffff1614151561056957600080fd5b600073ffffffffffffffffffffffffffffffffffffffff168173ffffffffffffffffffffffffffffffffffffffff16141515156105a557600080fd5b8073ffffffffffffffffffffffffffffffffffffffff166000809054906101000a900473ffffffffffffffffffffffffffffffffffffffff1673ffffffffffffffffffffffffffffffffffffffff167f8be0079c531659141344cd1fd0a4f28419497f9722a3daafe3b4186f6b6457e060405160405180910390a3806000806101000a81548173ffffffffffffffffffffffffffffffffffffffff021916908373ffffffffffffffffffffffffffffffffffffffff16021790555050565b600061066d610955565b6000809054906101000a900473ffffffffffffffffffffffffffffffffffffffff1673ffffffffffffffffffffffffffffffffffffffff163373ffffffffffffffffffffffffffffffffffffffff1614806107155750600460009054906101000a900473ffffffffffffffffffffffffffffffffffffffff1673ffffffffffffffffffffffffffffffffffffffff163373ffffffffffffffffffffffffffffffffffffffff16145b151561072057600080fd5b6107298361084b565b915060008210156107fa5760408051908101604052808473ffffffffffffffffffffffffffffffffffffffff168152602001600115158152509050600380548060010182816107789190610987565b9160005260206000209001600083909190915060008201518160000160006101000a81548173ffffffffffffffffffffffffffffffffffffffff021916908373ffffffffffffffffffffffffffffffffffffffff16021790555060208201518160000160146101000a81548160ff021916908315150217905550505050610846565b600160038381548110151561080b57fe5b906000526020600020900160000160146101000a81548160ff021916908315150217905550600380548091906001016108449190610929565b505b505050565b600080600090505b60038054905081101561091f578273ffffffffffffffffffffffffffffffffffffffff1660038381548110151561088657fe5b906000526020600020900160000160009054906101000a900473ffffffffffffffffffffffffffffffffffffffff1673ffffffffffffffffffffffffffffffffffffffff1614156108d957819150610923565b6003828154811015156108e857fe5b906000526020600020900160000160149054906101000a900460ff16156109125780806001019150505b8180600101925050610853565b8191505b50919050565b8154818355818115116109505781836000526020600020918201910161094f91906109b3565b5b505050565b6040805190810160405280600073ffffffffffffffffffffffffffffffffffffffff1681526020016000151581525090565b8154818355818115116109ae578183600052602060002091820191016109ad91906109b3565b5b505050565b610a0a91905b80821115610a0657600080820160006101000a81549073ffffffffffffffffffffffffffffffffffffffff02191690556000820160146101000a81549060ff0219169055506001016109b9565b5090565b905600a165627a7a72305820ed9bcb483cd18906a619e82f5ffb528e13ddb9015269bc249fc3b757224e480c0029",
  "source": "pragma solidity ^0.4.11;\r\nimport \"zeppelin-solidity/contracts/ownership/Ownable.sol\";\r\nimport \"./Work.sol\";\r\n\r\n\r\ncontract Company is Ownable {\r\n\r\n    struct Worker {\r\n        address employeeAddress;\r\n        bool hired;\r\n    }\r\n\r\n    string public name;\r\n    uint public rating;\r\n    Worker[] private employees;\r\n    address private companyAddress;\r\n\r\n    modifier onlyOwnerOrCompany() {\r\n        require(msg.sender == owner || msg.sender == companyAddress);\r\n        _;\r\n    }\r\n\r\n    function Company(string _name, uint _rating, address _companyAddress) public {\r\n        name = _name;\r\n        rating = _rating;\r\n        companyAddress = _companyAddress;\r\n    }\r\n\r\n    function () public payable {\r\n        owner.transfer(msg.value);\r\n    }\r\n\r\n    function changeRaiting(uint newRaiting) public onlyOwner {\r\n        rating = newRaiting;\r\n    }\r\n\r\n    function addEmployee(address _employee) public onlyOwnerOrCompany {\r\n        uint index = findEmployee(_employee);\r\n\r\n        if (index < 0) {\r\n            Worker memory employee = Worker(_employee, true);\r\n            employees.push(employee);\r\n        } else {\r\n            employees[index].hired = true;\r\n            employees.length++;\r\n        }\r\n    }\r\n\r\n    function removeEmployee(address _employee) public onlyOwnerOrCompany {\r\n        uint index = findEmployee(_employee);\r\n        require(index >= 0);\r\n\r\n        employees[index].hired = false;\r\n        employees.length--;\r\n    }\r\n\r\n    function findEmployee(address employee) private view returns (uint index) {\r\n        uint employeeNumber = 0;\r\n\r\n        while (employeeNumber < employees.length) {\r\n            if (employees[index].employeeAddress == employee)\r\n                return index;\r\n            if (employees[index].hired)\r\n                employeeNumber++;\r\n            index++;\r\n        }\r\n        return index;\r\n    }\r\n}\r\n",
  "sourcePath": "D:\\node_projects\\smart\\smart_contract_example\\contracts\\Company.sol",
  "compiler": {
    "name": "solc",
    "version": "0.4.19+commit.c4cbbb05.Emscripten.clang"
  },
  "schemaVersion": "1.0.1",
  "updatedAt": "2018-03-05T17:33:56.108Z"
}