{
  "contractName": "Company",
  "abi": [
    {
      "constant": true,
      "inputs": [],
      "name": "name",
      "outputs": [
        {
          "name": "",
          "type": "string"
        }
      ],
      "payable": false,
      "stateMutability": "view",
      "type": "function"
    },
    {
      "constant": true,
      "inputs": [],
      "name": "owner",
      "outputs": [
        {
          "name": "",
          "type": "address"
        }
      ],
      "payable": false,
      "stateMutability": "view",
      "type": "function"
    },
    {
      "constant": false,
      "inputs": [
        {
          "name": "newOwner",
          "type": "address"
        }
      ],
      "name": "transferOwnership",
      "outputs": [],
      "payable": false,
      "stateMutability": "nonpayable",
      "type": "function"
    },
    {
      "inputs": [
        {
          "name": "_name",
          "type": "string"
        },
        {
          "name": "_companyAddress",
          "type": "address"
        }
      ],
      "payable": false,
      "stateMutability": "nonpayable",
      "type": "constructor"
    },
    {
      "payable": true,
      "stateMutability": "payable",
      "type": "fallback"
    },
    {
      "anonymous": false,
      "inputs": [
        {
          "indexed": true,
          "name": "previousOwner",
          "type": "address"
        },
        {
          "indexed": true,
          "name": "newOwner",
          "type": "address"
        }
      ],
      "name": "OwnershipTransferred",
      "type": "event"
    },
    {
      "constant": false,
      "inputs": [
        {
          "name": "employee",
          "type": "address"
        },
        {
          "name": "_rating",
          "type": "int256"
        }
      ],
      "name": "addReview",
      "outputs": [],
      "payable": false,
      "stateMutability": "nonpayable",
      "type": "function"
    },
    {
      "constant": false,
      "inputs": [
        {
          "name": "work",
          "type": "address"
        }
      ],
      "name": "addWork",
      "outputs": [],
      "payable": false,
      "stateMutability": "nonpayable",
      "type": "function"
    },
    {
      "constant": true,
      "inputs": [],
      "name": "getWorks",
      "outputs": [
        {
          "name": "",
          "type": "address[]"
        }
      ],
      "payable": false,
      "stateMutability": "view",
      "type": "function"
    },
    {
      "constant": true,
      "inputs": [],
      "name": "getRating",
      "outputs": [
        {
          "name": "",
          "type": "int256"
        }
      ],
      "payable": false,
      "stateMutability": "view",
      "type": "function"
    },
    {
      "constant": true,
      "inputs": [],
      "name": "getReviewRating",
      "outputs": [
        {
          "name": "result",
          "type": "int256"
        }
      ],
      "payable": false,
      "stateMutability": "view",
      "type": "function"
    },
    {
      "constant": false,
      "inputs": [
        {
          "name": "work",
          "type": "address"
        }
      ],
      "name": "dispute",
      "outputs": [
        {
          "name": "",
          "type": "bool"
        }
      ],
      "payable": false,
      "stateMutability": "nonpayable",
      "type": "function"
    },
    {
      "constant": false,
      "inputs": [],
      "name": "changeRating",
      "outputs": [],
      "payable": false,
      "stateMutability": "nonpayable",
      "type": "function"
    }
  ],
  "bytecode": "0x6060604052341561000f57600080fd5b60405161114c38038061114c83398101604052808051820191906020018051906020019091905050336000806101000a81548173ffffffffffffffffffffffffffffffffffffffff021916908373ffffffffffffffffffffffffffffffffffffffff160217905550816001908051906020019061008d9291906100e0565b5080600460006101000a81548173ffffffffffffffffffffffffffffffffffffffff021916908373ffffffffffffffffffffffffffffffffffffffff160217905550620f42406005819055505050610185565b828054600181600116156101000203166002900490600052602060002090601f016020900481019282601f1061012157805160ff191683800117855561014f565b8280016001018555821561014f579182015b8281111561014e578251825591602001919060010190610133565b5b50905061015c9190610160565b5090565b61018291905b8082111561017e576000816000905550600101610166565b5090565b90565b610fb8806101946000396000f3006060604052600436106100a4576000357c0100000000000000000000000000000000000000000000000000000000900463ffffffff16806305cf8d5d146100a657806306fdde03146100cf5780632f0dca8e1461015d5780635388c585146101965780638da5cb5b146101bf578063a035442f14610214578063a6c70b8314610229578063bbfea4d714610293578063f2fde38b146102d5578063f75f9f7b1461030e575b005b34156100b157600080fd5b6100b961035f565b6040518082815260200191505060405180910390f35b34156100da57600080fd5b6100e2610369565b6040518080602001828103825283818151815260200191508051906020019080838360005b83811015610122578082015181840152602081019050610107565b50505050905090810190601f16801561014f5780820380516001836020036101000a031916815260200191505b509250505060405180910390f35b341561016857600080fd5b610194600480803573ffffffffffffffffffffffffffffffffffffffff16906020019091905050610407565b005b34156101a157600080fd5b6101a9610542565b6040518082815260200191505060405180910390f35b34156101ca57600080fd5b6101d261058d565b604051808273ffffffffffffffffffffffffffffffffffffffff1673ffffffffffffffffffffffffffffffffffffffff16815260200191505060405180910390f35b341561021f57600080fd5b6102276105b2565b005b341561023457600080fd5b61023c6108de565b6040518080602001828103825283818151815260200191508051906020019060200280838360005b8381101561027f578082015181840152602081019050610264565b505050509050019250505060405180910390f35b341561029e57600080fd5b6102d3600480803573ffffffffffffffffffffffffffffffffffffffff16906020019091908035906020019091905050610a25565b005b34156102e057600080fd5b61030c600480803573ffffffffffffffffffffffffffffffffffffffff16906020019091905050610b84565b005b341561031957600080fd5b610345600480803573ffffffffffffffffffffffffffffffffffffffff16906020019091905050610cd9565b604051808215151515815260200191505060405180910390f35b6000600554905090565b60018054600181600116156101000203166002900480601f0160208091040260200160405190810160405280929190818152602001828054600181600116156101000203166002900480156103ff5780601f106103d4576101008083540402835291602001916103ff565b820191906000526020600020905b8154815290600101906020018083116103e257829003601f168201915b505050505081565b600080339150600190503073ffffffffffffffffffffffffffffffffffffffff168273ffffffffffffffffffffffffffffffffffffffff1663f3fe8bec6000604051602001526040518163ffffffff167c0100000000000000000000000000000000000000000000000000000000028152600401602060405180830381600087803b151561049457600080fd5b6102c65a03f115156104a557600080fd5b5050506040518051905073ffffffffffffffffffffffffffffffffffffffff161480156104cf5750805b15156104da57600080fd5b600280548060010182816104ee9190610ea7565b9160005260206000209001600085909190916101000a81548173ffffffffffffffffffffffffffffffffffffffff021916908373ffffffffffffffffffffffffffffffffffffffff16021790555050505050565b600080600090505b6003805490508110156105895760038181548110151561056657fe5b90600052602060002090600202016001015482019150808060010191505061054a565b5090565b6000809054906101000a900473ffffffffffffffffffffffffffffffffffffffff1681565b600080600080600080600080339150600190503073ffffffffffffffffffffffffffffffffffffffff168273ffffffffffffffffffffffffffffffffffffffff1663f3fe8bec6000604051602001526040518163ffffffff167c0100000000000000000000000000000000000000000000000000000000028152600401602060405180830381600087803b151561064857600080fd5b6102c65a03f1151561065957600080fd5b5050506040518051905073ffffffffffffffffffffffffffffffffffffffff161480156106835750805b151561068e57600080fd5b620f42409750600096506000955060009450600093505b6002805490508410156108af576002848154811015156106c157fe5b906000526020600020900160009054906101000a900473ffffffffffffffffffffffffffffffffffffffff16925060008373ffffffffffffffffffffffffffffffffffffffff1663c032846b6000604051602001526040518163ffffffff167c0100000000000000000000000000000000000000000000000000000000028152600401602060405180830381600087803b151561075d57600080fd5b6102c65a03f1151561076e57600080fd5b505050604051805190501215610783576108a2565b8273ffffffffffffffffffffffffffffffffffffffff16638918767f6000604051602001526040518163ffffffff167c0100000000000000000000000000000000000000000000000000000000028152600401602060405180830381600087803b15156107ef57600080fd5b6102c65a03f1151561080057600080fd5b50505060405180519050870196508273ffffffffffffffffffffffffffffffffffffffff16637aeb875d6000604051602001526040518163ffffffff167c0100000000000000000000000000000000000000000000000000000000028152600401602060405180830381600087803b151561087a57600080fd5b6102c65a03f1151561088b57600080fd5b505050604051805190508601955084806001019550505b83806001019450506106a5565b85878115156108ba57fe5b059650876108c6610542565b02870196508787016005819055505050505050505050565b6108e6610ed3565b6000809054906101000a900473ffffffffffffffffffffffffffffffffffffffff1673ffffffffffffffffffffffffffffffffffffffff163373ffffffffffffffffffffffffffffffffffffffff16148061098e5750600460009054906101000a900473ffffffffffffffffffffffffffffffffffffffff1673ffffffffffffffffffffffffffffffffffffffff163373ffffffffffffffffffffffffffffffffffffffff16145b151561099957600080fd5b6002805480602002602001604051908101604052809291908181526020018280548015610a1b57602002820191906000526020600020905b8160009054906101000a900473ffffffffffffffffffffffffffffffffffffffff1673ffffffffffffffffffffffffffffffffffffffff16815260200190600101908083116109d1575b5050505050905090565b6000809054906101000a900473ffffffffffffffffffffffffffffffffffffffff1673ffffffffffffffffffffffffffffffffffffffff163373ffffffffffffffffffffffffffffffffffffffff161480610acd5750600460009054906101000a900473ffffffffffffffffffffffffffffffffffffffff1673ffffffffffffffffffffffffffffffffffffffff163373ffffffffffffffffffffffffffffffffffffffff16145b1515610ad857600080fd5b60038054806001018281610aec9190610ee7565b9160005260206000209060020201600060408051908101604052808673ffffffffffffffffffffffffffffffffffffffff16815260200185815250909190915060008201518160000160006101000a81548173ffffffffffffffffffffffffffffffffffffffff021916908373ffffffffffffffffffffffffffffffffffffffff160217905550602082015181600101555050505050565b6000809054906101000a900473ffffffffffffffffffffffffffffffffffffffff1673ffffffffffffffffffffffffffffffffffffffff163373ffffffffffffffffffffffffffffffffffffffff16141515610bdf57600080fd5b600073ffffffffffffffffffffffffffffffffffffffff168173ffffffffffffffffffffffffffffffffffffffff1614151515610c1b57600080fd5b8073ffffffffffffffffffffffffffffffffffffffff166000809054906101000a900473ffffffffffffffffffffffffffffffffffffffff1673ffffffffffffffffffffffffffffffffffffffff167f8be0079c531659141344cd1fd0a4f28419497f9722a3daafe3b4186f6b6457e060405160405180910390a3806000806101000a81548173ffffffffffffffffffffffffffffffffffffffff021916908373ffffffffffffffffffffffffffffffffffffffff16021790555050565b6000806000809054906101000a900473ffffffffffffffffffffffffffffffffffffffff1673ffffffffffffffffffffffffffffffffffffffff163373ffffffffffffffffffffffffffffffffffffffff161480610d845750600460009054906101000a900473ffffffffffffffffffffffffffffffffffffffff1673ffffffffffffffffffffffffffffffffffffffff163373ffffffffffffffffffffffffffffffffffffffff16145b1515610d8f57600080fd5b600090505b600280549050811015610e9c57600281815481101515610db057fe5b906000526020600020900160009054906101000a900473ffffffffffffffffffffffffffffffffffffffff1673ffffffffffffffffffffffffffffffffffffffff168373ffffffffffffffffffffffffffffffffffffffff161415610e8f578273ffffffffffffffffffffffffffffffffffffffff166386da88656040518163ffffffff167c0100000000000000000000000000000000000000000000000000000000028152600401600060405180830381600087803b1515610e7257600080fd5b6102c65a03f11515610e8357600080fd5b50505060019150610ea1565b8080600101915050610d94565b600091505b50919050565b815481835581811511610ece57818360005260206000209182019101610ecd9190610f19565b5b505050565b602060405190810160405280600081525090565b815481835581811511610f1457600202816002028360005260206000209182019101610f139190610f3e565b5b505050565b610f3b91905b80821115610f37576000816000905550600101610f1f565b5090565b90565b610f8991905b80821115610f8557600080820160006101000a81549073ffffffffffffffffffffffffffffffffffffffff0219169055600182016000905550600201610f44565b5090565b905600a165627a7a723058204d03118de2089685348423819a6df9473e56e4461f16ebe4fa95aadda1f006790029",
  "source": "pragma solidity ^0.4.11;\r\nimport \"zeppelin-solidity/contracts/ownership/Ownable.sol\";\r\nimport \"./Work.sol\";\r\n\r\n\r\ncontract Company is Ownable {\r\n\r\n    struct Review {\r\n        address employeeAddress;\r\n        int rating;\r\n    }\r\n\r\n    string public name;\r\n    Work[] private works;\r\n    Review[] private reviews;\r\n    address private companyAddress;\r\n    int private rating;\r\n\r\n    modifier onlyOwnerOrCompany() {\r\n        require(msg.sender == owner || msg.sender == companyAddress);\r\n        _;\r\n    }\r\n\r\n    modifier onlyWork() {\r\n        Work work = Work(msg.sender);\r\n        //check in store\r\n        bool isInStore = true;\r\n        require(work.getCompanyContractAddress() == address(this) && isInStore);\r\n        _;\r\n    }\r\n\r\n    function Company(string _name, address _companyAddress) public {\r\n        name = _name;\r\n        companyAddress = _companyAddress;\r\n        rating = 1000000;\r\n    }\r\n\r\n    function () public payable {\r\n\r\n    }\r\n\r\n    function addReview(address employee, int _rating) public onlyOwnerOrCompany {\r\n        reviews.push(Review(employee, _rating));\r\n    }\r\n\r\n    function addWork(Work work) public onlyWork {\r\n        works.push(work);\r\n    }\r\n\r\n    function getWorks() public view onlyOwnerOrCompany returns(Work[]) {\r\n        return works;\r\n    }\r\n\r\n    function getRating() public view returns(int) {\r\n        return rating;\r\n    }\r\n\r\n    function getReviewRating() public view returns(int result) {\r\n        for (uint i = 0; i < reviews.length; i++) {\r\n            result += reviews[i].rating;\r\n        }\r\n    }\r\n\r\n    function dispute(Work work) public onlyOwnerOrCompany returns(bool) {\r\n        for (uint i = 0; i < works.length; i++) {\r\n            if (work == works[i]) {\r\n                work.disputeStatusOn();\r\n                return true;\r\n            }\r\n        }\r\n        return false;\r\n    }\r\n\r\n    function changeRating() public onlyWork {\r\n        int n = 1000000;\r\n        int result = 0;\r\n        int totalHours = 0;\r\n        int workCount = 0;\r\n\r\n        for (uint i = 0; i < works.length; i++) {\r\n            Work work = works[i];\r\n            if (work.getContractStatus() < 0) {\r\n                continue;\r\n            }\r\n            result += work.getCompanyWorkRating(); //// R(empl) I\r\n            totalHours += int(work.getWorkedHours()); // R(empl) II\r\n            workCount++; // R(salary) II\r\n        }\r\n        // R(empl) II\r\n        result /= int(totalHours);\r\n        result += getReviewRating() * n; // R(reviews)\r\n        rating = result + n;\r\n    }\r\n}\r\n",
  "sourcePath": "D:\\node_projects\\smart\\smart_contract_example\\contracts\\Company.sol",
  "compiler": {
    "name": "solc",
    "version": "0.4.19+commit.c4cbbb05.Emscripten.clang"
  },
  "schemaVersion": "1.0.1",
  "updatedAt": "2018-03-28T23:25:11.289Z"
}