{
  "contractName": "Company",
  "abi": [
    {
      "constant": true,
      "inputs": [],
      "name": "name",
      "outputs": [
        {
          "name": "",
          "type": "string"
        }
      ],
      "payable": false,
      "stateMutability": "view",
      "type": "function"
    },
    {
      "constant": true,
      "inputs": [],
      "name": "rating",
      "outputs": [
        {
          "name": "",
          "type": "uint256"
        }
      ],
      "payable": false,
      "stateMutability": "view",
      "type": "function"
    },
    {
      "constant": true,
      "inputs": [],
      "name": "owner",
      "outputs": [
        {
          "name": "",
          "type": "address"
        }
      ],
      "payable": false,
      "stateMutability": "view",
      "type": "function"
    },
    {
      "constant": false,
      "inputs": [
        {
          "name": "newOwner",
          "type": "address"
        }
      ],
      "name": "transferOwnership",
      "outputs": [],
      "payable": false,
      "stateMutability": "nonpayable",
      "type": "function"
    },
    {
      "inputs": [
        {
          "name": "_name",
          "type": "string"
        },
        {
          "name": "_rating",
          "type": "uint256"
        },
        {
          "name": "_companyAddress",
          "type": "address"
        }
      ],
      "payable": false,
      "stateMutability": "nonpayable",
      "type": "constructor"
    },
    {
      "payable": true,
      "stateMutability": "payable",
      "type": "fallback"
    },
    {
      "anonymous": false,
      "inputs": [
        {
          "indexed": true,
          "name": "previousOwner",
          "type": "address"
        },
        {
          "indexed": true,
          "name": "newOwner",
          "type": "address"
        }
      ],
      "name": "OwnershipTransferred",
      "type": "event"
    },
    {
      "constant": false,
      "inputs": [
        {
          "name": "newRaiting",
          "type": "uint256"
        }
      ],
      "name": "changeRaiting",
      "outputs": [],
      "payable": false,
      "stateMutability": "nonpayable",
      "type": "function"
    },
    {
      "constant": false,
      "inputs": [
        {
          "name": "_employee",
          "type": "address"
        }
      ],
      "name": "addEmployee",
      "outputs": [],
      "payable": false,
      "stateMutability": "nonpayable",
      "type": "function"
    },
    {
      "constant": false,
      "inputs": [
        {
          "name": "_employee",
          "type": "address"
        }
      ],
      "name": "removeEmployee",
      "outputs": [],
      "payable": false,
      "stateMutability": "nonpayable",
      "type": "function"
    },
    {
      "constant": false,
      "inputs": [
        {
          "name": "work",
          "type": "address"
        }
      ],
      "name": "sendWeekSalary",
      "outputs": [],
      "payable": true,
      "stateMutability": "payable",
      "type": "function"
    }
  ],
  "bytecode": "0x6060604052341561000f57600080fd5b604051610c88380380610c8883398101604052808051820191906020018051906020019091908051906020019091905050336000806101000a81548173ffffffffffffffffffffffffffffffffffffffff021916908373ffffffffffffffffffffffffffffffffffffffff16021790555082600190805190602001906100969291906100e7565b508160028190555080600460006101000a81548173ffffffffffffffffffffffffffffffffffffffff021916908373ffffffffffffffffffffffffffffffffffffffff16021790555050505061018c565b828054600181600116156101000203166002900490600052602060002090601f016020900481019282601f1061012857805160ff1916838001178555610156565b82800160010185558215610156579182015b8281111561015557825182559160200191906001019061013a565b5b5090506101639190610167565b5090565b61018991905b8082111561018557600081600090555060010161016d565b5090565b90565b610aed8061019b6000396000f30060606040526004361061008e576000357c0100000000000000000000000000000000000000000000000000000000900463ffffffff16806306fdde03146100f1578063637b825c1461017f578063660512bc146101a257806380f474f6146101d05780638da5cb5b146101f9578063d108177a1461024e578063f2fde38b14610287578063f3cb8c31146102c0575b6000809054906101000a900473ffffffffffffffffffffffffffffffffffffffff1673ffffffffffffffffffffffffffffffffffffffff166108fc349081150290604051600060405180830381858888f1935050505015156100ef57600080fd5b005b34156100fc57600080fd5b6101046102f9565b6040518080602001828103825283818151815260200191508051906020019080838360005b83811015610144578082015181840152602081019050610129565b50505050905090810190601f1680156101715780820380516001836020036101000a031916815260200191505b509250505060405180910390f35b341561018a57600080fd5b6101a06004808035906020019091905050610397565b005b6101ce600480803573ffffffffffffffffffffffffffffffffffffffff169060200190919050506103fc565b005b34156101db57600080fd5b6101e3610477565b6040518082815260200191505060405180910390f35b341561020457600080fd5b61020c61047d565b604051808273ffffffffffffffffffffffffffffffffffffffff1673ffffffffffffffffffffffffffffffffffffffff16815260200191505060405180910390f35b341561025957600080fd5b610285600480803573ffffffffffffffffffffffffffffffffffffffff169060200190919050506104a2565b005b341561029257600080fd5b6102be600480803573ffffffffffffffffffffffffffffffffffffffff169060200190919050506105c2565b005b34156102cb57600080fd5b6102f7600480803573ffffffffffffffffffffffffffffffffffffffff16906020019091905050610717565b005b60018054600181600116156101000203166002900480601f01602080910402602001604051908101604052809291908181526020018280546001816001161561010002031660029004801561038f5780601f106103645761010080835404028352916020019161038f565b820191906000526020600020905b81548152906001019060200180831161037257829003601f168201915b505050505081565b6000809054906101000a900473ffffffffffffffffffffffffffffffffffffffff1673ffffffffffffffffffffffffffffffffffffffff163373ffffffffffffffffffffffffffffffffffffffff161415156103f257600080fd5b8060028190555050565b8073ffffffffffffffffffffffffffffffffffffffff1663609bb794346040518263ffffffff167c01000000000000000000000000000000000000000000000000000000000281526004016000604051808303818588803b151561045f57600080fd5b6125ee5a03f1151561047057600080fd5b5050505050565b60025481565b6000809054906101000a900473ffffffffffffffffffffffffffffffffffffffff1681565b60008060009054906101000a900473ffffffffffffffffffffffffffffffffffffffff1673ffffffffffffffffffffffffffffffffffffffff163373ffffffffffffffffffffffffffffffffffffffff16148061054c5750600460009054906101000a900473ffffffffffffffffffffffffffffffffffffffff1673ffffffffffffffffffffffffffffffffffffffff163373ffffffffffffffffffffffffffffffffffffffff16145b151561055757600080fd5b610560826108ff565b90506000811015151561057257600080fd5b600060038281548110151561058357fe5b906000526020600020900160000160146101000a81548160ff02191690831515021790555060038054809190600190036105bd91906109dd565b505050565b6000809054906101000a900473ffffffffffffffffffffffffffffffffffffffff1673ffffffffffffffffffffffffffffffffffffffff163373ffffffffffffffffffffffffffffffffffffffff1614151561061d57600080fd5b600073ffffffffffffffffffffffffffffffffffffffff168173ffffffffffffffffffffffffffffffffffffffff161415151561065957600080fd5b8073ffffffffffffffffffffffffffffffffffffffff166000809054906101000a900473ffffffffffffffffffffffffffffffffffffffff1673ffffffffffffffffffffffffffffffffffffffff167f8be0079c531659141344cd1fd0a4f28419497f9722a3daafe3b4186f6b6457e060405160405180910390a3806000806101000a81548173ffffffffffffffffffffffffffffffffffffffff021916908373ffffffffffffffffffffffffffffffffffffffff16021790555050565b6000610721610a09565b6000809054906101000a900473ffffffffffffffffffffffffffffffffffffffff1673ffffffffffffffffffffffffffffffffffffffff163373ffffffffffffffffffffffffffffffffffffffff1614806107c95750600460009054906101000a900473ffffffffffffffffffffffffffffffffffffffff1673ffffffffffffffffffffffffffffffffffffffff163373ffffffffffffffffffffffffffffffffffffffff16145b15156107d457600080fd5b6107dd836108ff565b915060008210156108ae5760408051908101604052808473ffffffffffffffffffffffffffffffffffffffff1681526020016001151581525090506003805480600101828161082c9190610a3b565b9160005260206000209001600083909190915060008201518160000160006101000a81548173ffffffffffffffffffffffffffffffffffffffff021916908373ffffffffffffffffffffffffffffffffffffffff16021790555060208201518160000160146101000a81548160ff0219169083151502179055505050506108fa565b60016003838154811015156108bf57fe5b906000526020600020900160000160146101000a81548160ff021916908315150217905550600380548091906001016108f891906109dd565b505b505050565b600080600090505b6003805490508110156109d3578273ffffffffffffffffffffffffffffffffffffffff1660038381548110151561093a57fe5b906000526020600020900160000160009054906101000a900473ffffffffffffffffffffffffffffffffffffffff1673ffffffffffffffffffffffffffffffffffffffff16141561098d578191506109d7565b60038281548110151561099c57fe5b906000526020600020900160000160149054906101000a900460ff16156109c65780806001019150505b8180600101925050610907565b8191505b50919050565b815481835581811511610a0457818360005260206000209182019101610a039190610a67565b5b505050565b6040805190810160405280600073ffffffffffffffffffffffffffffffffffffffff1681526020016000151581525090565b815481835581811511610a6257818360005260206000209182019101610a619190610a67565b5b505050565b610abe91905b80821115610aba57600080820160006101000a81549073ffffffffffffffffffffffffffffffffffffffff02191690556000820160146101000a81549060ff021916905550600101610a6d565b5090565b905600a165627a7a72305820dab29a2eb70be56db74f86451c54b93a82c44558d5bb6482a882da273d4eb3ec0029",
  "source": "pragma solidity ^0.4.11;\r\nimport \"zeppelin-solidity/contracts/ownership/Ownable.sol\";\r\nimport \"./Contract.sol\";\r\n\r\n\r\ncontract Company is Ownable {\r\n\r\n    struct Worker {\r\n        address employeeAddress;\r\n        bool hired;\r\n    }\r\n\r\n    string public name;\r\n    uint public rating;\r\n    Worker[] private employees;\r\n    address private companyAddress;\r\n\r\n    modifier onlyOwnerOrCompany() {\r\n        require(msg.sender == owner || msg.sender == companyAddress);\r\n        _;\r\n    }\r\n\r\n    function Company(string _name, uint _rating, address _companyAddress) public {\r\n        name = _name;\r\n        rating = _rating;\r\n        companyAddress = _companyAddress;\r\n    }\r\n\r\n    function () public payable {\r\n        owner.transfer(msg.value);\r\n    }\r\n\r\n    function changeRaiting(uint newRaiting) public onlyOwner {\r\n        rating = newRaiting;\r\n    }\r\n\r\n    function addEmployee(address _employee) public onlyOwnerOrCompany {\r\n        uint index = findEmployee(_employee);\r\n\r\n        if (index < 0) {\r\n            Worker memory employee = Worker(_employee, true);\r\n            employees.push(employee);\r\n        } else {\r\n            employees[index].hired = true;\r\n            employees.length++;\r\n        }\r\n    }\r\n\r\n    function removeEmployee(address _employee) public onlyOwnerOrCompany {\r\n        uint index = findEmployee(_employee);\r\n        require(index >= 0);\r\n\r\n        employees[index].hired = false;\r\n        employees.length--;\r\n    }\r\n\r\n    function sendWeekSalary(Contract work) public payable {\r\n        work.sendWeekSalary.value(msg.value)();\r\n    }\r\n\r\n    function findEmployee(address employee) private view returns (uint index) {\r\n        uint employeeNumber = 0;\r\n\r\n        while (employeeNumber < employees.length) {\r\n            if (employees[index].employeeAddress == employee)\r\n                return index;\r\n            if (employees[index].hired)\r\n                employeeNumber++;\r\n            index++;\r\n        }\r\n        return index;\r\n    }\r\n}\r\n",
  "sourcePath": "D:\\node_projects\\smart\\smart_contract_example\\contracts\\Company.sol",
  "compiler": {
    "name": "solc",
    "version": "0.4.19+commit.c4cbbb05.Emscripten.clang"
  },
  "schemaVersion": "1.0.1",
  "updatedAt": "2018-02-18T21:45:14.145Z"
}