{
  "contractName": "Contract",
  "abi": [
    {
      "constant": true,
      "inputs": [],
      "name": "owner",
      "outputs": [
        {
          "name": "",
          "type": "address"
        }
      ],
      "payable": false,
      "stateMutability": "view",
      "type": "function"
    },
    {
      "constant": false,
      "inputs": [
        {
          "name": "newOwner",
          "type": "address"
        }
      ],
      "name": "transferOwnership",
      "outputs": [],
      "payable": false,
      "stateMutability": "nonpayable",
      "type": "function"
    },
    {
      "inputs": [
        {
          "name": "_positionCodes",
          "type": "uint256[]"
        },
        {
          "name": "_skillCodes",
          "type": "uint256[]"
        },
        {
          "name": "_startDate",
          "type": "uint256"
        },
        {
          "name": "_endDate",
          "type": "uint256"
        },
        {
          "name": "_empoloyee",
          "type": "address"
        },
        {
          "name": "_company",
          "type": "address"
        },
        {
          "name": "_weekPayment",
          "type": "uint256"
        }
      ],
      "payable": true,
      "stateMutability": "payable",
      "type": "constructor"
    },
    {
      "payable": true,
      "stateMutability": "payable",
      "type": "fallback"
    },
    {
      "anonymous": false,
      "inputs": [
        {
          "indexed": false,
          "name": "code",
          "type": "int256"
        }
      ],
      "name": "WeekPaymentSent",
      "type": "event"
    },
    {
      "anonymous": false,
      "inputs": [
        {
          "indexed": true,
          "name": "previousOwner",
          "type": "address"
        },
        {
          "indexed": true,
          "name": "newOwner",
          "type": "address"
        }
      ],
      "name": "OwnershipTransferred",
      "type": "event"
    },
    {
      "constant": false,
      "inputs": [],
      "name": "deposite",
      "outputs": [],
      "payable": true,
      "stateMutability": "payable",
      "type": "function"
    },
    {
      "constant": false,
      "inputs": [],
      "name": "sendWeekSalary",
      "outputs": [],
      "payable": true,
      "stateMutability": "payable",
      "type": "function"
    },
    {
      "constant": false,
      "inputs": [],
      "name": "solveFrizzing",
      "outputs": [],
      "payable": true,
      "stateMutability": "payable",
      "type": "function"
    },
    {
      "constant": false,
      "inputs": [],
      "name": "disputeStatusOn",
      "outputs": [],
      "payable": false,
      "stateMutability": "nonpayable",
      "type": "function"
    },
    {
      "constant": false,
      "inputs": [
        {
          "name": "winner",
          "type": "address"
        }
      ],
      "name": "solveDisput",
      "outputs": [],
      "payable": false,
      "stateMutability": "nonpayable",
      "type": "function"
    },
    {
      "constant": false,
      "inputs": [],
      "name": "start",
      "outputs": [],
      "payable": true,
      "stateMutability": "payable",
      "type": "function"
    },
    {
      "constant": false,
      "inputs": [],
      "name": "finish",
      "outputs": [],
      "payable": false,
      "stateMutability": "nonpayable",
      "type": "function"
    },
    {
      "constant": true,
      "inputs": [],
      "name": "getWorkData",
      "outputs": [
        {
          "name": "",
          "type": "uint256[]"
        },
        {
          "name": "",
          "type": "uint256[]"
        },
        {
          "name": "",
          "type": "uint256"
        },
        {
          "name": "",
          "type": "uint256"
        },
        {
          "name": "",
          "type": "address"
        },
        {
          "name": "",
          "type": "address"
        },
        {
          "name": "",
          "type": "uint256"
        },
        {
          "name": "",
          "type": "address"
        },
        {
          "name": "",
          "type": "bool"
        },
        {
          "name": "",
          "type": "int256"
        }
      ],
      "payable": false,
      "stateMutability": "view",
      "type": "function"
    },
    {
      "constant": true,
      "inputs": [],
      "name": "getContractStatus",
      "outputs": [
        {
          "name": "",
          "type": "int256"
        }
      ],
      "payable": false,
      "stateMutability": "view",
      "type": "function"
    }
  ],
  "bytecode": "0x60606040526040516110ca3803806110ca83398101604052808051820191906020018051820191906020018051906020019091908051906020019091908051906020019091908051906020019091908051906020019091905050336000806101000a81548173ffffffffffffffffffffffffffffffffffffffff021916908373ffffffffffffffffffffffffffffffffffffffff1602179055504285101515156100a857600080fd5b84841115156100b657600080fd5b6000600860146101000a81548160ff02191690831515021790555033600860006101000a81548173ffffffffffffffffffffffffffffffffffffffff021916908373ffffffffffffffffffffffffffffffffffffffff16021790555080600781905550866001908051906020019061012f92919061020a565b50856002908051906020019061014692919061020a565b50846003819055508360048190555082600560006101000a81548173ffffffffffffffffffffffffffffffffffffffff021916908373ffffffffffffffffffffffffffffffffffffffff16021790555081600660006101000a81548173ffffffffffffffffffffffffffffffffffffffff021916908373ffffffffffffffffffffffffffffffffffffffff1602179055507fffffffffffffffffffffffffffffffffffffffffffffffffffffffffffffff9c6009819055505050505050505061027c565b828054828255906000526020600020908101928215610246579160200282015b8281111561024557825182559160200191906001019061022a565b5b5090506102539190610257565b5090565b61027991905b8082111561027557600081600090555060010161025d565b5090565b90565b610e3f8061028b6000396000f3006060604052600436106100af576000357c0100000000000000000000000000000000000000000000000000000000900463ffffffff16806355593dc514610113578063609bb7941461011d57806386da88651461012757806387f7f37f1461013c5780638da5cb5b146102ae578063a50ec32614610303578063be9a65551461030d578063c032846b14610317578063c6a40af414610340578063d56b288914610379578063f2fde38b1461038e575b600860009054906101000a900473ffffffffffffffffffffffffffffffffffffffff1673ffffffffffffffffffffffffffffffffffffffff166108fc349081150290604051600060405180830381858888f19350505050151561011157600080fd5b005b61011b6103c7565b005b610125610430565b005b341561013257600080fd5b61013a61066e565b005b341561014757600080fd5b61014f61073f565b6040518080602001806020018b81526020018a81526020018973ffffffffffffffffffffffffffffffffffffffff1673ffffffffffffffffffffffffffffffffffffffff1681526020018873ffffffffffffffffffffffffffffffffffffffff1673ffffffffffffffffffffffffffffffffffffffff1681526020018781526020018673ffffffffffffffffffffffffffffffffffffffff1673ffffffffffffffffffffffffffffffffffffffff1681526020018515151515815260200184815260200183810383528d818151815260200191508051906020019060200280838360005b8381101561024e578082015181840152602081019050610233565b5050505090500183810382528c818151815260200191508051906020019060200280838360005b83811015610290578082015181840152602081019050610275565b505050509050019c5050505050505050505050505060405180910390f35b34156102b957600080fd5b6102c16108a8565b604051808273ffffffffffffffffffffffffffffffffffffffff1673ffffffffffffffffffffffffffffffffffffffff16815260200191505060405180910390f35b61030b6108cd565b005b610315610900565b005b341561032257600080fd5b61032a610a0d565b6040518082815260200191505060405180910390f35b341561034b57600080fd5b610377600480803573ffffffffffffffffffffffffffffffffffffffff16906020019091905050610a17565b005b341561038457600080fd5b61038c610c26565b005b341561039957600080fd5b6103c5600480803573ffffffffffffffffffffffffffffffffffffffff16906020019091905050610caa565b005b600754341115156103d757600080fd5b7fffffffffffffffffffffffffffffffffffffffffffffffffffffffffffffffff60095414151561040757600080fd5b60076201518080600354420381151561041c57fe5b040181151561042757fe5b06600981905550565b6000600860009054906101000a900473ffffffffffffffffffffffffffffffffffffffff1673ffffffffffffffffffffffffffffffffffffffff163373ffffffffffffffffffffffffffffffffffffffff1614806104db5750600660009054906101000a900473ffffffffffffffffffffffffffffffffffffffff1673ffffffffffffffffffffffffffffffffffffffff163373ffffffffffffffffffffffffffffffffffffffff16145b15156104e657600080fd5b6000600954121515156104f857600080fd5b62015180600760095460035442030181151561051057fe5b0610151561051d57600080fd5b600860149054906101000a900460ff1615151561053957600080fd5b6007543073ffffffffffffffffffffffffffffffffffffffff163110156105a9577fffffffffffffffffffffffffffffffffffffffffffffffffffffffffffffffff6009819055507fffffffffffffffffffffffffffffffffffffffffffffffffffffffffffffffff9050610634565b600560009054906101000a900473ffffffffffffffffffffffffffffffffffffffff1673ffffffffffffffffffffffffffffffffffffffff166108fc6007549081150290604051600060405180830381858888f19350505050151561060d57600080fd5b6007543073ffffffffffffffffffffffffffffffffffffffff1631101561063357600190505b5b7f7c7c3b4bb364dd81f16a3ca5653cb81414bcc0966ccd8b47ab6658e2eab9c33d816040518082815260200191505060405180910390a150565b600860009054906101000a900473ffffffffffffffffffffffffffffffffffffffff1673ffffffffffffffffffffffffffffffffffffffff163373ffffffffffffffffffffffffffffffffffffffff1614806107175750600560009054906101000a900473ffffffffffffffffffffffffffffffffffffffff1673ffffffffffffffffffffffffffffffffffffffff163373ffffffffffffffffffffffffffffffffffffffff16145b151561072257600080fd5b6001600860146101000a81548160ff021916908315150217905550565b610747610dff565b61074f610dff565b60008060008060008060008060016002600354600454600560009054906101000a900473ffffffffffffffffffffffffffffffffffffffff16600660009054906101000a900473ffffffffffffffffffffffffffffffffffffffff16600754600860009054906101000a900473ffffffffffffffffffffffffffffffffffffffff16600860149054906101000a900460ff166009548980548060200260200160405190810160405280929190818152602001828054801561082f57602002820191906000526020600020905b81548152602001906001019080831161081b575b505050505099508880548060200260200160405190810160405280929190818152602001828054801561088157602002820191906000526020600020905b81548152602001906001019080831161086d575b50505050509850995099509950995099509950995099509950995090919293949596979899565b6000809054906101000a900473ffffffffffffffffffffffffffffffffffffffff1681565b7fffffffffffffffffffffffffffffffffffffffffffffffffffffffffffffffff600954121515156108fe57600080fd5b565b600860009054906101000a900473ffffffffffffffffffffffffffffffffffffffff1673ffffffffffffffffffffffffffffffffffffffff163373ffffffffffffffffffffffffffffffffffffffff1614806109a95750600660009054906101000a900473ffffffffffffffffffffffffffffffffffffffff1673ffffffffffffffffffffffffffffffffffffffff163373ffffffffffffffffffffffffffffffffffffffff16145b15156109b457600080fd5b7fffffffffffffffffffffffffffffffffffffffffffffffffffffffffffffff9c6009541415156109e457600080fd5b6007620151808060035442038115156109f957fe5b0401811515610a0457fe5b06600981905550565b6000600954905090565b6000809054906101000a900473ffffffffffffffffffffffffffffffffffffffff1673ffffffffffffffffffffffffffffffffffffffff163373ffffffffffffffffffffffffffffffffffffffff16141515610a7257600080fd5b600560009054906101000a900473ffffffffffffffffffffffffffffffffffffffff1673ffffffffffffffffffffffffffffffffffffffff168173ffffffffffffffffffffffffffffffffffffffff161480610b1b5750600660009054906101000a900473ffffffffffffffffffffffffffffffffffffffff1673ffffffffffffffffffffffffffffffffffffffff168173ffffffffffffffffffffffffffffffffffffffff16145b1515610b2657600080fd5b600860149054906101000a900460ff161515610b4157600080fd5b7ffffffffffffffffffffffffffffffffffffffffffffffffffffffffffffffe0c600981905550600560009054906101000a900473ffffffffffffffffffffffffffffffffffffffff1673ffffffffffffffffffffffffffffffffffffffff168173ffffffffffffffffffffffffffffffffffffffff161415610c2357600560009054906101000a900473ffffffffffffffffffffffffffffffffffffffff1673ffffffffffffffffffffffffffffffffffffffff166108fc6007549081150290604051600060405180830381858888f193505050501515610c2257600080fd5b5b50565b6000809054906101000a900473ffffffffffffffffffffffffffffffffffffffff1673ffffffffffffffffffffffffffffffffffffffff163373ffffffffffffffffffffffffffffffffffffffff16141515610c8157600080fd5b7fffffffffffffffffffffffffffffffffffffffffffffffffffffffffffffff38600981905550565b6000809054906101000a900473ffffffffffffffffffffffffffffffffffffffff1673ffffffffffffffffffffffffffffffffffffffff163373ffffffffffffffffffffffffffffffffffffffff16141515610d0557600080fd5b600073ffffffffffffffffffffffffffffffffffffffff168173ffffffffffffffffffffffffffffffffffffffff1614151515610d4157600080fd5b8073ffffffffffffffffffffffffffffffffffffffff166000809054906101000a900473ffffffffffffffffffffffffffffffffffffffff1673ffffffffffffffffffffffffffffffffffffffff167f8be0079c531659141344cd1fd0a4f28419497f9722a3daafe3b4186f6b6457e060405160405180910390a3806000806101000a81548173ffffffffffffffffffffffffffffffffffffffff021916908373ffffffffffffffffffffffffffffffffffffffff16021790555050565b6020604051908101604052806000815250905600a165627a7a723058207bf34783125ed664eb92b53d07a157d272866cb0c075ef26fd93733b07bb842e0029",
  "source": "pragma solidity ^0.4.11;\r\nimport \"zeppelin-solidity/contracts/ownership/Ownable.sol\";\r\nimport \"./Employee.sol\";\r\nimport \"./Company.sol\";\r\n\r\n\r\ncontract Contract is Ownable {\r\n\r\n    uint[] private positionCodes;\r\n    uint[] private skillCodes;\r\n\r\n    uint private startDate;\r\n    uint private endDate;\r\n    Employee private employee;\r\n    Company private company;\r\n    uint private weekPayment;\r\n    address private owner;\r\n    bool private disputeStatus;\r\n    /*\r\n      frizzing time\r\n        [0; 6]      range of freezing delay\r\n\r\n        -1          freezing - not enought money for next week payment\r\n\r\n        -100        contract not start\r\n\r\n        -200        contract ended\r\n\r\n        -500        contract ended with disput\r\n    */\r\n    int private frizzing;\r\n\r\n    event WeekPaymentSent(int code);\r\n\r\n    function Contract (uint[] _positionCodes, uint[] _skillCodes,\r\n                            uint _startDate, uint _endDate, Employee _empoloyee,\r\n                            Company _company, uint _weekPayment) public payable {\r\n\r\n        require(_startDate >= now);\r\n        require(_endDate > _startDate);\r\n\r\n        disputeStatus = false;\r\n        owner = msg.sender;\r\n\r\n        weekPayment = _weekPayment;\r\n        positionCodes = _positionCodes;\r\n        skillCodes = _skillCodes;\r\n        startDate = _startDate;\r\n        endDate = _endDate;\r\n        employee = _empoloyee;\r\n        company = _company;\r\n        frizzing = -100;\r\n    }\r\n\r\n    modifier onlyOwnerOrCompany() {\r\n        require(msg.sender == owner || msg.sender == address(company));\r\n        _;\r\n    }\r\n\r\n    modifier onlyEmployeeOrCompany() {\r\n        require(msg.sender == owner || msg.sender == address(employee));\r\n        _;\r\n    }\r\n\r\n    function () public payable {\r\n        owner.transfer(msg.value);\r\n    }\r\n\r\n    function deposite() public payable {\r\n        require(frizzing >= -1);\r\n    }\r\n\r\n    /*\r\n        return status:\r\n            -1  no enough money yo week payment\r\n            1   no enough money for next week payment\r\n            0   ok, all right\r\n    */\r\n    function sendWeekSalary() public onlyOwnerOrCompany payable {\r\n        require(frizzing >= 0);\r\n        require((now - startDate + uint(frizzing)) % 7 < 1 days);\r\n        require(!disputeStatus);\r\n\r\n        int code;\r\n\r\n        if (this.balance < weekPayment) {\r\n            frizzing = -1;\r\n            code = -1;\r\n        } else {\r\n            employee.transfer(weekPayment);\r\n\r\n            if (this.balance < weekPayment)\r\n                code = 1;\r\n        }\r\n\r\n        WeekPaymentSent(code);\r\n    }\r\n\r\n    function solveFrizzing() public payable {\r\n        require(msg.value > weekPayment);\r\n        require(frizzing == -1);\r\n        frizzing = int(((now - startDate) / 1 days + 1 days) % 7);\r\n    }\r\n\r\n    function disputeStatusOn() public onlyEmployeeOrCompany {\r\n        disputeStatus = true;\r\n    }\r\n\r\n    function solveDisput(address winner) public onlyOwner {\r\n        require(winner == address(employee) || winner == address(company));\r\n        require(disputeStatus);\r\n\r\n        frizzing = -500;\r\n\r\n        if (winner == address(employee))\r\n            employee.transfer(weekPayment);\r\n\r\n        /* selfdestruct(company); */\r\n    }\r\n\r\n    function start() public payable onlyOwnerOrCompany () {\r\n        require(frizzing == -100);\r\n        frizzing = int(((now - startDate) / 1 days + 1 days) % 7);\r\n    }\r\n\r\n    function finish() public onlyOwner {\r\n        frizzing = -200;\r\n    }\r\n\r\n    function getWorkData () public view\r\n        returns (uint[], uint[], uint, uint, Employee, Company, uint, address, bool, int) {\r\n\r\n            return (positionCodes, skillCodes,\r\n                    startDate, endDate, employee, company, weekPayment, owner, disputeStatus, frizzing);\r\n    }\r\n\r\n    function getContractStatus() public view returns(int) {\r\n        return frizzing;\r\n    }\r\n\r\n}\r\n",
  "sourcePath": "D:\\node_projects\\smart\\smart_contract_example\\contracts\\Contract.sol",
  "compiler": {
    "name": "solc",
    "version": "0.4.19+commit.c4cbbb05.Emscripten.clang"
  },
  "schemaVersion": "1.0.1",
  "updatedAt": "2018-02-18T16:11:58.647Z"
}