{
    "contractName": "Employee",
    "abi": [
        {
            "constant": false,
            "inputs": [
                {
                    "name": "work",
                    "type": "address"
                },
                {
                    "name": "hoursWorked",
                    "type": "uint256"
                },
                {
                    "name": "skillCode",
                    "type": "uint256"
                }
            ],
            "name": "addSkillRatingForWork",
            "outputs": [],
            "payable": false,
            "stateMutability": "nonpayable",
            "type": "function"
        },
        {
            "constant": true,
            "inputs": [
                {
                    "name": "skillCode",
                    "type": "uint256"
                }
            ],
            "name": "getSkillHistory",
            "outputs": [
                {
                    "name": "",
                    "type": "address[]"
                }
            ],
            "payable": false,
            "stateMutability": "view",
            "type": "function"
        },
        {
            "constant": true,
            "inputs": [
                {
                    "name": "",
                    "type": "uint256"
                }
            ],
            "name": "passedTests",
            "outputs": [
                {
                    "name": "testCode",
                    "type": "uint256"
                },
                {
                    "name": "skillCode",
                    "type": "uint256"
                },
                {
                    "name": "rating",
                    "type": "uint256"
                }
            ],
            "payable": false,
            "stateMutability": "view",
            "type": "function"
        },
        {
            "constant": false,
            "inputs": [
                {
                    "name": "skillCode",
                    "type": "uint256"
                },
                {
                    "name": "addRating",
                    "type": "uint256"
                }
            ],
            "name": "changeBonusRating",
            "outputs": [],
            "payable": false,
            "stateMutability": "nonpayable",
            "type": "function"
        },
        {
            "constant": true,
            "inputs": [
                {
                    "name": "",
                    "type": "uint256"
                }
            ],
            "name": "skills",
            "outputs": [
                {
                    "name": "skillCode",
                    "type": "uint256"
                },
                {
                    "name": "rating",
                    "type": "uint256"
                },
                {
                    "name": "bonusRating",
                    "type": "uint256"
                }
            ],
            "payable": false,
            "stateMutability": "view",
            "type": "function"
        },
        {
            "constant": false,
            "inputs": [
                {
                    "name": "_employeeAddress",
                    "type": "address"
                }
            ],
            "name": "changeEmployeeAddress",
            "outputs": [],
            "payable": false,
            "stateMutability": "nonpayable",
            "type": "function"
        },
        {
            "constant": true,
            "inputs": [
                {
                    "name": "",
                    "type": "uint256"
                }
            ],
            "name": "workHistory",
            "outputs": [
                {
                    "name": "work",
                    "type": "address"
                },
                {
                    "name": "company",
                    "type": "address"
                },
                {
                    "name": "isFinish",
                    "type": "bool"
                }
            ],
            "payable": false,
            "stateMutability": "view",
            "type": "function"
        },
        {
            "constant": false,
            "inputs": [
                {
                    "name": "work",
                    "type": "address"
                }
            ],
            "name": "finishWork",
            "outputs": [],
            "payable": false,
            "stateMutability": "nonpayable",
            "type": "function"
        },
        {
            "constant": true,
            "inputs": [],
            "name": "owner",
            "outputs": [
                {
                    "name": "",
                    "type": "address"
                }
            ],
            "payable": false,
            "stateMutability": "view",
            "type": "function"
        },
        {
            "constant": false,
            "inputs": [
                {
                    "name": "work",
                    "type": "address"
                },
                {
                    "name": "company",
                    "type": "address"
                }
            ],
            "name": "addWork",
            "outputs": [],
            "payable": false,
            "stateMutability": "nonpayable",
            "type": "function"
        },
        {
            "constant": true,
            "inputs": [],
            "name": "getWorks",
            "outputs": [
                {
                    "name": "",
                    "type": "address[]"
                }
            ],
            "payable": false,
            "stateMutability": "view",
            "type": "function"
        },
        {
            "constant": false,
            "inputs": [
                {
                    "name": "testCode",
                    "type": "uint256"
                },
                {
                    "name": "addRating",
                    "type": "uint256"
                },
                {
                    "name": "skillCode",
                    "type": "uint256"
                }
            ],
            "name": "changeTestRating",
            "outputs": [],
            "payable": false,
            "stateMutability": "nonpayable",
            "type": "function"
        },
        {
            "constant": true,
            "inputs": [
                {
                    "name": "skillCode",
                    "type": "uint256"
                }
            ],
            "name": "getSkillRatingBySkillCode",
            "outputs": [
                {
                    "name": "",
                    "type": "uint256"
                }
            ],
            "payable": false,
            "stateMutability": "view",
            "type": "function"
        },
        {
            "constant": false,
            "inputs": [
                {
                    "name": "newOwner",
                    "type": "address"
                }
            ],
            "name": "transferOwnership",
            "outputs": [],
            "payable": false,
            "stateMutability": "nonpayable",
            "type": "function"
        },
        {
            "constant": false,
            "inputs": [
                {
                    "name": "work",
                    "type": "address"
                }
            ],
            "name": "dispute",
            "outputs": [
                {
                    "name": "",
                    "type": "bool"
                }
            ],
            "payable": false,
            "stateMutability": "nonpayable",
            "type": "function"
        },
        {
            "constant": true,
            "inputs": [],
            "name": "getSkills",
            "outputs": [
                {
                    "name": "result",
                    "type": "uint256[]"
                }
            ],
            "payable": false,
            "stateMutability": "view",
            "type": "function"
        },
        {
            "inputs": [
                {
                    "name": "_firstName",
                    "type": "string"
                },
                {
                    "name": "_lastName",
                    "type": "string"
                },
                {
                    "name": "_email",
                    "type": "string"
                },
                {
                    "name": "_employee",
                    "type": "address"
                }
            ],
            "payable": false,
            "stateMutability": "nonpayable",
            "type": "constructor"
        },
        {
            "payable": true,
            "stateMutability": "payable",
            "type": "fallback"
        },
        {
            "anonymous": false,
            "inputs": [
                {
                    "indexed": false,
                    "name": "index",
                    "type": "int256"
                },
                {
                    "indexed": false,
                    "name": "data",
                    "type": "int256"
                }
            ],
            "name": "EmployeeTrace",
            "type": "event"
        },
        {
            "anonymous": false,
            "inputs": [
                {
                    "indexed": true,
                    "name": "previousOwner",
                    "type": "address"
                },
                {
                    "indexed": true,
                    "name": "newOwner",
                    "type": "address"
                }
            ],
            "name": "OwnershipTransferred",
            "type": "event"
        }
    ],
    "bytecode": "0x606060405234156200001057600080fd5b6040516200233e3803806200233e83398101604052808051820191906020018051820191906020018051820191906020018051906020019091905050336000806101000a81548173ffffffffffffffffffffffffffffffffffffffff021916908373ffffffffffffffffffffffffffffffffffffffff1602179055508360049080519060200190620000a492919062000122565b508260059080519060200190620000bd92919062000122565b508160069080519060200190620000d692919062000122565b5080600760006101000a81548173ffffffffffffffffffffffffffffffffffffffff021916908373ffffffffffffffffffffffffffffffffffffffff16021790555050505050620001d1565b828054600181600116156101000203166002900490600052602060002090601f016020900481019282601f106200016557805160ff191683800117855562000196565b8280016001018555821562000196579182015b828111156200019557825182559160200191906001019062000178565b5b509050620001a59190620001a9565b5090565b620001ce91905b80821115620001ca576000816000905550600101620001b0565b5090565b90565b61215d80620001e16000396000f3006060604052600436106100e6576000357c0100000000000000000000000000000000000000000000000000000000900463ffffffff1680631ff0d04a146100e85780632476e8251461013357806328bdd831146101ab5780633cd8c006146101f057806350d15fbe1461021c5780636591c0d11461026157806371205c6d1461029a5780637b31eaea1461033b5780638da5cb5b1461037457806397f75df8146103c9578063a6c70b8314610421578063aadea4861461048b578063ea24f653146104c0578063f2fde38b146104f7578063f75f9f7b14610530578063fdd76bb314610581575b005b34156100f357600080fd5b610131600480803573ffffffffffffffffffffffffffffffffffffffff169060200190919080359060200190919080359060200190919050506105eb565b005b341561013e57600080fd5b6101546004808035906020019091905050610a65565b6040518080602001828103825283818151815260200191508051906020019060200280838360005b8381101561019757808201518184015260208101905061017c565b505050509050019250505060405180910390f35b34156101b657600080fd5b6101cc6004808035906020019091905050610c29565b60405180848152602001838152602001828152602001935050505060405180910390f35b34156101fb57600080fd5b61021a6004808035906020019091908035906020019091905050610c62565b005b341561022757600080fd5b61023d6004808035906020019091905050610d4e565b60405180848152602001838152602001828152602001935050505060405180910390f35b341561026c57600080fd5b610298600480803573ffffffffffffffffffffffffffffffffffffffff16906020019091905050610d87565b005b34156102a557600080fd5b6102bb6004808035906020019091905050610e7e565b604051808473ffffffffffffffffffffffffffffffffffffffff1673ffffffffffffffffffffffffffffffffffffffff1681526020018373ffffffffffffffffffffffffffffffffffffffff1673ffffffffffffffffffffffffffffffffffffffff16815260200182151515158152602001935050505060405180910390f35b341561034657600080fd5b610372600480803573ffffffffffffffffffffffffffffffffffffffff16906020019091905050610f04565b005b341561037f57600080fd5b610387611036565b604051808273ffffffffffffffffffffffffffffffffffffffff1673ffffffffffffffffffffffffffffffffffffffff16815260200191505060405180910390f35b34156103d457600080fd5b61041f600480803573ffffffffffffffffffffffffffffffffffffffff1690602001909190803573ffffffffffffffffffffffffffffffffffffffff1690602001909190505061105b565b005b341561042c57600080fd5b6104346112f4565b6040518080602001828103825283818151815260200191508051906020019060200280838360005b8381101561047757808201518184015260208101905061045c565b505050509050019250505060405180910390f35b341561049657600080fd5b6104be60048080359060200190919080359060200190919080359060200190919050506113de565b005b34156104cb57600080fd5b6104e1600480803590602001909190505061154d565b6040518082815260200191505060405180910390f35b341561050257600080fd5b61052e600480803573ffffffffffffffffffffffffffffffffffffffff16906020019091905050611667565b005b341561053b57600080fd5b610567600480803573ffffffffffffffffffffffffffffffffffffffff169060200190919050506117bc565b604051808215151515815260200191505060405180910390f35b341561058c57600080fd5b6105946119c8565b6040518080602001828103825283818151815260200191508051906020019060200280838360005b838110156105d75780820151818401526020810190506105bc565b505050509050019250505060405180910390f35b600080600080600080600080339150600190503073ffffffffffffffffffffffffffffffffffffffff168273ffffffffffffffffffffffffffffffffffffffff16634132db8f6000604051602001526040518163ffffffff167c0100000000000000000000000000000000000000000000000000000000028152600401602060405180830381600087803b151561068157600080fd5b6102c65a03f1151561069257600080fd5b5050506040518051905073ffffffffffffffffffffffffffffffffffffffff161480156106bc5750805b15156106c757600080fd5b600096505b60018054905087101561079a576001878154811015156106e857fe5b906000526020600020906002020160000160009054906101000a900473ffffffffffffffffffffffffffffffffffffffff1673ffffffffffffffffffffffffffffffffffffffff168b73ffffffffffffffffffffffffffffffffffffffff1614801561077f575060018781548110151561075e57fe5b906000526020600020906002020160010160149054906101000a900460ff16155b1561078d576001975061079a565b86806001019750506106cc565b7fe387a8932660f066131c87007ddbadfcb23bfc1443933c8f9bdc66720ae392f160016000604051808381526020018281526020019250505060405180910390a18715156107e757600080fd5b5b6002805490508610801561081c57508860028781548110151561080757fe5b90600052602060002090600302016000015414155b1561082e5785806001019650506107e8565b7fe387a8932660f066131c87007ddbadfcb23bfc1443933c8f9bdc66720ae392f1600287604051808381526020018281526020019250505060405180910390a160028054905086149450846108a35760028681548110151561088c57fe5b9060005260206000209060030201600101546108a6565b60005b93506109398b73ffffffffffffffffffffffffffffffffffffffff1663f3fe8bec6000604051602001526040518163ffffffff167c0100000000000000000000000000000000000000000000000000000000028152600401602060405180830381600087803b151561091757600080fd5b6102c65a03f1151561092857600080fd5b505050604051805190508b86611a58565b92507fe387a8932660f066131c87007ddbadfcb23bfc1443933c8f9bdc66720ae392f1600c84604051808381526020018281526020019250505060405180910390a184156109ed57600280548060010182816109959190611f70565b916000526020600020906003020160006060604051908101604052808d815260200187815260200160008152509091909150600082015181600001556020820151816001015560408201518160020155505050610a13565b826002878154811015156109fd57fe5b9060005260206000209060030201600101819055505b7fe387a8932660f066131c87007ddbadfcb23bfc1443933c8f9bdc66720ae392f1600d600280549050604051808381526020018281526020019250505060405180910390a15050505050505050505050565b610a6d611fa2565b610a75611fa2565b6000600180549050604051805910610a8a5750595b90808252806020026020018201604052509150600090505b600180549050811015610c1f57600181815481101515610abe57fe5b906000526020600020906002020160000160009054906101000a900473ffffffffffffffffffffffffffffffffffffffff1673ffffffffffffffffffffffffffffffffffffffff16631bcbe2d9856000604051602001526040518263ffffffff167c010000000000000000000000000000000000000000000000000000000002815260040180828152602001915050602060405180830381600087803b1515610b6657600080fd5b6102c65a03f11515610b7757600080fd5b5050506040518051905015610c1257600181815481101515610b9557fe5b906000526020600020906002020160000160009054906101000a900473ffffffffffffffffffffffffffffffffffffffff168282815181101515610bd557fe5b9060200190602002019073ffffffffffffffffffffffffffffffffffffffff16908173ffffffffffffffffffffffffffffffffffffffff16815250505b8080600101915050610aa2565b8192505050919050565b600381815481101515610c3857fe5b90600052602060002090600302016000915090508060000154908060010154908060020154905083565b60008060009054906101000a900473ffffffffffffffffffffffffffffffffffffffff1673ffffffffffffffffffffffffffffffffffffffff163373ffffffffffffffffffffffffffffffffffffffff16141515610cbf57600080fd5b600090505b600280549050811015610d0b5782600282815481101515610ce157fe5b9060005260206000209060030201600001541415610cfe57610d0b565b8080600101915050610cc4565b60028054905081141515610d1b57fe5b81600282815481101515610d2b57fe5b906000526020600020906003020160020160008282540192505081905550505050565b600281815481101515610d5d57fe5b90600052602060002090600302016000915090508060000154908060010154908060020154905083565b6000809054906101000a900473ffffffffffffffffffffffffffffffffffffffff1673ffffffffffffffffffffffffffffffffffffffff163373ffffffffffffffffffffffffffffffffffffffff161480610e2f5750600760009054906101000a900473ffffffffffffffffffffffffffffffffffffffff1673ffffffffffffffffffffffffffffffffffffffff163373ffffffffffffffffffffffffffffffffffffffff16145b1515610e3a57600080fd5b80600760006101000a81548173ffffffffffffffffffffffffffffffffffffffff021916908373ffffffffffffffffffffffffffffffffffffffff16021790555050565b600181815481101515610e8d57fe5b90600052602060002090600202016000915090508060000160009054906101000a900473ffffffffffffffffffffffffffffffffffffffff16908060010160009054906101000a900473ffffffffffffffffffffffffffffffffffffffff16908060010160149054906101000a900460ff16905083565b60008060009054906101000a900473ffffffffffffffffffffffffffffffffffffffff1673ffffffffffffffffffffffffffffffffffffffff163373ffffffffffffffffffffffffffffffffffffffff16141515610f6157600080fd5b600090505b60018054905081101561103157600181815481101515610f8257fe5b906000526020600020906002020160000160009054906101000a900473ffffffffffffffffffffffffffffffffffffffff1673ffffffffffffffffffffffffffffffffffffffff168273ffffffffffffffffffffffffffffffffffffffff1614156110245760018082815481101515610ff757fe5b906000526020600020906002020160010160146101000a81548160ff021916908315150217905550611032565b8080600101915050610f66565b5b5050565b6000809054906101000a900473ffffffffffffffffffffffffffffffffffffffff1681565b6000806000339150600190503073ffffffffffffffffffffffffffffffffffffffff168273ffffffffffffffffffffffffffffffffffffffff16634132db8f6000604051602001526040518163ffffffff167c0100000000000000000000000000000000000000000000000000000000028152600401602060405180830381600087803b15156110ea57600080fd5b6102c65a03f115156110fb57600080fd5b5050506040518051905073ffffffffffffffffffffffffffffffffffffffff161480156111255750805b151561113057600080fd5b600092505b6001805490508310156111c85760018381548110151561115157fe5b906000526020600020906002020160000160009054906101000a900473ffffffffffffffffffffffffffffffffffffffff1673ffffffffffffffffffffffffffffffffffffffff168573ffffffffffffffffffffffffffffffffffffffff1614156111bb57600080fd5b8280600101935050611135565b600180548060010182816111dc9190611fb6565b916000526020600020906002020160006060604051908101604052808973ffffffffffffffffffffffffffffffffffffffff1681526020018873ffffffffffffffffffffffffffffffffffffffff16815260200160001515815250909190915060008201518160000160006101000a81548173ffffffffffffffffffffffffffffffffffffffff021916908373ffffffffffffffffffffffffffffffffffffffff16021790555060208201518160010160006101000a81548173ffffffffffffffffffffffffffffffffffffffff021916908373ffffffffffffffffffffffffffffffffffffffff16021790555060408201518160010160146101000a81548160ff0219169083151502179055505050505050505050565b6112fc611fe8565b611304611fe8565b60006001805490506040518059106113195750595b90808252806020026020018201604052509150600090505b6001805490508110156113d65760018181548110151561134d57fe5b906000526020600020906002020160000160009054906101000a900473ffffffffffffffffffffffffffffffffffffffff16828281518110151561138d57fe5b9060200190602002019073ffffffffffffffffffffffffffffffffffffffff16908173ffffffffffffffffffffffffffffffffffffffff16815250508080600101915050611331565b819250505090565b60008060009054906101000a900473ffffffffffffffffffffffffffffffffffffffff1673ffffffffffffffffffffffffffffffffffffffff163373ffffffffffffffffffffffffffffffffffffffff1614151561143b57600080fd5b600090505b6003805490508110156114e0578360038281548110151561145d57fe5b90600052602060002090600302016000015414801561149b57508160038281548110151561148757fe5b906000526020600020906003020160010154145b156114d357826003828154811015156114b057fe5b906000526020600020906003020160020160008282540192505081905550611547565b8080600101915050611440565b600380548060010182816114f49190611ffc565b916000526020600020906003020160006060604051908101604052808881526020018781526020018681525090919091506000820151816000015560208201518160010155604082015181600201555050505b50505050565b60008060008060009250600091505b6002805490508210156115eb578460028381548110151561157957fe5b90600052602060002090600302016000015414156115de576002828154811015156115a057fe5b90600052602060002090600302016001015492506002828154811015156115c357fe5b906000526020600020906003020160020154830192506115eb565b818060010192505061155c565b600090505b60038054905081101561165c578460038281548110151561160d57fe5b906000526020600020906003020160010154141561164f5760038181548110151561163457fe5b9060005260206000209060030201600201548301925061165c565b80806001019150506115f0565b829350505050919050565b6000809054906101000a900473ffffffffffffffffffffffffffffffffffffffff1673ffffffffffffffffffffffffffffffffffffffff163373ffffffffffffffffffffffffffffffffffffffff161415156116c257600080fd5b600073ffffffffffffffffffffffffffffffffffffffff168173ffffffffffffffffffffffffffffffffffffffff16141515156116fe57600080fd5b8073ffffffffffffffffffffffffffffffffffffffff166000809054906101000a900473ffffffffffffffffffffffffffffffffffffffff1673ffffffffffffffffffffffffffffffffffffffff167f8be0079c531659141344cd1fd0a4f28419497f9722a3daafe3b4186f6b6457e060405160405180910390a3806000806101000a81548173ffffffffffffffffffffffffffffffffffffffff021916908373ffffffffffffffffffffffffffffffffffffffff16021790555050565b6000806000809054906101000a900473ffffffffffffffffffffffffffffffffffffffff1673ffffffffffffffffffffffffffffffffffffffff163373ffffffffffffffffffffffffffffffffffffffff1614806118675750600760009054906101000a900473ffffffffffffffffffffffffffffffffffffffff1673ffffffffffffffffffffffffffffffffffffffff163373ffffffffffffffffffffffffffffffffffffffff16145b151561187257600080fd5b600090505b6001805490508110156119bd5760018181548110151561189357fe5b906000526020600020906002020160000160009054906101000a900473ffffffffffffffffffffffffffffffffffffffff1673ffffffffffffffffffffffffffffffffffffffff168373ffffffffffffffffffffffffffffffffffffffff1614156119b0578273ffffffffffffffffffffffffffffffffffffffff166386da88656040518163ffffffff167c0100000000000000000000000000000000000000000000000000000000028152600401600060405180830381600087803b151561195b57600080fd5b6102c65a03f1151561196c57600080fd5b5050506001808281548110151561197f57fe5b906000526020600020906002020160010160146101000a81548160ff021916908315150217905550600191506119c2565b8080600101915050611877565b600091505b50919050565b6119d061202e565b60006002805490506040518059106119e55750595b90808252806020026020018201604052509150600090505b600280549050811015611a5457600281815481101515611a1957fe5b9060005260206000209060030201600001548282815181101515611a3957fe5b906020019060200201818152505080806001019150506119fd565b5090565b600080600080620f424092508673ffffffffffffffffffffffffffffffffffffffff166305cf8d5d6000604051602001526040518163ffffffff167c0100000000000000000000000000000000000000000000000000000000028152600401602060405180830381600087803b1515611ad057600080fd5b6102c65a03f11515611ae157600080fd5b5050506040518051905091507fe387a8932660f066131c87007ddbadfcb23bfc1443933c8f9bdc66720ae392f1600383604051808381526020018281526020019250505060405180910390a16000821215611b3b57600080fd5b605086611b4784611dc8565b02811515611b5157fe5b0493507fe387a8932660f066131c87007ddbadfcb23bfc1443933c8f9bdc66720ae392f1600485604051808381526020018281526020019250505060405180910390a161010085811515611ba157fe5b0490507fe387a8932660f066131c87007ddbadfcb23bfc1443933c8f9bdc66720ae392f1600586604051808381526020018281526020019250505060405180910390a1611bed81611e48565b90507fe387a8932660f066131c87007ddbadfcb23bfc1443933c8f9bdc66720ae392f1600682604051808381526020018281526020019250505060405180910390a16304c9ec83810290508281811515611c4357fe5b04905082605002810390507fe387a8932660f066131c87007ddbadfcb23bfc1443933c8f9bdc66720ae392f1600782604051808381526020018281526020019250505060405180910390a180840193507fe387a8932660f066131c87007ddbadfcb23bfc1443933c8f9bdc66720ae392f1600885604051808381526020018281526020019250505060405180910390a182601402600485811515611ce357fe5b040193507fe387a8932660f066131c87007ddbadfcb23bfc1443933c8f9bdc66720ae392f1600985604051808381526020018281526020019250505060405180910390a1611d3084611ec9565b93507fe387a8932660f066131c87007ddbadfcb23bfc1443933c8f9bdc66720ae392f1600a85604051808381526020018281526020019250505060405180910390a16101008360030285030293507fe387a8932660f066131c87007ddbadfcb23bfc1443933c8f9bdc66720ae392f1600b85604051808381526020018281526020019250505060405180910390a15050509392505050565b6000806000620f4240915083905081810290506000841480611df45750838282811515611df157fe5b04145b1515611dfc57fe5b809350600260018501811515611e0e57fe5b0492508390505b80831015611e41578290506002838486811515611e2e57fe5b0401811515611e3957fe5b049250611e15565b5050919050565b600080600080600060019350620f42409250600091505b6001831115611ec0578285019450859250600090505b81811015611ea0578583029250620f424083811515611e9057fe5b0492508080600101915050611e75565b818060010192505081840293508383811515611eb857fe5b049250611e5f565b50505050919050565b600080600080620f424092505b6216e36085101515611f015762062fd984019350600360028602811515611ef957fe5b049450611ed6565b8285039450849150600190505b600a811015611f68578082811515611f2257fe5b048401935060018101905082858302811515611f3a57fe5b0491508082811515611f4857fe5b048403935060018101905082858302811515611f6057fe5b049150611f0e565b505050919050565b815481835581811511611f9d57600302816003028360005260206000209182019101611f9c9190612042565b5b505050565b602060405190810160405280600081525090565b815481835581811511611fe357600202816002028360005260206000209182019101611fe29190612079565b5b505050565b602060405190810160405280600081525090565b8154818355818115116120295760030281600302836000526020600020918201910161202891906120fa565b5b505050565b602060405190810160405280600081525090565b61207691905b80821115612072576000808201600090556001820160009055600282016000905550600301612048565b5090565b90565b6120f791905b808211156120f357600080820160006101000a81549073ffffffffffffffffffffffffffffffffffffffff02191690556001820160006101000a81549073ffffffffffffffffffffffffffffffffffffffff02191690556001820160146101000a81549060ff02191690555060020161207f565b5090565b90565b61212e91905b8082111561212a576000808201600090556001820160009055600282016000905550600301612100565b5090565b905600a165627a7a72305820bf26b495f5b6c8b5ff5ffc4e0e7f304dbec1d9b1a706ebddf84a9ad185a81ad70029",
    "source": "pragma solidity ^0.4.11;\r\nimport \"zeppelin-solidity/contracts/ownership/Ownable.sol\";\r\nimport \"./Work.sol\";\r\nimport \"./Company.sol\";\r\nimport \"./Math.sol\";\r\n\r\n\r\ncontract Employee is Ownable {\r\n\r\n    using Math for uint256;\r\n\r\n    struct EmployeeWork {\r\n        Work work;\r\n        Company company;\r\n        bool isFinish;\r\n    }\r\n\r\n    struct Skill {\r\n        uint skillCode;\r\n        uint rating;\r\n        uint bonusRating;\r\n    }\r\n\r\n    struct TestRating {\r\n        uint testCode;\r\n        uint skillCode;\r\n        uint rating;\r\n    }\r\n    event EmployeeTrace(int index, int data);\r\n\r\n    EmployeeWork[] public workHistory;\r\n    Skill[] public skills;\r\n    TestRating[] public passedTests;\r\n\r\n    string private firstName;\r\n    string private lastName;\r\n    string private email;\r\n    address private employeeAddress;\r\n\r\n    modifier onlyOwnerOrEmployee() {\r\n        require(msg.sender == owner || msg.sender == employeeAddress);\r\n        _;\r\n    }\r\n\r\n    modifier onlyWork() {\r\n        Work work = Work(msg.sender);\r\n        //check in store\r\n        bool isInStore = true;\r\n        require(work.getEmployee() == address(this) && isInStore);\r\n        _;\r\n    }\r\n\r\n    function Employee(string _firstName, string _lastName, string _email, address _employee) public {\r\n        firstName = _firstName;\r\n        lastName = _lastName;\r\n        email = _email;\r\n        employeeAddress = _employee;\r\n    }\r\n\r\n    function () public payable {\r\n\r\n    }\r\n\r\n    function changeEmployeeAddress(address _employeeAddress) public onlyOwnerOrEmployee {\r\n        employeeAddress = _employeeAddress;\r\n    }\r\n\r\n    function addWork(Work work, Company company) public onlyWork {\r\n        for (uint i = 0; i < workHistory.length; i++) {\r\n            if (work == workHistory[i].work) {\r\n                revert();\r\n            }\r\n        }\r\n        workHistory.push(EmployeeWork(work, company, false));\r\n    }\r\n\r\n    function getWorks() public view returns (Work[]) {\r\n        Work[] memory  works = new Work[](workHistory.length);\r\n        for (uint i = 0; i < workHistory.length; i++) {\r\n            works[i] = workHistory[i].work;\r\n        }\r\n        return works;\r\n    }\r\n\r\n    function finishWork(Work work) public onlyOwner {\r\n        for (uint i = 0; i < workHistory.length; i++) {\r\n            if (work == workHistory[i].work) {\r\n                workHistory[i].isFinish = true;\r\n                return;\r\n            }\r\n        }\r\n    }\r\n\r\n    function dispute(Work work) public onlyOwnerOrEmployee returns(bool) {\r\n        for (uint i = 0; i < workHistory.length; i++) {\r\n            if (work == workHistory[i].work) {\r\n                work.disputeStatusOn();\r\n                workHistory[i].isFinish = true;\r\n                return true;\r\n            }\r\n        }\r\n        return false;\r\n    }\r\n\r\n    function changeBonusRating(uint skillCode, uint addRating) public onlyOwner {\r\n        for (uint index = 0; index < skills.length; index++) {\r\n            if (skills[index].skillCode == skillCode) {\r\n                break;\r\n            }\r\n        }\r\n        assert(index == skills.length);\r\n        skills[index].bonusRating += addRating;\r\n    }\r\n\r\n    //assume the skillCode is correct skill code\r\n    function changeTestRating(uint testCode, uint addRating, uint skillCode) public onlyOwner {\r\n        for (uint index = 0; index < passedTests.length; index++) {\r\n            if (passedTests[index].testCode == testCode && passedTests[index].skillCode == skillCode) {\r\n                passedTests[index].rating += addRating;\r\n                return;\r\n            }\r\n        }\r\n\r\n        passedTests.push(TestRating(testCode, addRating, skillCode));\r\n    }\r\n\r\n    function getSkills() public view returns (uint[] result) {\r\n        result = new uint[](skills.length);\r\n        for (uint i = 0; i < skills.length; i++) {\r\n            result[i] = skills[i].skillCode;\r\n        }\r\n    }\r\n\r\n    function getSkillHistory(uint skillCode) public view returns(address[]) {\r\n        address[] memory result = new address[](workHistory.length);\r\n        for (uint i = 0; i < workHistory.length; i++) {\r\n            if (workHistory[i].work.hasSkill(skillCode)) {\r\n                result[i] = (workHistory[i].work);\r\n            }\r\n        }\r\n        return result;\r\n    }\r\n\r\n    function getSkillRatingBySkillCode(uint skillCode) public view returns (uint) {\r\n        uint result = 0;\r\n\r\n        for (uint skillIndex = 0; skillIndex < skills.length; skillIndex++) {\r\n            if (skills[skillIndex].skillCode == skillCode) {\r\n                result = skills[skillIndex].rating;\r\n                result += skills[skillIndex].bonusRating;\r\n                break;\r\n            }\r\n        }\r\n\r\n        for (uint testIndex = 0; testIndex < passedTests.length; testIndex++) {\r\n            if (passedTests[testIndex].skillCode == skillCode) {\r\n                result += passedTests[testIndex].rating;\r\n                break;\r\n            }\r\n        }\r\n\r\n        /* if (skillIndex == skills.length && testIndex == passedTests.length)\r\n            revert(); */\r\n\r\n        return result;\r\n    }\r\n\r\n    function addSkillRatingForWork(Work work, uint hoursWorked, uint skillCode) public onlyWork {\r\n        bool found;\r\n        for (uint i = 0; i < workHistory.length; i++) {\r\n            if (work == workHistory[i].work && !workHistory[i].isFinish) {\r\n                found = true;\r\n                break;\r\n            }\r\n        }\r\n        EmployeeTrace(1, 0);\r\n        if (!found)\r\n            revert();\r\n\r\n\r\n        uint skillIndex;\r\n        while (skillIndex < skills.length && skills[skillIndex].skillCode != skillCode) {\r\n            skillIndex++;\r\n        }\r\n\r\n        EmployeeTrace(2, int(skillIndex));\r\n\r\n        bool isNewSkill = skillIndex == skills.length;\r\n\r\n        uint currentSkillRating = isNewSkill ? 0 : skills[skillIndex].rating;\r\n        uint newRating = calculateRatingToAdd(\r\n            Company(work.getCompanyContractAddress()), hoursWorked, currentSkillRating\r\n        );\r\n\r\n        EmployeeTrace(12, int(newRating));\r\n\r\n        if (isNewSkill) {\r\n            skills.push(Skill(skillCode, newRating, 0));\r\n        } else {\r\n            skills[skillIndex].rating = newRating;\r\n        }\r\n\r\n        EmployeeTrace(13, int(skills.length));\r\n    }\r\n\r\n    function calculateRatingToAdd(Company company,\r\n                                    uint hoursWorked,\r\n                                    uint currentSkillRating\r\n    ) private returns (uint result) {\r\n        uint n = 1000000;\r\n        int companyRating = company.getRating();\r\n        EmployeeTrace(3, companyRating);\r\n\r\n        if (companyRating < 0)\r\n            revert();\r\n\r\n        //new income expiriance\r\n        result = uint(companyRating).sqrt() * hoursWorked / 80; // 40 * 2\r\n        EmployeeTrace(4, int(result));\r\n\r\n        //find current expiriance\r\n        uint currentExp = currentSkillRating / 256;\r\n        EmployeeTrace(5, int(currentSkillRating));\r\n        currentExp = currentExp.exp();\r\n        EmployeeTrace(6, int(currentExp));\r\n\r\n        currentExp *= 80342147;\r\n        currentExp /= n;\r\n        currentExp -= 80 * n;\r\n        EmployeeTrace(7, int(currentExp));\r\n\r\n        result += currentExp;\r\n        EmployeeTrace(8, int(result));\r\n\r\n        result = result / 4 + 20 * n;\r\n        EmployeeTrace(9, int(result));\r\n\r\n        result = result.log();\r\n        EmployeeTrace(10, int(result));\r\n\r\n        result = (result - 3 * n) * 256;\r\n        EmployeeTrace(11, int(result));\r\n\r\n    }\r\n}\r\n",
    "sourcePath": "E:\\ilgiz\\nodeProjects\\emploreum_smart_contracts\\contracts\\Employee.sol",
    "compiler": {
        "name": "solc",
        "version": "0.4.18+commit.9cf6e910.Emscripten.clang"
    },
    "schemaVersion": "1.0.1",
    "updatedAt": "2018-03-31T18:38:09.773Z"
}