{
  "contractName": "Employee",
  "abi": [
    {
      "constant": true,
      "inputs": [
        {
          "name": "",
          "type": "uint256"
        }
      ],
      "name": "specializationCodes",
      "outputs": [
        {
          "name": "",
          "type": "uint256"
        }
      ],
      "payable": false,
      "stateMutability": "view",
      "type": "function"
    },
    {
      "constant": true,
      "inputs": [
        {
          "name": "",
          "type": "uint256"
        }
      ],
      "name": "skills",
      "outputs": [
        {
          "name": "skillCode",
          "type": "uint256"
        },
        {
          "name": "rating",
          "type": "uint256"
        }
      ],
      "payable": false,
      "stateMutability": "view",
      "type": "function"
    },
    {
      "constant": true,
      "inputs": [
        {
          "name": "",
          "type": "uint256"
        }
      ],
      "name": "workHistory",
      "outputs": [
        {
          "name": "work",
          "type": "address"
        },
        {
          "name": "company",
          "type": "address"
        },
        {
          "name": "isFinish",
          "type": "bool"
        }
      ],
      "payable": false,
      "stateMutability": "view",
      "type": "function"
    },
    {
      "constant": true,
      "inputs": [],
      "name": "rating",
      "outputs": [
        {
          "name": "",
          "type": "uint256"
        }
      ],
      "payable": false,
      "stateMutability": "view",
      "type": "function"
    },
    {
      "constant": true,
      "inputs": [],
      "name": "owner",
      "outputs": [
        {
          "name": "",
          "type": "address"
        }
      ],
      "payable": false,
      "stateMutability": "view",
      "type": "function"
    },
    {
      "constant": false,
      "inputs": [
        {
          "name": "newOwner",
          "type": "address"
        }
      ],
      "name": "transferOwnership",
      "outputs": [],
      "payable": false,
      "stateMutability": "nonpayable",
      "type": "function"
    },
    {
      "inputs": [
        {
          "name": "_firstName",
          "type": "string"
        },
        {
          "name": "_lastName",
          "type": "string"
        },
        {
          "name": "_email",
          "type": "string"
        },
        {
          "name": "_employee",
          "type": "address"
        }
      ],
      "payable": false,
      "stateMutability": "nonpayable",
      "type": "constructor"
    },
    {
      "payable": true,
      "stateMutability": "payable",
      "type": "fallback"
    },
    {
      "anonymous": false,
      "inputs": [
        {
          "indexed": true,
          "name": "previousOwner",
          "type": "address"
        },
        {
          "indexed": true,
          "name": "newOwner",
          "type": "address"
        }
      ],
      "name": "OwnershipTransferred",
      "type": "event"
    },
    {
      "constant": false,
      "inputs": [
        {
          "name": "_specializationCodes",
          "type": "uint256[]"
        },
        {
          "name": "_skills",
          "type": "uint256[]"
        },
        {
          "name": "_ratings",
          "type": "uint256[]"
        },
        {
          "name": "_skillToSpecialization",
          "type": "uint256[]"
        }
      ],
      "name": "fillSpecializations",
      "outputs": [],
      "payable": false,
      "stateMutability": "nonpayable",
      "type": "function"
    },
    {
      "constant": true,
      "inputs": [],
      "name": "getSenderContractCount",
      "outputs": [
        {
          "name": "result",
          "type": "uint256"
        }
      ],
      "payable": false,
      "stateMutability": "view",
      "type": "function"
    },
    {
      "constant": true,
      "inputs": [
        {
          "name": "from",
          "type": "uint256"
        }
      ],
      "name": "getFirstContractFrom",
      "outputs": [
        {
          "name": "",
          "type": "int256"
        },
        {
          "name": "company",
          "type": "address"
        }
      ],
      "payable": false,
      "stateMutability": "view",
      "type": "function"
    },
    {
      "constant": false,
      "inputs": [
        {
          "name": "work",
          "type": "address"
        },
        {
          "name": "company",
          "type": "address"
        }
      ],
      "name": "addWork",
      "outputs": [],
      "payable": false,
      "stateMutability": "nonpayable",
      "type": "function"
    },
    {
      "constant": false,
      "inputs": [
        {
          "name": "specializationCode",
          "type": "uint256"
        },
        {
          "name": "skillCode",
          "type": "uint256"
        },
        {
          "name": "skillRating",
          "type": "uint256"
        }
      ],
      "name": "addSpecialization",
      "outputs": [],
      "payable": false,
      "stateMutability": "nonpayable",
      "type": "function"
    },
    {
      "constant": false,
      "inputs": [
        {
          "name": "work",
          "type": "address"
        }
      ],
      "name": "finishWork",
      "outputs": [],
      "payable": false,
      "stateMutability": "nonpayable",
      "type": "function"
    },
    {
      "constant": false,
      "inputs": [
        {
          "name": "newRaiting",
          "type": "uint256"
        }
      ],
      "name": "changeRaiting",
      "outputs": [],
      "payable": false,
      "stateMutability": "nonpayable",
      "type": "function"
    },
    {
      "constant": false,
      "inputs": [
        {
          "name": "work",
          "type": "address"
        }
      ],
      "name": "dispute",
      "outputs": [],
      "payable": false,
      "stateMutability": "nonpayable",
      "type": "function"
    }
  ],
  "bytecode": "0x606060405234156200001057600080fd5b604051620015fc380380620015fc83398101604052808051820191906020018051820191906020018051820191906020018051906020019091905050336000806101000a81548173ffffffffffffffffffffffffffffffffffffffff021916908373ffffffffffffffffffffffffffffffffffffffff1602179055508360069080519060200190620000a492919062000122565b508260079080519060200190620000bd92919062000122565b508160089080519060200190620000d692919062000122565b5080600960006101000a81548173ffffffffffffffffffffffffffffffffffffffff021916908373ffffffffffffffffffffffffffffffffffffffff16021790555050505050620001d1565b828054600181600116156101000203166002900490600052602060002090601f016020900481019282601f106200016557805160ff191683800117855562000196565b8280016001018555821562000196579182015b828111156200019557825182559160200191906001019062000178565b5b509050620001a59190620001a9565b5090565b620001ce91905b80821115620001ca576000816000905550600101620001b0565b5090565b90565b61141b80620001e16000396000f3006060604052600436106100d0576000357c0100000000000000000000000000000000000000000000000000000000900463ffffffff168063499435951461013357806350d15fbe1461016a578063637b825c146101a857806371205c6d146101cb5780637b31eaea1461026c57806380f474f6146102a55780638da5cb5b146102ce57806397f75df814610323578063a90968481461037b578063be701468146103b0578063c4b30a00146104ca578063df7a738a146104f3578063f2fde38b1461055d578063f75f9f7b14610596575b6000809054906101000a900473ffffffffffffffffffffffffffffffffffffffff1673ffffffffffffffffffffffffffffffffffffffff166108fc349081150290604051600060405180830381858888f19350505050151561013157600080fd5b005b341561013e57600080fd5b61015460048080359060200190919050506105cf565b6040518082815260200191505060405180910390f35b341561017557600080fd5b61018b60048080359060200190919050506105f3565b604051808381526020018281526020019250505060405180910390f35b34156101b357600080fd5b6101c96004808035906020019091905050610626565b005b34156101d657600080fd5b6101ec600480803590602001909190505061068b565b604051808473ffffffffffffffffffffffffffffffffffffffff1673ffffffffffffffffffffffffffffffffffffffff1681526020018373ffffffffffffffffffffffffffffffffffffffff1673ffffffffffffffffffffffffffffffffffffffff16815260200182151515158152602001935050505060405180910390f35b341561027757600080fd5b6102a3600480803573ffffffffffffffffffffffffffffffffffffffff16906020019091905050610711565b005b34156102b057600080fd5b6102b8610843565b6040518082815260200191505060405180910390f35b34156102d957600080fd5b6102e1610849565b604051808273ffffffffffffffffffffffffffffffffffffffff1673ffffffffffffffffffffffffffffffffffffffff16815260200191505060405180910390f35b341561032e57600080fd5b610379600480803573ffffffffffffffffffffffffffffffffffffffff1690602001909190803573ffffffffffffffffffffffffffffffffffffffff1690602001909190505061086e565b005b341561038657600080fd5b6103ae6004808035906020019091908035906020019091908035906020019091905050610a8d565b005b34156103bb57600080fd5b6104c8600480803590602001908201803590602001908080602002602001604051908101604052809392919081815260200183836020028082843782019150505050505091908035906020019082018035906020019080806020026020016040519081016040528093929190818152602001838360200280828437820191505050505050919080359060200190820180359060200190808060200260200160405190810160405280939291908181526020018383602002808284378201915050505050509190803590602001908201803590602001908080602002602001604051908101604052809392919081815260200183836020028082843782019150505050505091905050610ba5565b005b34156104d557600080fd5b6104dd610d6f565b6040518082815260200191505060405180910390f35b34156104fe57600080fd5b6105146004808035906020019091905050610e15565b604051808381526020018273ffffffffffffffffffffffffffffffffffffffff1673ffffffffffffffffffffffffffffffffffffffff1681526020019250505060405180910390f35b341561056857600080fd5b610594600480803573ffffffffffffffffffffffffffffffffffffffff16906020019091905050610ee7565b005b34156105a157600080fd5b6105cd600480803573ffffffffffffffffffffffffffffffffffffffff1690602001909190505061103c565b005b6003818154811015156105de57fe5b90600052602060002090016000915090505481565b60048181548110151561060257fe5b90600052602060002090600202016000915090508060000154908060010154905082565b6000809054906101000a900473ffffffffffffffffffffffffffffffffffffffff1673ffffffffffffffffffffffffffffffffffffffff163373ffffffffffffffffffffffffffffffffffffffff1614151561068157600080fd5b8060028190555050565b60018181548110151561069a57fe5b90600052602060002090600202016000915090508060000160009054906101000a900473ffffffffffffffffffffffffffffffffffffffff16908060010160009054906101000a900473ffffffffffffffffffffffffffffffffffffffff16908060010160149054906101000a900460ff16905083565b60008060009054906101000a900473ffffffffffffffffffffffffffffffffffffffff1673ffffffffffffffffffffffffffffffffffffffff163373ffffffffffffffffffffffffffffffffffffffff1614151561076e57600080fd5b600090505b60018054905081101561083e5760018181548110151561078f57fe5b906000526020600020906002020160000160009054906101000a900473ffffffffffffffffffffffffffffffffffffffff1673ffffffffffffffffffffffffffffffffffffffff168273ffffffffffffffffffffffffffffffffffffffff161415610831576001808281548110151561080457fe5b906000526020600020906002020160010160146101000a81548160ff02191690831515021790555061083f565b8080600101915050610773565b5b5050565b60025481565b6000809054906101000a900473ffffffffffffffffffffffffffffffffffffffff1681565b60008060009054906101000a900473ffffffffffffffffffffffffffffffffffffffff1673ffffffffffffffffffffffffffffffffffffffff163373ffffffffffffffffffffffffffffffffffffffff161415156108cb57600080fd5b600090505b600180549050811015610963576001818154811015156108ec57fe5b906000526020600020906002020160000160009054906101000a900473ffffffffffffffffffffffffffffffffffffffff1673ffffffffffffffffffffffffffffffffffffffff168373ffffffffffffffffffffffffffffffffffffffff16141561095657600080fd5b80806001019150506108d0565b60018054806001018281610977919061123d565b916000526020600020906002020160006060604051908101604052808773ffffffffffffffffffffffffffffffffffffffff1681526020018673ffffffffffffffffffffffffffffffffffffffff16815260200160001515815250909190915060008201518160000160006101000a81548173ffffffffffffffffffffffffffffffffffffffff021916908373ffffffffffffffffffffffffffffffffffffffff16021790555060208201518160010160006101000a81548173ffffffffffffffffffffffffffffffffffffffff021916908373ffffffffffffffffffffffffffffffffffffffff16021790555060408201518160010160146101000a81548160ff021916908315150217905550505050505050565b6000809054906101000a900473ffffffffffffffffffffffffffffffffffffffff1673ffffffffffffffffffffffffffffffffffffffff163373ffffffffffffffffffffffffffffffffffffffff16141515610ae857600080fd5b600560008381526020019081526020016000208054806001018281610b0d919061126f565b91600052602060002090016000859091909150555060038054806001018281610b36919061126f565b91600052602060002090016000859091909150555060048054806001018281610b5f919061129b565b9160005260206000209060020201600060408051908101604052808681526020018581525090919091506000820151816000015560208201518160010155505050505050565b6000806000809054906101000a900473ffffffffffffffffffffffffffffffffffffffff1673ffffffffffffffffffffffffffffffffffffffff163373ffffffffffffffffffffffffffffffffffffffff16141515610c0357600080fd5b600090505b8451811015610cbd5760048054806001018281610c25919061129b565b9160005260206000209060020201600060408051908101604052808986815181101515610c4e57fe5b9060200190602002015181526020018886815181101515610c6b57fe5b90602001906020020151815250909190915060008201518160000155602082015181600101555050508381815181101515610ca257fe5b90602001906020020151820191508080600101915050610c08565b816002819055508560039080519060200190610cda9291906112cd565b50600090505b8251811015610d675760056000600483815481101515610cfc57fe5b90600052602060002090600202016000015481526020019081526020016000208054806001018281610d2e919061126f565b916000526020600020900160008584815181101515610d4957fe5b90602001906020020151909190915055508080600101915050610ce0565b505050505050565b600080600090505b600180549050811015610e0e57600181815481101515610d9357fe5b906000526020600020906002020160010160009054906101000a900473ffffffffffffffffffffffffffffffffffffffff1673ffffffffffffffffffffffffffffffffffffffff163373ffffffffffffffffffffffffffffffffffffffff161415610e015781806001019250505b8080600101915050610d77565b8191505090565b60008060008390505b600180549050811015610eb757600181815481101515610e3a57fe5b906000526020600020906002020160010160009054906101000a900473ffffffffffffffffffffffffffffffffffffffff1673ffffffffffffffffffffffffffffffffffffffff163373ffffffffffffffffffffffffffffffffffffffff161415610eaa57808292509250610ee1565b8080600101915050610e1e565b7fffffffffffffffffffffffffffffffffffffffffffffffffffffffffffffffff82819150925092505b50915091565b6000809054906101000a900473ffffffffffffffffffffffffffffffffffffffff1673ffffffffffffffffffffffffffffffffffffffff163373ffffffffffffffffffffffffffffffffffffffff16141515610f4257600080fd5b600073ffffffffffffffffffffffffffffffffffffffff168173ffffffffffffffffffffffffffffffffffffffff1614151515610f7e57600080fd5b8073ffffffffffffffffffffffffffffffffffffffff166000809054906101000a900473ffffffffffffffffffffffffffffffffffffffff1673ffffffffffffffffffffffffffffffffffffffff167f8be0079c531659141344cd1fd0a4f28419497f9722a3daafe3b4186f6b6457e060405160405180910390a3806000806101000a81548173ffffffffffffffffffffffffffffffffffffffff021916908373ffffffffffffffffffffffffffffffffffffffff16021790555050565b60008060009054906101000a900473ffffffffffffffffffffffffffffffffffffffff1673ffffffffffffffffffffffffffffffffffffffff163373ffffffffffffffffffffffffffffffffffffffff1614806110e65750600960009054906101000a900473ffffffffffffffffffffffffffffffffffffffff1673ffffffffffffffffffffffffffffffffffffffff163373ffffffffffffffffffffffffffffffffffffffff16145b15156110f157600080fd5b600090505b6001805490508110156112385760018181548110151561111257fe5b906000526020600020906002020160000160009054906101000a900473ffffffffffffffffffffffffffffffffffffffff1673ffffffffffffffffffffffffffffffffffffffff168273ffffffffffffffffffffffffffffffffffffffff16141561122b578173ffffffffffffffffffffffffffffffffffffffff166386da88656040518163ffffffff167c0100000000000000000000000000000000000000000000000000000000028152600401600060405180830381600087803b15156111da57600080fd5b6102c65a03f115156111eb57600080fd5b505050600180828154811015156111fe57fe5b906000526020600020906002020160010160146101000a81548160ff021916908315150217905550611239565b80806001019150506110f6565b5b5050565b81548183558181151161126a57600202816002028360005260206000209182019101611269919061131a565b5b505050565b81548183558181151161129657818360005260206000209182019101611295919061139b565b5b505050565b8154818355818115116112c8576002028160020283600052602060002091820191016112c791906113c0565b5b505050565b828054828255906000526020600020908101928215611309579160200282015b828111156113085782518255916020019190600101906112ed565b5b509050611316919061139b565b5090565b61139891905b8082111561139457600080820160006101000a81549073ffffffffffffffffffffffffffffffffffffffff02191690556001820160006101000a81549073ffffffffffffffffffffffffffffffffffffffff02191690556001820160146101000a81549060ff021916905550600201611320565b5090565b90565b6113bd91905b808211156113b95760008160009055506001016113a1565b5090565b90565b6113ec91905b808211156113e8576000808201600090556001820160009055506002016113c6565b5090565b905600a165627a7a72305820eb3bd48d1a3730e055f7ad00e0f0e9b64adfb67f3b03df5c8e83e1f7cbb6a0b70029",
  "source": "pragma solidity ^0.4.11;\r\nimport \"zeppelin-solidity/contracts/ownership/Ownable.sol\";\r\nimport \"./Contract.sol\";\r\n\r\n\r\ncontract Employee is Ownable {\r\n\r\n    struct Work {\r\n        address work;\r\n        address company;\r\n        bool isFinish;\r\n    }\r\n\r\n    struct Skill {\r\n        uint skillCode;\r\n        uint rating;\r\n    }\r\n\r\n    Work[] public workHistory;\r\n    uint public rating;\r\n    uint[] public specializationCodes;\r\n    Skill[] public skills;\r\n    mapping (uint => uint[]) private skillToSpecialization;\r\n\r\n    string private firstName;\r\n    string private lastName;\r\n    string private email;\r\n    address private employeeAddress;\r\n\r\n    modifier onlyOwnerOrEmployee() {\r\n        require(msg.sender == owner || msg.sender == employeeAddress);\r\n        _;\r\n    }\r\n\r\n    function Employee(string _firstName, string _lastName, string _email, address _employee) public {\r\n        firstName = _firstName;\r\n        lastName = _lastName;\r\n        email = _email;\r\n        employeeAddress = _employee;\r\n    }\r\n\r\n    function () public payable {\r\n        owner.transfer(msg.value);\r\n    }\r\n\r\n    function fillSpecializations(uint[] _specializationCodes, uint[] _skills,\r\n                                    uint[] _ratings, uint[] _skillToSpecialization) public onlyOwner {\r\n        uint _rating;\r\n\r\n        for (uint i = 0; i < _skills.length; i++) {\r\n            skills.push(Skill(_skills[i], _ratings[i]));\r\n            _rating += _ratings[i];\r\n        }\r\n\r\n        rating = _rating;\r\n        specializationCodes = _specializationCodes;\r\n\r\n        for (i = 0; i < _skillToSpecialization.length; i++) {\r\n            skillToSpecialization[skills[i].skillCode].push(_skillToSpecialization[i]);\r\n        }\r\n    }\r\n\r\n    function getSenderContractCount() public view returns (uint result) {\r\n        for (uint i = 0; i < workHistory.length; i++) {\r\n            if (msg.sender == address(workHistory[i].company))\r\n                result++;\r\n        }\r\n        return result;\r\n    }\r\n\r\n    function getFirstContractFrom(uint from) public view returns (int, address company) {\r\n\r\n        for (uint i = from; i < workHistory.length; i++) {\r\n            if (msg.sender == address(workHistory[i].company))\r\n                return (int(i), company);\r\n        }\r\n        return (-1, company);\r\n    }\r\n\r\n    function addWork(address work, address company) public onlyOwner {\r\n        for (uint i = 0; i < workHistory.length; i++) {\r\n            if (work == workHistory[i].work) {\r\n                revert();\r\n            }\r\n        }\r\n        workHistory.push(Work(work, company, false));\r\n    }\r\n\r\n    function addSpecialization(uint specializationCode, uint skillCode, uint skillRating) public onlyOwner {\r\n        skillToSpecialization[skillCode].push(specializationCode);\r\n        specializationCodes.push(specializationCode);\r\n        skills.push(Skill(skillCode, skillRating));\r\n    }\r\n\r\n    function finishWork(address work) public onlyOwner {\r\n        for (uint i = 0; i < workHistory.length; i++) {\r\n            if (work == workHistory[i].work) {\r\n                workHistory[i].isFinish = true;\r\n                return;\r\n            }\r\n        }\r\n    }\r\n\r\n    function changeRaiting(uint newRaiting) public onlyOwner {\r\n        rating = newRaiting;\r\n    }\r\n\r\n    function dispute(Contract work) public onlyOwnerOrEmployee {\r\n        for (uint i = 0; i < workHistory.length; i++) {\r\n            if (address(work) == workHistory[i].work) {\r\n                work.disputeStatusOn();\r\n                workHistory[i].isFinish = true;\r\n                return;\r\n            }\r\n        }\r\n    }\r\n}\r\n",
  "sourcePath": "D:\\node_projects\\smart\\smart_contract_example\\contracts\\Employee.sol",
  "compiler": {
    "name": "solc",
    "version": "0.4.19+commit.c4cbbb05.Emscripten.clang"
  },
  "schemaVersion": "1.0.1",
  "updatedAt": "2018-02-18T21:45:14.147Z"
}