{
  "contractName": "Employee",
  "abi": [
    {
      "constant": true,
      "inputs": [
        {
          "name": "",
          "type": "uint256"
        }
      ],
      "name": "passedTests",
      "outputs": [
        {
          "name": "testCode",
          "type": "uint256"
        },
        {
          "name": "rating",
          "type": "uint256"
        }
      ],
      "payable": false,
      "stateMutability": "view",
      "type": "function"
    },
    {
      "constant": true,
      "inputs": [
        {
          "name": "",
          "type": "uint256"
        }
      ],
      "name": "skills",
      "outputs": [
        {
          "name": "skillCode",
          "type": "uint256"
        },
        {
          "name": "rating",
          "type": "uint256"
        }
      ],
      "payable": false,
      "stateMutability": "view",
      "type": "function"
    },
    {
      "constant": true,
      "inputs": [
        {
          "name": "",
          "type": "uint256"
        }
      ],
      "name": "workHistory",
      "outputs": [
        {
          "name": "work",
          "type": "address"
        },
        {
          "name": "company",
          "type": "address"
        },
        {
          "name": "isFinish",
          "type": "bool"
        }
      ],
      "payable": false,
      "stateMutability": "view",
      "type": "function"
    },
    {
      "constant": true,
      "inputs": [],
      "name": "owner",
      "outputs": [
        {
          "name": "",
          "type": "address"
        }
      ],
      "payable": false,
      "stateMutability": "view",
      "type": "function"
    },
    {
      "constant": true,
      "inputs": [],
      "name": "bonusRating",
      "outputs": [
        {
          "name": "",
          "type": "uint256"
        }
      ],
      "payable": false,
      "stateMutability": "view",
      "type": "function"
    },
    {
      "constant": false,
      "inputs": [
        {
          "name": "newOwner",
          "type": "address"
        }
      ],
      "name": "transferOwnership",
      "outputs": [],
      "payable": false,
      "stateMutability": "nonpayable",
      "type": "function"
    },
    {
      "inputs": [
        {
          "name": "_firstName",
          "type": "string"
        },
        {
          "name": "_lastName",
          "type": "string"
        },
        {
          "name": "_email",
          "type": "string"
        },
        {
          "name": "_employee",
          "type": "address"
        }
      ],
      "payable": false,
      "stateMutability": "nonpayable",
      "type": "constructor"
    },
    {
      "payable": true,
      "stateMutability": "payable",
      "type": "fallback"
    },
    {
      "anonymous": false,
      "inputs": [
        {
          "indexed": true,
          "name": "previousOwner",
          "type": "address"
        },
        {
          "indexed": true,
          "name": "newOwner",
          "type": "address"
        }
      ],
      "name": "OwnershipTransferred",
      "type": "event"
    },
    {
      "constant": true,
      "inputs": [],
      "name": "getSenderWorkCount",
      "outputs": [
        {
          "name": "result",
          "type": "uint256"
        }
      ],
      "payable": false,
      "stateMutability": "view",
      "type": "function"
    },
    {
      "constant": true,
      "inputs": [
        {
          "name": "from",
          "type": "uint256"
        }
      ],
      "name": "getFirstWorkFrom",
      "outputs": [
        {
          "name": "",
          "type": "int256"
        },
        {
          "name": "company",
          "type": "address"
        }
      ],
      "payable": false,
      "stateMutability": "view",
      "type": "function"
    },
    {
      "constant": false,
      "inputs": [
        {
          "name": "work",
          "type": "address"
        },
        {
          "name": "company",
          "type": "address"
        }
      ],
      "name": "addWork",
      "outputs": [],
      "payable": false,
      "stateMutability": "nonpayable",
      "type": "function"
    },
    {
      "constant": false,
      "inputs": [
        {
          "name": "work",
          "type": "address"
        }
      ],
      "name": "finishWork",
      "outputs": [],
      "payable": false,
      "stateMutability": "nonpayable",
      "type": "function"
    },
    {
      "constant": false,
      "inputs": [
        {
          "name": "_employeeAddress",
          "type": "address"
        }
      ],
      "name": "changeEmployeeAddress",
      "outputs": [],
      "payable": false,
      "stateMutability": "nonpayable",
      "type": "function"
    },
    {
      "constant": false,
      "inputs": [
        {
          "name": "addRating",
          "type": "uint256"
        }
      ],
      "name": "changeBonusRating",
      "outputs": [],
      "payable": false,
      "stateMutability": "nonpayable",
      "type": "function"
    },
    {
      "constant": false,
      "inputs": [
        {
          "name": "skillCode",
          "type": "uint256"
        },
        {
          "name": "addRating",
          "type": "uint256"
        }
      ],
      "name": "changeSkillRating",
      "outputs": [],
      "payable": false,
      "stateMutability": "nonpayable",
      "type": "function"
    },
    {
      "constant": false,
      "inputs": [
        {
          "name": "testCode",
          "type": "uint256"
        },
        {
          "name": "addRating",
          "type": "uint256"
        }
      ],
      "name": "changeTestRating",
      "outputs": [],
      "payable": false,
      "stateMutability": "nonpayable",
      "type": "function"
    },
    {
      "constant": true,
      "inputs": [],
      "name": "calculateRating",
      "outputs": [
        {
          "name": "result",
          "type": "uint256"
        }
      ],
      "payable": false,
      "stateMutability": "view",
      "type": "function"
    },
    {
      "constant": true,
      "inputs": [],
      "name": "getSkills",
      "outputs": [
        {
          "components": [
            {
              "name": "skillCode",
              "type": "uint256"
            },
            {
              "name": "rating",
              "type": "uint256"
            }
          ],
          "name": "",
          "type": "tuple[]"
        }
      ],
      "payable": false,
      "stateMutability": "view",
      "type": "function"
    },
    {
      "constant": false,
      "inputs": [
        {
          "name": "work",
          "type": "address"
        }
      ],
      "name": "dispute",
      "outputs": [],
      "payable": false,
      "stateMutability": "nonpayable",
      "type": "function"
    }
  ],
  "bytecode": "0x606060405234156200001057600080fd5b6040516200176b3803806200176b83398101604052808051820191906020018051820191906020018051820191906020018051906020019091905050336000806101000a81548173ffffffffffffffffffffffffffffffffffffffff021916908373ffffffffffffffffffffffffffffffffffffffff1602179055508360059080519060200190620000a492919062000122565b508260069080519060200190620000bd92919062000122565b508160079080519060200190620000d692919062000122565b5080600860006101000a81548173ffffffffffffffffffffffffffffffffffffffff021916908373ffffffffffffffffffffffffffffffffffffffff16021790555050505050620001d1565b828054600181600116156101000203166002900490600052602060002090601f016020900481019282601f106200016557805160ff191683800117855562000196565b8280016001018555821562000196579182015b828111156200019557825182559160200191906001019062000178565b5b509050620001a59190620001a9565b5090565b620001ce91905b80821115620001ca576000816000905550600101620001b0565b5090565b90565b61158a80620001e16000396000f3006060604052600436106100f1576000357c0100000000000000000000000000000000000000000000000000000000900463ffffffff16806328bdd8311461015457806350d15fbe146101925780635eb9f575146101d05780636328bbb9146101f35780636591c0d11461021f57806371205c6d146102585780637b31eaea146102f95780638da5cb5b1461033257806397f75df814610387578063af7164bb146103df578063bd09dbe114610449578063c590d5cb14610472578063d19aee571461049e578063f2fde38b146104c7578063f75f9f7b14610500578063fbe73cc014610539578063fdd76bb314610562575b6000809054906101000a900473ffffffffffffffffffffffffffffffffffffffff1673ffffffffffffffffffffffffffffffffffffffff166108fc349081150290604051600060405180830381858888f19350505050151561015257600080fd5b005b341561015f57600080fd5b61017560048080359060200190919050506105c7565b604051808381526020018281526020019250505060405180910390f35b341561019d57600080fd5b6101b360048080359060200190919050506105fa565b604051808381526020018281526020019250505060405180910390f35b34156101db57600080fd5b6101f1600480803590602001909190505061062d565b005b34156101fe57600080fd5b61021d600480803590602001909190803590602001909190505061069b565b005b341561022a57600080fd5b610256600480803573ffffffffffffffffffffffffffffffffffffffff169060200190919050506107cd565b005b341561026357600080fd5b61027960048080359060200190919050506108c4565b604051808473ffffffffffffffffffffffffffffffffffffffff1673ffffffffffffffffffffffffffffffffffffffff1681526020018373ffffffffffffffffffffffffffffffffffffffff1673ffffffffffffffffffffffffffffffffffffffff16815260200182151515158152602001935050505060405180910390f35b341561030457600080fd5b610330600480803573ffffffffffffffffffffffffffffffffffffffff1690602001909190505061094a565b005b341561033d57600080fd5b610345610a7c565b604051808273ffffffffffffffffffffffffffffffffffffffff1673ffffffffffffffffffffffffffffffffffffffff16815260200191505060405180910390f35b341561039257600080fd5b6103dd600480803573ffffffffffffffffffffffffffffffffffffffff1690602001909190803573ffffffffffffffffffffffffffffffffffffffff16906020019091905050610aa1565b005b34156103ea57600080fd5b6104006004808035906020019091905050610cc0565b604051808381526020018273ffffffffffffffffffffffffffffffffffffffff1673ffffffffffffffffffffffffffffffffffffffff1681526020019250505060405180910390f35b341561045457600080fd5b61045c610d92565b6040518082815260200191505060405180910390f35b341561047d57600080fd5b61049c6004808035906020019091908035906020019091905050610e38565b005b34156104a957600080fd5b6104b1610f6a565b6040518082815260200191505060405180910390f35b34156104d257600080fd5b6104fe600480803573ffffffffffffffffffffffffffffffffffffffff16906020019091905050610f70565b005b341561050b57600080fd5b610537600480803573ffffffffffffffffffffffffffffffffffffffff169060200190919050506110c5565b005b341561054457600080fd5b61054c6112c6565b6040518082815260200191505060405180910390f35b341561056d57600080fd5b61057561135c565b60405180806020018281038252838181518152602001915080516000925b818410156105b65782849060200190602002015181526020019260010192610593565b925050509250505060405180910390f35b6004818154811015156105d657fe5b90600052602060002090600202016000915090508060000154908060010154905082565b60038181548110151561060957fe5b90600052602060002090600202016000915090508060000154908060010154905082565b6000809054906101000a900473ffffffffffffffffffffffffffffffffffffffff1673ffffffffffffffffffffffffffffffffffffffff163373ffffffffffffffffffffffffffffffffffffffff1614151561068857600080fd5b8060026000828254019250508190555050565b60008060009054906101000a900473ffffffffffffffffffffffffffffffffffffffff1673ffffffffffffffffffffffffffffffffffffffff163373ffffffffffffffffffffffffffffffffffffffff161415156106f857600080fd5b600090505b600480549050811015610772578260048281548110151561071a57fe5b9060005260206000209060020201600001541415610765578160048281548110151561074257fe5b9060005260206000209060020201600101600082825401925050819055506107c8565b80806001019150506106fd565b6004805480600101828161078691906113d5565b91600052602060002090600202016000604080519081016040528087815260200186815250909190915060008201518160000155602082015181600101555050505b505050565b6000809054906101000a900473ffffffffffffffffffffffffffffffffffffffff1673ffffffffffffffffffffffffffffffffffffffff163373ffffffffffffffffffffffffffffffffffffffff1614806108755750600860009054906101000a900473ffffffffffffffffffffffffffffffffffffffff1673ffffffffffffffffffffffffffffffffffffffff163373ffffffffffffffffffffffffffffffffffffffff16145b151561088057600080fd5b80600860006101000a81548173ffffffffffffffffffffffffffffffffffffffff021916908373ffffffffffffffffffffffffffffffffffffffff16021790555050565b6001818154811015156108d357fe5b90600052602060002090600202016000915090508060000160009054906101000a900473ffffffffffffffffffffffffffffffffffffffff16908060010160009054906101000a900473ffffffffffffffffffffffffffffffffffffffff16908060010160149054906101000a900460ff16905083565b60008060009054906101000a900473ffffffffffffffffffffffffffffffffffffffff1673ffffffffffffffffffffffffffffffffffffffff163373ffffffffffffffffffffffffffffffffffffffff161415156109a757600080fd5b600090505b600180549050811015610a77576001818154811015156109c857fe5b906000526020600020906002020160000160009054906101000a900473ffffffffffffffffffffffffffffffffffffffff1673ffffffffffffffffffffffffffffffffffffffff168273ffffffffffffffffffffffffffffffffffffffff161415610a6a5760018082815481101515610a3d57fe5b906000526020600020906002020160010160146101000a81548160ff021916908315150217905550610a78565b80806001019150506109ac565b5b5050565b6000809054906101000a900473ffffffffffffffffffffffffffffffffffffffff1681565b60008060009054906101000a900473ffffffffffffffffffffffffffffffffffffffff1673ffffffffffffffffffffffffffffffffffffffff163373ffffffffffffffffffffffffffffffffffffffff16141515610afe57600080fd5b600090505b600180549050811015610b9657600181815481101515610b1f57fe5b906000526020600020906002020160000160009054906101000a900473ffffffffffffffffffffffffffffffffffffffff1673ffffffffffffffffffffffffffffffffffffffff168373ffffffffffffffffffffffffffffffffffffffff161415610b8957600080fd5b8080600101915050610b03565b60018054806001018281610baa9190611407565b916000526020600020906002020160006060604051908101604052808773ffffffffffffffffffffffffffffffffffffffff1681526020018673ffffffffffffffffffffffffffffffffffffffff16815260200160001515815250909190915060008201518160000160006101000a81548173ffffffffffffffffffffffffffffffffffffffff021916908373ffffffffffffffffffffffffffffffffffffffff16021790555060208201518160010160006101000a81548173ffffffffffffffffffffffffffffffffffffffff021916908373ffffffffffffffffffffffffffffffffffffffff16021790555060408201518160010160146101000a81548160ff021916908315150217905550505050505050565b60008060008390505b600180549050811015610d6257600181815481101515610ce557fe5b906000526020600020906002020160010160009054906101000a900473ffffffffffffffffffffffffffffffffffffffff1673ffffffffffffffffffffffffffffffffffffffff163373ffffffffffffffffffffffffffffffffffffffff161415610d5557808292509250610d8c565b8080600101915050610cc9565b7fffffffffffffffffffffffffffffffffffffffffffffffffffffffffffffffff82819150925092505b50915091565b600080600090505b600180549050811015610e3157600181815481101515610db657fe5b906000526020600020906002020160010160009054906101000a900473ffffffffffffffffffffffffffffffffffffffff1673ffffffffffffffffffffffffffffffffffffffff163373ffffffffffffffffffffffffffffffffffffffff161415610e245781806001019250505b8080600101915050610d9a565b8191505090565b60008060009054906101000a900473ffffffffffffffffffffffffffffffffffffffff1673ffffffffffffffffffffffffffffffffffffffff163373ffffffffffffffffffffffffffffffffffffffff16141515610e9557600080fd5b600090505b600380549050811015610f0f5782600382815481101515610eb757fe5b9060005260206000209060020201600001541415610f025781600382815481101515610edf57fe5b906000526020600020906002020160010160008282540192505081905550610f65565b8080600101915050610e9a565b60038054806001018281610f239190611439565b91600052602060002090600202016000604080519081016040528087815260200186815250909190915060008201518160000155602082015181600101555050505b505050565b60025481565b6000809054906101000a900473ffffffffffffffffffffffffffffffffffffffff1673ffffffffffffffffffffffffffffffffffffffff163373ffffffffffffffffffffffffffffffffffffffff16141515610fcb57600080fd5b600073ffffffffffffffffffffffffffffffffffffffff168173ffffffffffffffffffffffffffffffffffffffff161415151561100757600080fd5b8073ffffffffffffffffffffffffffffffffffffffff166000809054906101000a900473ffffffffffffffffffffffffffffffffffffffff1673ffffffffffffffffffffffffffffffffffffffff167f8be0079c531659141344cd1fd0a4f28419497f9722a3daafe3b4186f6b6457e060405160405180910390a3806000806101000a81548173ffffffffffffffffffffffffffffffffffffffff021916908373ffffffffffffffffffffffffffffffffffffffff16021790555050565b60008060009054906101000a900473ffffffffffffffffffffffffffffffffffffffff1673ffffffffffffffffffffffffffffffffffffffff163373ffffffffffffffffffffffffffffffffffffffff16148061116f5750600860009054906101000a900473ffffffffffffffffffffffffffffffffffffffff1673ffffffffffffffffffffffffffffffffffffffff163373ffffffffffffffffffffffffffffffffffffffff16145b151561117a57600080fd5b600090505b6001805490508110156112c15760018181548110151561119b57fe5b906000526020600020906002020160000160009054906101000a900473ffffffffffffffffffffffffffffffffffffffff1673ffffffffffffffffffffffffffffffffffffffff168273ffffffffffffffffffffffffffffffffffffffff1614156112b4578173ffffffffffffffffffffffffffffffffffffffff166386da88656040518163ffffffff167c0100000000000000000000000000000000000000000000000000000000028152600401600060405180830381600087803b151561126357600080fd5b6102c65a03f1151561127457600080fd5b5050506001808281548110151561128757fe5b906000526020600020906002020160010160146101000a81548160ff0219169083151502179055506112c2565b808060010191505061117f565b5b5050565b600080600090505b60038054905081101561130d576003818154811015156112ea57fe5b9060005260206000209060020201600101548201915080806001019150506112ce565b600090505b6004805490508110156113515760048181548110151561132e57fe5b906000526020600020906002020160010154820191508080600101915050611312565b600254820191505090565b61136461146b565b6003805480602002602001604051908101604052809291908181526020016000905b828210156113cc57838290600052602060002090600202016040805190810160405290816000820154815260200160018201548152505081526020019060010190611386565b50505050905090565b81548183558181151161140257600202816002028360005260206000209182019101611401919061147f565b5b505050565b8154818355818115116114345760020281600202836000526020600020918201910161143391906114ae565b5b505050565b81548183558181151161146657600202816002028360005260206000209182019101611465919061152f565b5b505050565b602060405190810160405280600081525090565b6114ab91905b808211156114a757600080820160009055600182016000905550600201611485565b5090565b90565b61152c91905b8082111561152857600080820160006101000a81549073ffffffffffffffffffffffffffffffffffffffff02191690556001820160006101000a81549073ffffffffffffffffffffffffffffffffffffffff02191690556001820160146101000a81549060ff0219169055506002016114b4565b5090565b90565b61155b91905b8082111561155757600080820160009055600182016000905550600201611535565b5090565b905600a165627a7a72305820c164865d95fda0db3de013b1c62052f768e397c0e80a3b9c5abfb46f9c246d6f0029",
  "source": "pragma solidity ^0.4.11;\r\nimport \"zeppelin-solidity/contracts/ownership/Ownable.sol\";\r\nimport \"./Work.sol\";\r\n\r\n\r\ncontract Employee is Ownable {\r\n\r\n    struct EmployeeWork {\r\n        address work;\r\n        address company;\r\n        bool isFinish;\r\n    }\r\n\r\n    struct Skill {\r\n        uint skillCode;\r\n        uint rating;\r\n    }\r\n\r\n    struct TestRating {\r\n        uint testCode;\r\n        uint rating;\r\n    }\r\n\r\n    EmployeeWork[] public workHistory;\r\n    uint public bonusRating;\r\n    Skill[] public skills;\r\n    TestRating[] public passedTests;\r\n\r\n    string private firstName;\r\n    string private lastName;\r\n    string private email;\r\n    address private employeeAddress;\r\n\r\n    modifier onlyOwnerOrEmployee() {\r\n        require(msg.sender == owner || msg.sender == employeeAddress);\r\n        _;\r\n    }\r\n\r\n    function Employee(string _firstName, string _lastName, string _email, address _employee) public {\r\n        firstName = _firstName;\r\n        lastName = _lastName;\r\n        email = _email;\r\n        employeeAddress = _employee;\r\n    }\r\n\r\n    function () public payable {\r\n        owner.transfer(msg.value);\r\n    }\r\n\r\n    function getSenderWorkCount() public view returns (uint result) {\r\n        for (uint i = 0; i < workHistory.length; i++) {\r\n            if (msg.sender == address(workHistory[i].company))\r\n                result++;\r\n        }\r\n        return result;\r\n    }\r\n\r\n    function getFirstWorkFrom(uint from) public view returns (int, address company) {\r\n\r\n        for (uint i = from; i < workHistory.length; i++) {\r\n            if (msg.sender == address(workHistory[i].company))\r\n                return (int(i), company);\r\n        }\r\n        return (-1, company);\r\n    }\r\n\r\n    function addWork(address work, address company) public onlyOwner {\r\n        for (uint i = 0; i < workHistory.length; i++) {\r\n            if (work == workHistory[i].work) {\r\n                revert();\r\n            }\r\n        }\r\n        workHistory.push(EmployeeWork(work, company, false));\r\n    }\r\n\r\n    function finishWork(address work) public onlyOwner {\r\n        for (uint i = 0; i < workHistory.length; i++) {\r\n            if (work == workHistory[i].work) {\r\n                workHistory[i].isFinish = true;\r\n                return;\r\n            }\r\n        }\r\n    }\r\n\r\n    function changeEmployeeAddress(address _employeeAddress) public onlyOwnerOrEmployee {\r\n        employeeAddress = _employeeAddress;\r\n    }\r\n\r\n    function changeBonusRating(uint addRating) public onlyOwner {\r\n        bonusRating += addRating;\r\n    }\r\n\r\n    //assume the skillCode is correct skill code\r\n    function changeSkillRating(uint skillCode, uint addRating) public onlyOwner {\r\n        for (uint index = 0; index < skills.length; index++) {\r\n            if (skills[index].skillCode == skillCode) {\r\n                skills[index].rating += addRating;\r\n                return;\r\n            }\r\n        }\r\n\r\n        skills.push(Skill(skillCode, addRating));\r\n    }\r\n\r\n    //assume the skillCode is correct skill code\r\n    function changeTestRating(uint testCode, uint addRating) public onlyOwner {\r\n        for (uint index = 0; index < passedTests.length; index++) {\r\n            if (passedTests[index].testCode == testCode) {\r\n                passedTests[index].rating += addRating;\r\n                return;\r\n            }\r\n        }\r\n\r\n        passedTests.push(TestRating(testCode, addRating));\r\n    }\r\n\r\n    function calculateRating() public view returns (uint result) {\r\n        for (uint i = 0; i < skills.length; i++) {\r\n            result += skills[i].rating;\r\n        }\r\n\r\n        for (i = 0; i < passedTests.length; i++) {\r\n            result += passedTests[i].rating;\r\n        }\r\n\r\n        result += bonusRating;\r\n    }\r\n\r\n    function getSkills() public view returns (Skill[]) {\r\n        return skills;\r\n    }\r\n\r\n    function dispute(Work work) public onlyOwnerOrEmployee {\r\n        for (uint i = 0; i < workHistory.length; i++) {\r\n            if (address(work) == workHistory[i].work) {\r\n                work.disputeStatusOn();\r\n                workHistory[i].isFinish = true;\r\n                return;\r\n            }\r\n        }\r\n    }\r\n}\r\n",
  "sourcePath": "D:\\node_projects\\smart\\smart_contract_example\\contracts\\Employee.sol",
  "compiler": {
    "name": "solc",
    "version": "0.4.19+commit.c4cbbb05.Emscripten.clang"
  },
  "schemaVersion": "1.0.1",
  "updatedAt": "2018-03-06T00:24:58.464Z"
}