{
  "contractName": "Employee",
  "abi": [
    {
      "constant": true,
      "inputs": [
        {
          "name": "",
          "type": "uint256"
        }
      ],
      "name": "passedTests",
      "outputs": [
        {
          "name": "testCode",
          "type": "uint256"
        },
        {
          "name": "rating",
          "type": "uint256"
        }
      ],
      "payable": false,
      "stateMutability": "view",
      "type": "function"
    },
    {
      "constant": true,
      "inputs": [
        {
          "name": "",
          "type": "uint256"
        }
      ],
      "name": "skills",
      "outputs": [
        {
          "name": "skillCode",
          "type": "uint256"
        },
        {
          "name": "rating",
          "type": "uint256"
        }
      ],
      "payable": false,
      "stateMutability": "view",
      "type": "function"
    },
    {
      "constant": true,
      "inputs": [
        {
          "name": "",
          "type": "uint256"
        }
      ],
      "name": "workHistory",
      "outputs": [
        {
          "name": "work",
          "type": "address"
        },
        {
          "name": "company",
          "type": "address"
        },
        {
          "name": "isFinish",
          "type": "bool"
        }
      ],
      "payable": false,
      "stateMutability": "view",
      "type": "function"
    },
    {
      "constant": true,
      "inputs": [],
      "name": "owner",
      "outputs": [
        {
          "name": "",
          "type": "address"
        }
      ],
      "payable": false,
      "stateMutability": "view",
      "type": "function"
    },
    {
      "constant": true,
      "inputs": [],
      "name": "bonusRating",
      "outputs": [
        {
          "name": "",
          "type": "uint256"
        }
      ],
      "payable": false,
      "stateMutability": "view",
      "type": "function"
    },
    {
      "constant": false,
      "inputs": [
        {
          "name": "newOwner",
          "type": "address"
        }
      ],
      "name": "transferOwnership",
      "outputs": [],
      "payable": false,
      "stateMutability": "nonpayable",
      "type": "function"
    },
    {
      "inputs": [
        {
          "name": "_firstName",
          "type": "string"
        },
        {
          "name": "_lastName",
          "type": "string"
        },
        {
          "name": "_email",
          "type": "string"
        },
        {
          "name": "_employee",
          "type": "address"
        }
      ],
      "payable": false,
      "stateMutability": "nonpayable",
      "type": "constructor"
    },
    {
      "payable": true,
      "stateMutability": "payable",
      "type": "fallback"
    },
    {
      "anonymous": false,
      "inputs": [
        {
          "indexed": true,
          "name": "previousOwner",
          "type": "address"
        },
        {
          "indexed": true,
          "name": "newOwner",
          "type": "address"
        }
      ],
      "name": "OwnershipTransferred",
      "type": "event"
    },
    {
      "constant": true,
      "inputs": [],
      "name": "getSenderWorkCount",
      "outputs": [
        {
          "name": "result",
          "type": "uint256"
        }
      ],
      "payable": false,
      "stateMutability": "view",
      "type": "function"
    },
    {
      "constant": true,
      "inputs": [
        {
          "name": "from",
          "type": "uint256"
        }
      ],
      "name": "getFirstWorkFrom",
      "outputs": [
        {
          "name": "",
          "type": "int256"
        },
        {
          "name": "company",
          "type": "address"
        }
      ],
      "payable": false,
      "stateMutability": "view",
      "type": "function"
    },
    {
      "constant": false,
      "inputs": [
        {
          "name": "work",
          "type": "address"
        },
        {
          "name": "company",
          "type": "address"
        }
      ],
      "name": "addWork",
      "outputs": [],
      "payable": false,
      "stateMutability": "nonpayable",
      "type": "function"
    },
    {
      "constant": false,
      "inputs": [
        {
          "name": "work",
          "type": "address"
        }
      ],
      "name": "finishWork",
      "outputs": [],
      "payable": false,
      "stateMutability": "nonpayable",
      "type": "function"
    },
    {
      "constant": false,
      "inputs": [
        {
          "name": "_employeeAddress",
          "type": "address"
        }
      ],
      "name": "changeEmployeeAddress",
      "outputs": [],
      "payable": false,
      "stateMutability": "nonpayable",
      "type": "function"
    },
    {
      "constant": false,
      "inputs": [
        {
          "name": "addRating",
          "type": "uint256"
        }
      ],
      "name": "changeBonusRating",
      "outputs": [],
      "payable": false,
      "stateMutability": "nonpayable",
      "type": "function"
    },
    {
      "constant": false,
      "inputs": [
        {
          "name": "skillCode",
          "type": "uint256"
        },
        {
          "name": "addRating",
          "type": "uint256"
        }
      ],
      "name": "changeSkillRating",
      "outputs": [],
      "payable": false,
      "stateMutability": "nonpayable",
      "type": "function"
    },
    {
      "constant": false,
      "inputs": [
        {
          "name": "testCode",
          "type": "uint256"
        },
        {
          "name": "addRating",
          "type": "uint256"
        }
      ],
      "name": "changeTestRating",
      "outputs": [],
      "payable": false,
      "stateMutability": "nonpayable",
      "type": "function"
    },
    {
      "constant": true,
      "inputs": [],
      "name": "calculateRating",
      "outputs": [
        {
          "name": "result",
          "type": "uint256"
        }
      ],
      "payable": false,
      "stateMutability": "view",
      "type": "function"
    },
    {
      "constant": false,
      "inputs": [
        {
          "name": "work",
          "type": "address"
        }
      ],
      "name": "dispute",
      "outputs": [],
      "payable": false,
      "stateMutability": "nonpayable",
      "type": "function"
    }
  ],
  "bytecode": "0x606060405234156200001057600080fd5b6040516200160d3803806200160d83398101604052808051820191906020018051820191906020018051820191906020018051906020019091905050336000806101000a81548173ffffffffffffffffffffffffffffffffffffffff021916908373ffffffffffffffffffffffffffffffffffffffff1602179055508360059080519060200190620000a492919062000122565b508260069080519060200190620000bd92919062000122565b508160079080519060200190620000d692919062000122565b5080600860006101000a81548173ffffffffffffffffffffffffffffffffffffffff021916908373ffffffffffffffffffffffffffffffffffffffff16021790555050505050620001d1565b828054600181600116156101000203166002900490600052602060002090601f016020900481019282601f106200016557805160ff191683800117855562000196565b8280016001018555821562000196579182015b828111156200019557825182559160200191906001019062000178565b5b509050620001a59190620001a9565b5090565b620001ce91905b80821115620001ca576000816000905550600101620001b0565b5090565b90565b61142c80620001e16000396000f3006060604052600436106100e6576000357c0100000000000000000000000000000000000000000000000000000000900463ffffffff16806328bdd8311461014957806350d15fbe146101875780635eb9f575146101c55780636328bbb9146101e85780636591c0d11461021457806371205c6d1461024d5780637b31eaea146102ee5780638da5cb5b1461032757806397f75df81461037c578063af7164bb146103d4578063bd09dbe11461043e578063c590d5cb14610467578063d19aee5714610493578063f2fde38b146104bc578063f75f9f7b146104f5578063fbe73cc01461052e575b6000809054906101000a900473ffffffffffffffffffffffffffffffffffffffff1673ffffffffffffffffffffffffffffffffffffffff166108fc349081150290604051600060405180830381858888f19350505050151561014757600080fd5b005b341561015457600080fd5b61016a6004808035906020019091905050610557565b604051808381526020018281526020019250505060405180910390f35b341561019257600080fd5b6101a8600480803590602001909190505061058a565b604051808381526020018281526020019250505060405180910390f35b34156101d057600080fd5b6101e660048080359060200190919050506105bd565b005b34156101f357600080fd5b610212600480803590602001909190803590602001909190505061062b565b005b341561021f57600080fd5b61024b600480803573ffffffffffffffffffffffffffffffffffffffff1690602001909190505061075d565b005b341561025857600080fd5b61026e6004808035906020019091905050610854565b604051808473ffffffffffffffffffffffffffffffffffffffff1673ffffffffffffffffffffffffffffffffffffffff1681526020018373ffffffffffffffffffffffffffffffffffffffff1673ffffffffffffffffffffffffffffffffffffffff16815260200182151515158152602001935050505060405180910390f35b34156102f957600080fd5b610325600480803573ffffffffffffffffffffffffffffffffffffffff169060200190919050506108da565b005b341561033257600080fd5b61033a610a0c565b604051808273ffffffffffffffffffffffffffffffffffffffff1673ffffffffffffffffffffffffffffffffffffffff16815260200191505060405180910390f35b341561038757600080fd5b6103d2600480803573ffffffffffffffffffffffffffffffffffffffff1690602001909190803573ffffffffffffffffffffffffffffffffffffffff16906020019091905050610a31565b005b34156103df57600080fd5b6103f56004808035906020019091905050610c50565b604051808381526020018273ffffffffffffffffffffffffffffffffffffffff1673ffffffffffffffffffffffffffffffffffffffff1681526020019250505060405180910390f35b341561044957600080fd5b610451610d22565b6040518082815260200191505060405180910390f35b341561047257600080fd5b6104916004808035906020019091908035906020019091905050610dc8565b005b341561049e57600080fd5b6104a6610efa565b6040518082815260200191505060405180910390f35b34156104c757600080fd5b6104f3600480803573ffffffffffffffffffffffffffffffffffffffff16906020019091905050610f00565b005b341561050057600080fd5b61052c600480803573ffffffffffffffffffffffffffffffffffffffff16906020019091905050611055565b005b341561053957600080fd5b610541611256565b6040518082815260200191505060405180910390f35b60048181548110151561056657fe5b90600052602060002090600202016000915090508060000154908060010154905082565b60038181548110151561059957fe5b90600052602060002090600202016000915090508060000154908060010154905082565b6000809054906101000a900473ffffffffffffffffffffffffffffffffffffffff1673ffffffffffffffffffffffffffffffffffffffff163373ffffffffffffffffffffffffffffffffffffffff1614151561061857600080fd5b8060026000828254019250508190555050565b60008060009054906101000a900473ffffffffffffffffffffffffffffffffffffffff1673ffffffffffffffffffffffffffffffffffffffff163373ffffffffffffffffffffffffffffffffffffffff1614151561068857600080fd5b600090505b60048054905081101561070257826004828154811015156106aa57fe5b90600052602060002090600202016000015414156106f557816004828154811015156106d257fe5b906000526020600020906002020160010160008282540192505081905550610758565b808060010191505061068d565b6003805480600101828161071691906112ec565b91600052602060002090600202016000604080519081016040528087815260200186815250909190915060008201518160000155602082015181600101555050505b505050565b6000809054906101000a900473ffffffffffffffffffffffffffffffffffffffff1673ffffffffffffffffffffffffffffffffffffffff163373ffffffffffffffffffffffffffffffffffffffff1614806108055750600860009054906101000a900473ffffffffffffffffffffffffffffffffffffffff1673ffffffffffffffffffffffffffffffffffffffff163373ffffffffffffffffffffffffffffffffffffffff16145b151561081057600080fd5b80600860006101000a81548173ffffffffffffffffffffffffffffffffffffffff021916908373ffffffffffffffffffffffffffffffffffffffff16021790555050565b60018181548110151561086357fe5b90600052602060002090600202016000915090508060000160009054906101000a900473ffffffffffffffffffffffffffffffffffffffff16908060010160009054906101000a900473ffffffffffffffffffffffffffffffffffffffff16908060010160149054906101000a900460ff16905083565b60008060009054906101000a900473ffffffffffffffffffffffffffffffffffffffff1673ffffffffffffffffffffffffffffffffffffffff163373ffffffffffffffffffffffffffffffffffffffff1614151561093757600080fd5b600090505b600180549050811015610a075760018181548110151561095857fe5b906000526020600020906002020160000160009054906101000a900473ffffffffffffffffffffffffffffffffffffffff1673ffffffffffffffffffffffffffffffffffffffff168273ffffffffffffffffffffffffffffffffffffffff1614156109fa57600180828154811015156109cd57fe5b906000526020600020906002020160010160146101000a81548160ff021916908315150217905550610a08565b808060010191505061093c565b5b5050565b6000809054906101000a900473ffffffffffffffffffffffffffffffffffffffff1681565b60008060009054906101000a900473ffffffffffffffffffffffffffffffffffffffff1673ffffffffffffffffffffffffffffffffffffffff163373ffffffffffffffffffffffffffffffffffffffff16141515610a8e57600080fd5b600090505b600180549050811015610b2657600181815481101515610aaf57fe5b906000526020600020906002020160000160009054906101000a900473ffffffffffffffffffffffffffffffffffffffff1673ffffffffffffffffffffffffffffffffffffffff168373ffffffffffffffffffffffffffffffffffffffff161415610b1957600080fd5b8080600101915050610a93565b60018054806001018281610b3a919061131e565b916000526020600020906002020160006060604051908101604052808773ffffffffffffffffffffffffffffffffffffffff1681526020018673ffffffffffffffffffffffffffffffffffffffff16815260200160001515815250909190915060008201518160000160006101000a81548173ffffffffffffffffffffffffffffffffffffffff021916908373ffffffffffffffffffffffffffffffffffffffff16021790555060208201518160010160006101000a81548173ffffffffffffffffffffffffffffffffffffffff021916908373ffffffffffffffffffffffffffffffffffffffff16021790555060408201518160010160146101000a81548160ff021916908315150217905550505050505050565b60008060008390505b600180549050811015610cf257600181815481101515610c7557fe5b906000526020600020906002020160010160009054906101000a900473ffffffffffffffffffffffffffffffffffffffff1673ffffffffffffffffffffffffffffffffffffffff163373ffffffffffffffffffffffffffffffffffffffff161415610ce557808292509250610d1c565b8080600101915050610c59565b7fffffffffffffffffffffffffffffffffffffffffffffffffffffffffffffffff82819150925092505b50915091565b600080600090505b600180549050811015610dc157600181815481101515610d4657fe5b906000526020600020906002020160010160009054906101000a900473ffffffffffffffffffffffffffffffffffffffff1673ffffffffffffffffffffffffffffffffffffffff163373ffffffffffffffffffffffffffffffffffffffff161415610db45781806001019250505b8080600101915050610d2a565b8191505090565b60008060009054906101000a900473ffffffffffffffffffffffffffffffffffffffff1673ffffffffffffffffffffffffffffffffffffffff163373ffffffffffffffffffffffffffffffffffffffff16141515610e2557600080fd5b600090505b600380549050811015610e9f5782600382815481101515610e4757fe5b9060005260206000209060020201600001541415610e925781600382815481101515610e6f57fe5b906000526020600020906002020160010160008282540192505081905550610ef5565b8080600101915050610e2a565b60038054806001018281610eb391906112ec565b91600052602060002090600202016000604080519081016040528087815260200186815250909190915060008201518160000155602082015181600101555050505b505050565b60025481565b6000809054906101000a900473ffffffffffffffffffffffffffffffffffffffff1673ffffffffffffffffffffffffffffffffffffffff163373ffffffffffffffffffffffffffffffffffffffff16141515610f5b57600080fd5b600073ffffffffffffffffffffffffffffffffffffffff168173ffffffffffffffffffffffffffffffffffffffff1614151515610f9757600080fd5b8073ffffffffffffffffffffffffffffffffffffffff166000809054906101000a900473ffffffffffffffffffffffffffffffffffffffff1673ffffffffffffffffffffffffffffffffffffffff167f8be0079c531659141344cd1fd0a4f28419497f9722a3daafe3b4186f6b6457e060405160405180910390a3806000806101000a81548173ffffffffffffffffffffffffffffffffffffffff021916908373ffffffffffffffffffffffffffffffffffffffff16021790555050565b60008060009054906101000a900473ffffffffffffffffffffffffffffffffffffffff1673ffffffffffffffffffffffffffffffffffffffff163373ffffffffffffffffffffffffffffffffffffffff1614806110ff5750600860009054906101000a900473ffffffffffffffffffffffffffffffffffffffff1673ffffffffffffffffffffffffffffffffffffffff163373ffffffffffffffffffffffffffffffffffffffff16145b151561110a57600080fd5b600090505b6001805490508110156112515760018181548110151561112b57fe5b906000526020600020906002020160000160009054906101000a900473ffffffffffffffffffffffffffffffffffffffff1673ffffffffffffffffffffffffffffffffffffffff168273ffffffffffffffffffffffffffffffffffffffff161415611244578173ffffffffffffffffffffffffffffffffffffffff166386da88656040518163ffffffff167c0100000000000000000000000000000000000000000000000000000000028152600401600060405180830381600087803b15156111f357600080fd5b6102c65a03f1151561120457600080fd5b5050506001808281548110151561121757fe5b906000526020600020906002020160010160146101000a81548160ff021916908315150217905550611252565b808060010191505061110f565b5b5050565b600080600090505b60038054905081101561129d5760038181548110151561127a57fe5b90600052602060002090600202016001015482019150808060010191505061125e565b600090505b6004805490508110156112e1576004818154811015156112be57fe5b9060005260206000209060020201600101548201915080806001019150506112a2565b600254820191505090565b815481835581811511611319576002028160020283600052602060002091820191016113189190611350565b5b505050565b81548183558181151161134b5760020281600202836000526020600020918201910161134a919061137f565b5b505050565b61137c91905b8082111561137857600080820160009055600182016000905550600201611356565b5090565b90565b6113fd91905b808211156113f957600080820160006101000a81549073ffffffffffffffffffffffffffffffffffffffff02191690556001820160006101000a81549073ffffffffffffffffffffffffffffffffffffffff02191690556001820160146101000a81549060ff021916905550600201611385565b5090565b905600a165627a7a7230582032339998f968f5e130d74094ba0a754acbaf01185463de95f46b07647ab37ee80029",
  "source": "pragma solidity ^0.4.11;\r\nimport \"zeppelin-solidity/contracts/ownership/Ownable.sol\";\r\nimport \"./Work.sol\";\r\n\r\n\r\ncontract Employee is Ownable {\r\n\r\n    struct EmployeeWork {\r\n        address work;\r\n        address company;\r\n        bool isFinish;\r\n    }\r\n\r\n    struct Skill {\r\n        uint skillCode;\r\n        uint rating;\r\n    }\r\n\r\n    struct TestRating {\r\n        uint testCode;\r\n        uint rating;\r\n    }\r\n\r\n    EmployeeWork[] public workHistory;\r\n    uint public bonusRating;\r\n    Skill[] public skills;\r\n    TestRating[] public passedTests;\r\n\r\n    string private firstName;\r\n    string private lastName;\r\n    string private email;\r\n    address private employeeAddress;\r\n\r\n    modifier onlyOwnerOrEmployee() {\r\n        require(msg.sender == owner || msg.sender == employeeAddress);\r\n        _;\r\n    }\r\n\r\n    function Employee(string _firstName, string _lastName, string _email, address _employee) public {\r\n        firstName = _firstName;\r\n        lastName = _lastName;\r\n        email = _email;\r\n        employeeAddress = _employee;\r\n    }\r\n\r\n    function () public payable {\r\n        owner.transfer(msg.value);\r\n    }\r\n\r\n    function getSenderWorkCount() public view returns (uint result) {\r\n        for (uint i = 0; i < workHistory.length; i++) {\r\n            if (msg.sender == address(workHistory[i].company))\r\n                result++;\r\n        }\r\n        return result;\r\n    }\r\n\r\n    function getFirstWorkFrom(uint from) public view returns (int, address company) {\r\n\r\n        for (uint i = from; i < workHistory.length; i++) {\r\n            if (msg.sender == address(workHistory[i].company))\r\n                return (int(i), company);\r\n        }\r\n        return (-1, company);\r\n    }\r\n\r\n    function addWork(address work, address company) public onlyOwner {\r\n        for (uint i = 0; i < workHistory.length; i++) {\r\n            if (work == workHistory[i].work) {\r\n                revert();\r\n            }\r\n        }\r\n        workHistory.push(EmployeeWork(work, company, false));\r\n    }\r\n\r\n    function finishWork(address work) public onlyOwner {\r\n        for (uint i = 0; i < workHistory.length; i++) {\r\n            if (work == workHistory[i].work) {\r\n                workHistory[i].isFinish = true;\r\n                return;\r\n            }\r\n        }\r\n    }\r\n\r\n    function changeEmployeeAddress(address _employeeAddress) public onlyOwnerOrEmployee {\r\n        employeeAddress = _employeeAddress;\r\n    }\r\n\r\n    function changeBonusRating(uint addRating) public onlyOwner {\r\n        bonusRating += addRating;\r\n    }\r\n\r\n    //assume the skillCode is correct skill code\r\n    function changeSkillRating(uint skillCode, uint addRating) public onlyOwner {\r\n        for (uint index = 0; index < skills.length; index++) {\r\n            if (skills[index].skillCode == skillCode) {\r\n                skills[index].rating += addRating;\r\n                return;\r\n            }\r\n        }\r\n\r\n        skills.push(Skill(skillCode, addRating));\r\n    }\r\n\r\n    //assume the skillCode is correct skill code\r\n    function changeTestRating(uint testCode, uint addRating) public onlyOwner {\r\n        for (uint index = 0; index < passedTests.length; index++) {\r\n            if (passedTests[index].testCode == testCode) {\r\n                passedTests[index].rating += addRating;\r\n                return;\r\n            }\r\n        }\r\n\r\n        skills.push(Skill(testCode, addRating));\r\n    }\r\n\r\n    function calculateRating() public view returns (uint result) {\r\n        for (uint i = 0; i < skills.length; i++) {\r\n            result += skills[i].rating;\r\n        }\r\n\r\n        for (i = 0; i < passedTests.length; i++) {\r\n            result += passedTests[i].rating;\r\n        }\r\n\r\n        result += bonusRating;\r\n    }\r\n\r\n    function dispute(Work work) public onlyOwnerOrEmployee {\r\n        for (uint i = 0; i < workHistory.length; i++) {\r\n            if (address(work) == workHistory[i].work) {\r\n                work.disputeStatusOn();\r\n                workHistory[i].isFinish = true;\r\n                return;\r\n            }\r\n        }\r\n    }\r\n}\r\n",
  "sourcePath": "D:\\node_projects\\smart\\smart_contract_example\\contracts\\Employee.sol",
  "compiler": {
    "name": "solc",
    "version": "0.4.19+commit.c4cbbb05.Emscripten.clang"
  },
  "schemaVersion": "1.0.1",
  "updatedAt": "2018-03-05T17:33:56.109Z"
}