{
  "contractName": "Employee",
  "abi": [
    {
      "constant": true,
      "inputs": [
        {
          "name": "",
          "type": "uint256"
        }
      ],
      "name": "skills",
      "outputs": [
        {
          "name": "skillCode",
          "type": "uint256"
        },
        {
          "name": "rating",
          "type": "uint256"
        }
      ],
      "payable": false,
      "stateMutability": "view",
      "type": "function"
    },
    {
      "constant": true,
      "inputs": [
        {
          "name": "",
          "type": "uint256"
        }
      ],
      "name": "workHistory",
      "outputs": [
        {
          "name": "work",
          "type": "address"
        },
        {
          "name": "company",
          "type": "address"
        },
        {
          "name": "isFinish",
          "type": "bool"
        }
      ],
      "payable": false,
      "stateMutability": "view",
      "type": "function"
    },
    {
      "constant": true,
      "inputs": [],
      "name": "rating",
      "outputs": [
        {
          "name": "",
          "type": "uint256"
        }
      ],
      "payable": false,
      "stateMutability": "view",
      "type": "function"
    },
    {
      "constant": true,
      "inputs": [],
      "name": "owner",
      "outputs": [
        {
          "name": "",
          "type": "address"
        }
      ],
      "payable": false,
      "stateMutability": "view",
      "type": "function"
    },
    {
      "constant": false,
      "inputs": [
        {
          "name": "newOwner",
          "type": "address"
        }
      ],
      "name": "transferOwnership",
      "outputs": [],
      "payable": false,
      "stateMutability": "nonpayable",
      "type": "function"
    },
    {
      "inputs": [
        {
          "name": "_firstName",
          "type": "string"
        },
        {
          "name": "_lastName",
          "type": "string"
        },
        {
          "name": "_email",
          "type": "string"
        },
        {
          "name": "_employee",
          "type": "address"
        }
      ],
      "payable": false,
      "stateMutability": "nonpayable",
      "type": "constructor"
    },
    {
      "payable": true,
      "stateMutability": "payable",
      "type": "fallback"
    },
    {
      "anonymous": false,
      "inputs": [
        {
          "indexed": true,
          "name": "previousOwner",
          "type": "address"
        },
        {
          "indexed": true,
          "name": "newOwner",
          "type": "address"
        }
      ],
      "name": "OwnershipTransferred",
      "type": "event"
    },
    {
      "constant": true,
      "inputs": [],
      "name": "getSenderWorkCount",
      "outputs": [
        {
          "name": "result",
          "type": "uint256"
        }
      ],
      "payable": false,
      "stateMutability": "view",
      "type": "function"
    },
    {
      "constant": true,
      "inputs": [
        {
          "name": "from",
          "type": "uint256"
        }
      ],
      "name": "getFirstWorkFrom",
      "outputs": [
        {
          "name": "",
          "type": "int256"
        },
        {
          "name": "company",
          "type": "address"
        }
      ],
      "payable": false,
      "stateMutability": "view",
      "type": "function"
    },
    {
      "constant": false,
      "inputs": [
        {
          "name": "work",
          "type": "address"
        },
        {
          "name": "company",
          "type": "address"
        }
      ],
      "name": "addWork",
      "outputs": [],
      "payable": false,
      "stateMutability": "nonpayable",
      "type": "function"
    },
    {
      "constant": false,
      "inputs": [
        {
          "name": "work",
          "type": "address"
        }
      ],
      "name": "finishWork",
      "outputs": [],
      "payable": false,
      "stateMutability": "nonpayable",
      "type": "function"
    },
    {
      "constant": false,
      "inputs": [
        {
          "name": "_employeeAddress",
          "type": "address"
        }
      ],
      "name": "changeEmployeeAddress",
      "outputs": [],
      "payable": false,
      "stateMutability": "nonpayable",
      "type": "function"
    },
    {
      "constant": false,
      "inputs": [
        {
          "name": "newRaiting",
          "type": "uint256"
        }
      ],
      "name": "changeRaiting",
      "outputs": [],
      "payable": false,
      "stateMutability": "nonpayable",
      "type": "function"
    },
    {
      "constant": false,
      "inputs": [
        {
          "name": "work",
          "type": "address"
        }
      ],
      "name": "dispute",
      "outputs": [],
      "payable": false,
      "stateMutability": "nonpayable",
      "type": "function"
    }
  ],
  "bytecode": "0x606060405234156200001057600080fd5b6040516200118b3803806200118b83398101604052808051820191906020018051820191906020018051820191906020018051906020019091905050336000806101000a81548173ffffffffffffffffffffffffffffffffffffffff021916908373ffffffffffffffffffffffffffffffffffffffff1602179055508360049080519060200190620000a492919062000122565b508260059080519060200190620000bd92919062000122565b508160069080519060200190620000d692919062000122565b5080600760006101000a81548173ffffffffffffffffffffffffffffffffffffffff021916908373ffffffffffffffffffffffffffffffffffffffff16021790555050505050620001d1565b828054600181600116156101000203166002900490600052602060002090601f016020900481019282601f106200016557805160ff191683800117855562000196565b8280016001018555821562000196579182015b828111156200019557825182559160200191906001019062000178565b5b509050620001a59190620001a9565b5090565b620001ce91905b80821115620001ca576000816000905550600101620001b0565b5090565b90565b610faa80620001e16000396000f3006060604052600436106100ba576000357c0100000000000000000000000000000000000000000000000000000000900463ffffffff16806350d15fbe1461011d578063637b825c1461015b5780636591c0d11461017e57806371205c6d146101b75780637b31eaea1461025857806380f474f6146102915780638da5cb5b146102ba57806397f75df81461030f578063af7164bb14610367578063bd09dbe1146103d1578063f2fde38b146103fa578063f75f9f7b14610433575b6000809054906101000a900473ffffffffffffffffffffffffffffffffffffffff1673ffffffffffffffffffffffffffffffffffffffff166108fc349081150290604051600060405180830381858888f19350505050151561011b57600080fd5b005b341561012857600080fd5b61013e600480803590602001909190505061046c565b604051808381526020018281526020019250505060405180910390f35b341561016657600080fd5b61017c600480803590602001909190505061049f565b005b341561018957600080fd5b6101b5600480803573ffffffffffffffffffffffffffffffffffffffff16906020019091905050610504565b005b34156101c257600080fd5b6101d860048080359060200190919050506105fb565b604051808473ffffffffffffffffffffffffffffffffffffffff1673ffffffffffffffffffffffffffffffffffffffff1681526020018373ffffffffffffffffffffffffffffffffffffffff1673ffffffffffffffffffffffffffffffffffffffff16815260200182151515158152602001935050505060405180910390f35b341561026357600080fd5b61028f600480803573ffffffffffffffffffffffffffffffffffffffff16906020019091905050610681565b005b341561029c57600080fd5b6102a46107b3565b6040518082815260200191505060405180910390f35b34156102c557600080fd5b6102cd6107b9565b604051808273ffffffffffffffffffffffffffffffffffffffff1673ffffffffffffffffffffffffffffffffffffffff16815260200191505060405180910390f35b341561031a57600080fd5b610365600480803573ffffffffffffffffffffffffffffffffffffffff1690602001909190803573ffffffffffffffffffffffffffffffffffffffff169060200190919050506107de565b005b341561037257600080fd5b61038860048080359060200190919050506109fd565b604051808381526020018273ffffffffffffffffffffffffffffffffffffffff1673ffffffffffffffffffffffffffffffffffffffff1681526020019250505060405180910390f35b34156103dc57600080fd5b6103e4610acf565b6040518082815260200191505060405180910390f35b341561040557600080fd5b610431600480803573ffffffffffffffffffffffffffffffffffffffff16906020019091905050610b75565b005b341561043e57600080fd5b61046a600480803573ffffffffffffffffffffffffffffffffffffffff16906020019091905050610cca565b005b60038181548110151561047b57fe5b90600052602060002090600202016000915090508060000154908060010154905082565b6000809054906101000a900473ffffffffffffffffffffffffffffffffffffffff1673ffffffffffffffffffffffffffffffffffffffff163373ffffffffffffffffffffffffffffffffffffffff161415156104fa57600080fd5b8060028190555050565b6000809054906101000a900473ffffffffffffffffffffffffffffffffffffffff1673ffffffffffffffffffffffffffffffffffffffff163373ffffffffffffffffffffffffffffffffffffffff1614806105ac5750600760009054906101000a900473ffffffffffffffffffffffffffffffffffffffff1673ffffffffffffffffffffffffffffffffffffffff163373ffffffffffffffffffffffffffffffffffffffff16145b15156105b757600080fd5b80600760006101000a81548173ffffffffffffffffffffffffffffffffffffffff021916908373ffffffffffffffffffffffffffffffffffffffff16021790555050565b60018181548110151561060a57fe5b90600052602060002090600202016000915090508060000160009054906101000a900473ffffffffffffffffffffffffffffffffffffffff16908060010160009054906101000a900473ffffffffffffffffffffffffffffffffffffffff16908060010160149054906101000a900460ff16905083565b60008060009054906101000a900473ffffffffffffffffffffffffffffffffffffffff1673ffffffffffffffffffffffffffffffffffffffff163373ffffffffffffffffffffffffffffffffffffffff161415156106de57600080fd5b600090505b6001805490508110156107ae576001818154811015156106ff57fe5b906000526020600020906002020160000160009054906101000a900473ffffffffffffffffffffffffffffffffffffffff1673ffffffffffffffffffffffffffffffffffffffff168273ffffffffffffffffffffffffffffffffffffffff1614156107a1576001808281548110151561077457fe5b906000526020600020906002020160010160146101000a81548160ff0219169083151502179055506107af565b80806001019150506106e3565b5b5050565b60025481565b6000809054906101000a900473ffffffffffffffffffffffffffffffffffffffff1681565b60008060009054906101000a900473ffffffffffffffffffffffffffffffffffffffff1673ffffffffffffffffffffffffffffffffffffffff163373ffffffffffffffffffffffffffffffffffffffff1614151561083b57600080fd5b600090505b6001805490508110156108d35760018181548110151561085c57fe5b906000526020600020906002020160000160009054906101000a900473ffffffffffffffffffffffffffffffffffffffff1673ffffffffffffffffffffffffffffffffffffffff168373ffffffffffffffffffffffffffffffffffffffff1614156108c657600080fd5b8080600101915050610840565b600180548060010182816108e79190610ecb565b916000526020600020906002020160006060604051908101604052808773ffffffffffffffffffffffffffffffffffffffff1681526020018673ffffffffffffffffffffffffffffffffffffffff16815260200160001515815250909190915060008201518160000160006101000a81548173ffffffffffffffffffffffffffffffffffffffff021916908373ffffffffffffffffffffffffffffffffffffffff16021790555060208201518160010160006101000a81548173ffffffffffffffffffffffffffffffffffffffff021916908373ffffffffffffffffffffffffffffffffffffffff16021790555060408201518160010160146101000a81548160ff021916908315150217905550505050505050565b60008060008390505b600180549050811015610a9f57600181815481101515610a2257fe5b906000526020600020906002020160010160009054906101000a900473ffffffffffffffffffffffffffffffffffffffff1673ffffffffffffffffffffffffffffffffffffffff163373ffffffffffffffffffffffffffffffffffffffff161415610a9257808292509250610ac9565b8080600101915050610a06565b7fffffffffffffffffffffffffffffffffffffffffffffffffffffffffffffffff82819150925092505b50915091565b600080600090505b600180549050811015610b6e57600181815481101515610af357fe5b906000526020600020906002020160010160009054906101000a900473ffffffffffffffffffffffffffffffffffffffff1673ffffffffffffffffffffffffffffffffffffffff163373ffffffffffffffffffffffffffffffffffffffff161415610b615781806001019250505b8080600101915050610ad7565b8191505090565b6000809054906101000a900473ffffffffffffffffffffffffffffffffffffffff1673ffffffffffffffffffffffffffffffffffffffff163373ffffffffffffffffffffffffffffffffffffffff16141515610bd057600080fd5b600073ffffffffffffffffffffffffffffffffffffffff168173ffffffffffffffffffffffffffffffffffffffff1614151515610c0c57600080fd5b8073ffffffffffffffffffffffffffffffffffffffff166000809054906101000a900473ffffffffffffffffffffffffffffffffffffffff1673ffffffffffffffffffffffffffffffffffffffff167f8be0079c531659141344cd1fd0a4f28419497f9722a3daafe3b4186f6b6457e060405160405180910390a3806000806101000a81548173ffffffffffffffffffffffffffffffffffffffff021916908373ffffffffffffffffffffffffffffffffffffffff16021790555050565b60008060009054906101000a900473ffffffffffffffffffffffffffffffffffffffff1673ffffffffffffffffffffffffffffffffffffffff163373ffffffffffffffffffffffffffffffffffffffff161480610d745750600760009054906101000a900473ffffffffffffffffffffffffffffffffffffffff1673ffffffffffffffffffffffffffffffffffffffff163373ffffffffffffffffffffffffffffffffffffffff16145b1515610d7f57600080fd5b600090505b600180549050811015610ec657600181815481101515610da057fe5b906000526020600020906002020160000160009054906101000a900473ffffffffffffffffffffffffffffffffffffffff1673ffffffffffffffffffffffffffffffffffffffff168273ffffffffffffffffffffffffffffffffffffffff161415610eb9578173ffffffffffffffffffffffffffffffffffffffff166386da88656040518163ffffffff167c0100000000000000000000000000000000000000000000000000000000028152600401600060405180830381600087803b1515610e6857600080fd5b6102c65a03f11515610e7957600080fd5b50505060018082815481101515610e8c57fe5b906000526020600020906002020160010160146101000a81548160ff021916908315150217905550610ec7565b8080600101915050610d84565b5b5050565b815481835581811511610ef857600202816002028360005260206000209182019101610ef79190610efd565b5b505050565b610f7b91905b80821115610f7757600080820160006101000a81549073ffffffffffffffffffffffffffffffffffffffff02191690556001820160006101000a81549073ffffffffffffffffffffffffffffffffffffffff02191690556001820160146101000a81549060ff021916905550600201610f03565b5090565b905600a165627a7a72305820ed4aa7a516b855f75e6855adfaf8309487bcb9d4ad478b60e6f1cfb1f6dfcb8f0029",
  "source": "pragma solidity ^0.4.11;\r\nimport \"zeppelin-solidity/contracts/ownership/Ownable.sol\";\r\nimport \"./Work.sol\";\r\n\r\n\r\ncontract Employee is Ownable {\r\n\r\n    struct EmployeeWork {\r\n        address work;\r\n        address company;\r\n        bool isFinish;\r\n    }\r\n\r\n    struct Skill {\r\n        uint skillCode;\r\n        uint rating;\r\n    }\r\n\r\n    EmployeeWork[] public workHistory;\r\n    uint public rating;\r\n    Skill[] public skills;\r\n\r\n    string private firstName;\r\n    string private lastName;\r\n    string private email;\r\n    address private employeeAddress;\r\n\r\n    modifier onlyOwnerOrEmployee() {\r\n        require(msg.sender == owner || msg.sender == employeeAddress);\r\n        _;\r\n    }\r\n\r\n    function Employee(string _firstName, string _lastName, string _email, address _employee) public {\r\n        firstName = _firstName;\r\n        lastName = _lastName;\r\n        email = _email;\r\n        employeeAddress = _employee;\r\n    }\r\n\r\n    function () public payable {\r\n        owner.transfer(msg.value);\r\n    }\r\n\r\n    function getSenderWorkCount() public view returns (uint result) {\r\n        for (uint i = 0; i < workHistory.length; i++) {\r\n            if (msg.sender == address(workHistory[i].company))\r\n                result++;\r\n        }\r\n        return result;\r\n    }\r\n\r\n    function getFirstWorkFrom(uint from) public view returns (int, address company) {\r\n\r\n        for (uint i = from; i < workHistory.length; i++) {\r\n            if (msg.sender == address(workHistory[i].company))\r\n                return (int(i), company);\r\n        }\r\n        return (-1, company);\r\n    }\r\n\r\n    function addWork(address work, address company) public onlyOwner {\r\n        for (uint i = 0; i < workHistory.length; i++) {\r\n            if (work == workHistory[i].work) {\r\n                revert();\r\n            }\r\n        }\r\n        workHistory.push(EmployeeWork(work, company, false));\r\n    }\r\n\r\n    function finishWork(address work) public onlyOwner {\r\n        for (uint i = 0; i < workHistory.length; i++) {\r\n            if (work == workHistory[i].work) {\r\n                workHistory[i].isFinish = true;\r\n                return;\r\n            }\r\n        }\r\n    }\r\n\r\n    function changeEmployeeAddress(address _employeeAddress) public onlyOwnerOrEmployee {\r\n        employeeAddress = _employeeAddress;\r\n    }\r\n\r\n    function changeRaiting(uint newRaiting) public onlyOwner {\r\n        rating = newRaiting;\r\n    }\r\n\r\n    function dispute(Work work) public onlyOwnerOrEmployee {\r\n        for (uint i = 0; i < workHistory.length; i++) {\r\n            if (address(work) == workHistory[i].work) {\r\n                work.disputeStatusOn();\r\n                workHistory[i].isFinish = true;\r\n                return;\r\n            }\r\n        }\r\n    }\r\n}\r\n",
  "sourcePath": "D:\\node_projects\\smart\\smart_contract_example\\contracts\\Employee.sol",
  "compiler": {
    "name": "solc",
    "version": "0.4.19+commit.c4cbbb05.Emscripten.clang"
  },
  "schemaVersion": "1.0.1",
  "updatedAt": "2018-02-25T10:41:20.051Z"
}