{
  "contractName": "Main",
  "abi": [
    {
      "constant": true,
      "inputs": [
        {
          "name": "",
          "type": "uint256"
        }
      ],
      "name": "companies",
      "outputs": [
        {
          "name": "",
          "type": "address"
        }
      ],
      "payable": false,
      "stateMutability": "view",
      "type": "function"
    },
    {
      "constant": true,
      "inputs": [
        {
          "name": "",
          "type": "uint256"
        }
      ],
      "name": "employees",
      "outputs": [
        {
          "name": "",
          "type": "address"
        }
      ],
      "payable": false,
      "stateMutability": "view",
      "type": "function"
    },
    {
      "constant": true,
      "inputs": [
        {
          "name": "",
          "type": "uint256"
        }
      ],
      "name": "contracts",
      "outputs": [
        {
          "name": "",
          "type": "address"
        }
      ],
      "payable": false,
      "stateMutability": "view",
      "type": "function"
    },
    {
      "constant": true,
      "inputs": [],
      "name": "specializations",
      "outputs": [
        {
          "name": "",
          "type": "address"
        }
      ],
      "payable": false,
      "stateMutability": "view",
      "type": "function"
    },
    {
      "constant": true,
      "inputs": [],
      "name": "owner",
      "outputs": [
        {
          "name": "",
          "type": "address"
        }
      ],
      "payable": false,
      "stateMutability": "view",
      "type": "function"
    },
    {
      "constant": false,
      "inputs": [
        {
          "name": "newOwner",
          "type": "address"
        }
      ],
      "name": "transferOwnership",
      "outputs": [],
      "payable": false,
      "stateMutability": "nonpayable",
      "type": "function"
    },
    {
      "inputs": [],
      "payable": true,
      "stateMutability": "payable",
      "type": "constructor"
    },
    {
      "payable": true,
      "stateMutability": "payable",
      "type": "fallback"
    },
    {
      "anonymous": false,
      "inputs": [
        {
          "indexed": true,
          "name": "previousOwner",
          "type": "address"
        },
        {
          "indexed": true,
          "name": "newOwner",
          "type": "address"
        }
      ],
      "name": "OwnershipTransferred",
      "type": "event"
    },
    {
      "constant": false,
      "inputs": [
        {
          "name": "_firstName",
          "type": "string"
        },
        {
          "name": "_lastName",
          "type": "string"
        },
        {
          "name": "_email",
          "type": "string"
        },
        {
          "name": "_address",
          "type": "address"
        }
      ],
      "name": "newEmployee",
      "outputs": [],
      "payable": false,
      "stateMutability": "nonpayable",
      "type": "function"
    },
    {
      "constant": false,
      "inputs": [
        {
          "name": "_name",
          "type": "string"
        },
        {
          "name": "_rating",
          "type": "uint256"
        },
        {
          "name": "_address",
          "type": "address"
        }
      ],
      "name": "newCompany",
      "outputs": [],
      "payable": false,
      "stateMutability": "nonpayable",
      "type": "function"
    },
    {
      "constant": false,
      "inputs": [
        {
          "name": "_skillCodes",
          "type": "uint256[]"
        },
        {
          "name": "_skillToPosition",
          "type": "uint256[]"
        },
        {
          "name": "_startDate",
          "type": "uint256"
        },
        {
          "name": "_endDate",
          "type": "uint256"
        },
        {
          "name": "_empoloyee",
          "type": "address"
        },
        {
          "name": "_company",
          "type": "address"
        },
        {
          "name": "_weekPayment",
          "type": "uint256"
        }
      ],
      "name": "newContract",
      "outputs": [],
      "payable": false,
      "stateMutability": "nonpayable",
      "type": "function"
    },
    {
      "constant": true,
      "inputs": [],
      "name": "getAccountSizes",
      "outputs": [
        {
          "name": "",
          "type": "uint256"
        },
        {
          "name": "",
          "type": "uint256"
        },
        {
          "name": "",
          "type": "uint256"
        }
      ],
      "payable": false,
      "stateMutability": "view",
      "type": "function"
    },
    {
      "constant": false,
      "inputs": [
        {
          "name": "_specializations",
          "type": "address"
        }
      ],
      "name": "setSpecializations",
      "outputs": [],
      "payable": false,
      "stateMutability": "nonpayable",
      "type": "function"
    },
    {
      "constant": false,
      "inputs": [],
      "name": "kill",
      "outputs": [],
      "payable": false,
      "stateMutability": "nonpayable",
      "type": "function"
    }
  ],
  "bytecode": "0x6060604052336000806101000a81548173ffffffffffffffffffffffffffffffffffffffff021916908373ffffffffffffffffffffffffffffffffffffffff1602179055506143b4806100536000396000f300606060405260043610620000c7576000357c0100000000000000000000000000000000000000000000000000000000900463ffffffff16806311ef1ff914620000c95780632813d19d14620001ce57806341c0e1b514620002345780634739326b146200024c578063474da79a14620002b25780634afe232414620003185780636050da10146200040e5780636a684b00146200044857806381ae711f14620004a0578063824063bd14620004dc5780638da5cb5b1462000564578063f2fde38b14620005bc575b005b3415620000d557600080fd5b620001cc600480803590602001908201803590602001908080601f0160208091040260200160405190810160405280939291908181526020018383808284378201915050505050509190803590602001908201803590602001908080601f0160208091040260200160405190810160405280939291908181526020018383808284378201915050505050509190803590602001908201803590602001908080601f0160208091040260200160405190810160405280939291908181526020018383808284378201915050505050509190803573ffffffffffffffffffffffffffffffffffffffff16906020019091905050620005f8565b005b3415620001da57600080fd5b620001f260048080359060200190919050506200086c565b604051808273ffffffffffffffffffffffffffffffffffffffff1673ffffffffffffffffffffffffffffffffffffffff16815260200191505060405180910390f35b34156200024057600080fd5b6200024a620008ac565b005b34156200025857600080fd5b620002706004808035906020019091905050620008e6565b604051808273ffffffffffffffffffffffffffffffffffffffff1673ffffffffffffffffffffffffffffffffffffffff16815260200191505060405180910390f35b3415620002be57600080fd5b620002d6600480803590602001909190505062000926565b604051808273ffffffffffffffffffffffffffffffffffffffff1673ffffffffffffffffffffffffffffffffffffffff16815260200191505060405180910390f35b34156200032457600080fd5b6200040c6004808035906020019082018035906020019080806020026020016040519081016040528093929190818152602001838360200280828437820191505050505050919080359060200190820180359060200190808060200260200160405190810160405280939291908181526020018383602002808284378201915050505050509190803590602001909190803590602001909190803573ffffffffffffffffffffffffffffffffffffffff1690602001909190803573ffffffffffffffffffffffffffffffffffffffff1690602001909190803590602001909190505062000966565b005b34156200041a57600080fd5b6200042462000b6f565b60405180848152602001838152602001828152602001935050505060405180910390f35b34156200045457600080fd5b6200045e62000b91565b604051808273ffffffffffffffffffffffffffffffffffffffff1673ffffffffffffffffffffffffffffffffffffffff16815260200191505060405180910390f35b3415620004ac57600080fd5b620004da600480803573ffffffffffffffffffffffffffffffffffffffff1690602001909190505062000bb7565b005b3415620004e857600080fd5b62000562600480803590602001908201803590602001908080601f0160208091040260200160405190810160405280939291908181526020018383808284378201915050505050509190803590602001909190803573ffffffffffffffffffffffffffffffffffffffff1690602001909190505062000bfb565b005b34156200057057600080fd5b6200057a62000d96565b604051808273ffffffffffffffffffffffffffffffffffffffff1673ffffffffffffffffffffffffffffffffffffffff16815260200191505060405180910390f35b3415620005c857600080fd5b620005f6600480803573ffffffffffffffffffffffffffffffffffffffff1690602001909190505062000dbb565b005b60008060009054906101000a900473ffffffffffffffffffffffffffffffffffffffff1673ffffffffffffffffffffffffffffffffffffffff163373ffffffffffffffffffffffffffffffffffffffff161415156200065657600080fd5b848484846200066462000f12565b808060200180602001806020018573ffffffffffffffffffffffffffffffffffffffff1673ffffffffffffffffffffffffffffffffffffffff168152602001848103845288818151815260200191508051906020019080838360005b83811015620006dd578082015181840152602081019050620006c0565b50505050905090810190601f1680156200070b5780820380516001836020036101000a031916815260200191505b50848103835287818151815260200191508051906020019080838360005b838110156200074657808201518184015260208101905062000729565b50505050905090810190601f168015620007745780820380516001836020036101000a031916815260200191505b50848103825286818151815260200191508051906020019080838360005b83811015620007af57808201518184015260208101905062000792565b50505050905090810190601f168015620007dd5780820380516001836020036101000a031916815260200191505b50975050505050505050604051809103906000f0801515620007fe57600080fd5b90506001805480600101828162000816919062000f23565b9160005260206000209001600083909190916101000a81548173ffffffffffffffffffffffffffffffffffffffff021916908373ffffffffffffffffffffffffffffffffffffffff160217905550505050505050565b6002818154811015156200087c57fe5b90600052602060002090016000915054906101000a900473ffffffffffffffffffffffffffffffffffffffff1681565b6000809054906101000a900473ffffffffffffffffffffffffffffffffffffffff1673ffffffffffffffffffffffffffffffffffffffff16ff5b600181815481101515620008f657fe5b90600052602060002090016000915054906101000a900473ffffffffffffffffffffffffffffffffffffffff1681565b6003818154811015156200093657fe5b90600052602060002090016000915054906101000a900473ffffffffffffffffffffffffffffffffffffffff1681565b60008060009054906101000a900473ffffffffffffffffffffffffffffffffffffffff1673ffffffffffffffffffffffffffffffffffffffff163373ffffffffffffffffffffffffffffffffffffffff16141515620009c457600080fd5b87878787878787620009d562000f52565b8080602001806020018881526020018781526020018673ffffffffffffffffffffffffffffffffffffffff1673ffffffffffffffffffffffffffffffffffffffff1681526020018573ffffffffffffffffffffffffffffffffffffffff1673ffffffffffffffffffffffffffffffffffffffff16815260200184815260200183810383528a818151815260200191508051906020019060200280838360005b8381101562000a9157808201518184015260208101905062000a74565b50505050905001838103825289818151815260200191508051906020019060200280838360005b8381101562000ad557808201518184015260208101905062000ab8565b505050509050019950505050505050505050604051809103906000f080151562000afe57600080fd5b90506003805480600101828162000b16919062000f63565b9160005260206000209001600083909190916101000a81548173ffffffffffffffffffffffffffffffffffffffff021916908373ffffffffffffffffffffffffffffffffffffffff160217905550505050505050505050565b6000806000600180549050600280549050600380549050925092509250909192565b600460009054906101000a900473ffffffffffffffffffffffffffffffffffffffff1681565b80600460006101000a81548173ffffffffffffffffffffffffffffffffffffffff021916908373ffffffffffffffffffffffffffffffffffffffff16021790555050565b60008060009054906101000a900473ffffffffffffffffffffffffffffffffffffffff1673ffffffffffffffffffffffffffffffffffffffff163373ffffffffffffffffffffffffffffffffffffffff1614151562000c5957600080fd5b83838362000c6662000f92565b80806020018481526020018373ffffffffffffffffffffffffffffffffffffffff1673ffffffffffffffffffffffffffffffffffffffff168152602001828103825285818151815260200191508051906020019080838360005b8381101562000cdd57808201518184015260208101905062000cc0565b50505050905090810190601f16801562000d0b5780820380516001836020036101000a031916815260200191505b50945050505050604051809103906000f080151562000d2957600080fd5b90506002805480600101828162000d41919062000fa3565b9160005260206000209001600083909190916101000a81548173ffffffffffffffffffffffffffffffffffffffff021916908373ffffffffffffffffffffffffffffffffffffffff1602179055505050505050565b6000809054906101000a900473ffffffffffffffffffffffffffffffffffffffff1681565b6000809054906101000a900473ffffffffffffffffffffffffffffffffffffffff1673ffffffffffffffffffffffffffffffffffffffff163373ffffffffffffffffffffffffffffffffffffffff1614151562000e1757600080fd5b600073ffffffffffffffffffffffffffffffffffffffff168173ffffffffffffffffffffffffffffffffffffffff161415151562000e5457600080fd5b8073ffffffffffffffffffffffffffffffffffffffff166000809054906101000a900473ffffffffffffffffffffffffffffffffffffffff1673ffffffffffffffffffffffffffffffffffffffff167f8be0079c531659141344cd1fd0a4f28419497f9722a3daafe3b4186f6b6457e060405160405180910390a3806000806101000a81548173ffffffffffffffffffffffffffffffffffffffff021916908373ffffffffffffffffffffffffffffffffffffffff16021790555050565b60405161163c8062000ffb83390190565b81548183558181151162000f4d5781836000526020600020918201910162000f4c919062000fd2565b5b505050565b6040516110ca806200263783390190565b81548183558181151162000f8d5781836000526020600020918201910162000f8c919062000fd2565b5b505050565b604051610c88806200370183390190565b81548183558181151162000fcd5781836000526020600020918201910162000fcc919062000fd2565b5b505050565b62000ff791905b8082111562000ff357600081600090555060010162000fd9565b5090565b905600606060405234156200001057600080fd5b6040516200163c3803806200163c83398101604052808051820191906020018051820191906020018051820191906020018051906020019091905050336000806101000a81548173ffffffffffffffffffffffffffffffffffffffff021916908373ffffffffffffffffffffffffffffffffffffffff1602179055508360069080519060200190620000a492919062000122565b508260079080519060200190620000bd92919062000122565b508160089080519060200190620000d692919062000122565b5080600960006101000a81548173ffffffffffffffffffffffffffffffffffffffff021916908373ffffffffffffffffffffffffffffffffffffffff16021790555050505050620001d1565b828054600181600116156101000203166002900490600052602060002090601f016020900481019282601f106200016557805160ff191683800117855562000196565b8280016001018555821562000196579182015b828111156200019557825182559160200191906001019062000178565b5b509050620001a59190620001a9565b5090565b620001ce91905b80821115620001ca576000816000905550600101620001b0565b5090565b90565b61145b80620001e16000396000f3006060604052600436106100d0576000357c0100000000000000000000000000000000000000000000000000000000900463ffffffff168063499435951461013357806350d15fbe1461016a578063637b825c146101a857806371205c6d146101cb5780637b31eaea1461026c57806380f474f6146102a55780638da5cb5b146102ce57806397f75df814610323578063a90968481461037b578063be701468146103b0578063c4b30a00146104ca578063df7a738a146104f3578063f2fde38b1461055d578063f75f9f7b14610596575b6000809054906101000a900473ffffffffffffffffffffffffffffffffffffffff1673ffffffffffffffffffffffffffffffffffffffff166108fc349081150290604051600060405180830381858888f19350505050151561013157600080fd5b005b341561013e57600080fd5b61015460048080359060200190919050506105cf565b6040518082815260200191505060405180910390f35b341561017557600080fd5b61018b60048080359060200190919050506105f3565b604051808381526020018281526020019250505060405180910390f35b34156101b357600080fd5b6101c96004808035906020019091905050610626565b005b34156101d657600080fd5b6101ec600480803590602001909190505061068b565b604051808473ffffffffffffffffffffffffffffffffffffffff1673ffffffffffffffffffffffffffffffffffffffff1681526020018373ffffffffffffffffffffffffffffffffffffffff1673ffffffffffffffffffffffffffffffffffffffff16815260200182151515158152602001935050505060405180910390f35b341561027757600080fd5b6102a3600480803573ffffffffffffffffffffffffffffffffffffffff16906020019091905050610711565b005b34156102b057600080fd5b6102b8610843565b6040518082815260200191505060405180910390f35b34156102d957600080fd5b6102e1610849565b604051808273ffffffffffffffffffffffffffffffffffffffff1673ffffffffffffffffffffffffffffffffffffffff16815260200191505060405180910390f35b341561032e57600080fd5b610379600480803573ffffffffffffffffffffffffffffffffffffffff1690602001909190803573ffffffffffffffffffffffffffffffffffffffff1690602001909190505061086e565b005b341561038657600080fd5b6103ae6004808035906020019091908035906020019091908035906020019091905050610a8d565b005b34156103bb57600080fd5b6104c8600480803590602001908201803590602001908080602002602001604051908101604052809392919081815260200183836020028082843782019150505050505091908035906020019082018035906020019080806020026020016040519081016040528093929190818152602001838360200280828437820191505050505050919080359060200190820180359060200190808060200260200160405190810160405280939291908181526020018383602002808284378201915050505050509190803590602001908201803590602001908080602002602001604051908101604052809392919081815260200183836020028082843782019150505050505091905050610ba5565b005b34156104d557600080fd5b6104dd610d6f565b6040518082815260200191505060405180910390f35b34156104fe57600080fd5b6105146004808035906020019091905050610e15565b604051808381526020018273ffffffffffffffffffffffffffffffffffffffff1673ffffffffffffffffffffffffffffffffffffffff1681526020019250505060405180910390f35b341561056857600080fd5b610594600480803573ffffffffffffffffffffffffffffffffffffffff16906020019091905050610ee7565b005b34156105a157600080fd5b6105cd600480803573ffffffffffffffffffffffffffffffffffffffff1690602001909190505061103c565b005b6003818154811015156105de57fe5b90600052602060002090016000915090505481565b60048181548110151561060257fe5b90600052602060002090600202016000915090508060000154908060010154905082565b6000809054906101000a900473ffffffffffffffffffffffffffffffffffffffff1673ffffffffffffffffffffffffffffffffffffffff163373ffffffffffffffffffffffffffffffffffffffff1614151561068157600080fd5b8060028190555050565b60018181548110151561069a57fe5b90600052602060002090600202016000915090508060000160009054906101000a900473ffffffffffffffffffffffffffffffffffffffff16908060010160009054906101000a900473ffffffffffffffffffffffffffffffffffffffff16908060010160149054906101000a900460ff16905083565b60008060009054906101000a900473ffffffffffffffffffffffffffffffffffffffff1673ffffffffffffffffffffffffffffffffffffffff163373ffffffffffffffffffffffffffffffffffffffff1614151561076e57600080fd5b600090505b60018054905081101561083e5760018181548110151561078f57fe5b906000526020600020906002020160000160009054906101000a900473ffffffffffffffffffffffffffffffffffffffff1673ffffffffffffffffffffffffffffffffffffffff168273ffffffffffffffffffffffffffffffffffffffff161415610831576001808281548110151561080457fe5b906000526020600020906002020160010160146101000a81548160ff02191690831515021790555061083f565b8080600101915050610773565b5b5050565b60025481565b6000809054906101000a900473ffffffffffffffffffffffffffffffffffffffff1681565b60008060009054906101000a900473ffffffffffffffffffffffffffffffffffffffff1673ffffffffffffffffffffffffffffffffffffffff163373ffffffffffffffffffffffffffffffffffffffff161415156108cb57600080fd5b600090505b600180549050811015610963576001818154811015156108ec57fe5b906000526020600020906002020160000160009054906101000a900473ffffffffffffffffffffffffffffffffffffffff1673ffffffffffffffffffffffffffffffffffffffff168373ffffffffffffffffffffffffffffffffffffffff16141561095657600080fd5b80806001019150506108d0565b60018054806001018281610977919061127d565b916000526020600020906002020160006060604051908101604052808773ffffffffffffffffffffffffffffffffffffffff1681526020018673ffffffffffffffffffffffffffffffffffffffff16815260200160001515815250909190915060008201518160000160006101000a81548173ffffffffffffffffffffffffffffffffffffffff021916908373ffffffffffffffffffffffffffffffffffffffff16021790555060208201518160010160006101000a81548173ffffffffffffffffffffffffffffffffffffffff021916908373ffffffffffffffffffffffffffffffffffffffff16021790555060408201518160010160146101000a81548160ff021916908315150217905550505050505050565b6000809054906101000a900473ffffffffffffffffffffffffffffffffffffffff1673ffffffffffffffffffffffffffffffffffffffff163373ffffffffffffffffffffffffffffffffffffffff16141515610ae857600080fd5b600560008381526020019081526020016000208054806001018281610b0d91906112af565b91600052602060002090016000859091909150555060038054806001018281610b3691906112af565b91600052602060002090016000859091909150555060048054806001018281610b5f91906112db565b9160005260206000209060020201600060408051908101604052808681526020018581525090919091506000820151816000015560208201518160010155505050505050565b6000806000809054906101000a900473ffffffffffffffffffffffffffffffffffffffff1673ffffffffffffffffffffffffffffffffffffffff163373ffffffffffffffffffffffffffffffffffffffff16141515610c0357600080fd5b600090505b8451811015610cbd5760048054806001018281610c2591906112db565b9160005260206000209060020201600060408051908101604052808986815181101515610c4e57fe5b9060200190602002015181526020018886815181101515610c6b57fe5b90602001906020020151815250909190915060008201518160000155602082015181600101555050508381815181101515610ca257fe5b90602001906020020151820191508080600101915050610c08565b816002819055508560039080519060200190610cda92919061130d565b50600090505b8251811015610d675760056000600483815481101515610cfc57fe5b90600052602060002090600202016000015481526020019081526020016000208054806001018281610d2e91906112af565b916000526020600020900160008584815181101515610d4957fe5b90602001906020020151909190915055508080600101915050610ce0565b505050505050565b600080600090505b600180549050811015610e0e57600181815481101515610d9357fe5b906000526020600020906002020160010160009054906101000a900473ffffffffffffffffffffffffffffffffffffffff1673ffffffffffffffffffffffffffffffffffffffff163373ffffffffffffffffffffffffffffffffffffffff161415610e015781806001019250505b8080600101915050610d77565b8191505090565b60008060008390505b600180549050811015610eb757600181815481101515610e3a57fe5b906000526020600020906002020160010160009054906101000a900473ffffffffffffffffffffffffffffffffffffffff1673ffffffffffffffffffffffffffffffffffffffff163373ffffffffffffffffffffffffffffffffffffffff161415610eaa57808292509250610ee1565b8080600101915050610e1e565b7fffffffffffffffffffffffffffffffffffffffffffffffffffffffffffffffff82819150925092505b50915091565b6000809054906101000a900473ffffffffffffffffffffffffffffffffffffffff1673ffffffffffffffffffffffffffffffffffffffff163373ffffffffffffffffffffffffffffffffffffffff16141515610f4257600080fd5b600073ffffffffffffffffffffffffffffffffffffffff168173ffffffffffffffffffffffffffffffffffffffff1614151515610f7e57600080fd5b8073ffffffffffffffffffffffffffffffffffffffff166000809054906101000a900473ffffffffffffffffffffffffffffffffffffffff1673ffffffffffffffffffffffffffffffffffffffff167f8be0079c531659141344cd1fd0a4f28419497f9722a3daafe3b4186f6b6457e060405160405180910390a3806000806101000a81548173ffffffffffffffffffffffffffffffffffffffff021916908373ffffffffffffffffffffffffffffffffffffffff16021790555050565b60008060009054906101000a900473ffffffffffffffffffffffffffffffffffffffff1673ffffffffffffffffffffffffffffffffffffffff163373ffffffffffffffffffffffffffffffffffffffff1614806110e65750600960009054906101000a900473ffffffffffffffffffffffffffffffffffffffff1673ffffffffffffffffffffffffffffffffffffffff163373ffffffffffffffffffffffffffffffffffffffff16145b15156110f157600080fd5b600090505b6001805490508110156112785760018181548110151561111257fe5b906000526020600020906002020160000160009054906101000a900473ffffffffffffffffffffffffffffffffffffffff1673ffffffffffffffffffffffffffffffffffffffff168273ffffffffffffffffffffffffffffffffffffffff16141561126b5760018181548110151561118657fe5b906000526020600020906002020160000160009054906101000a900473ffffffffffffffffffffffffffffffffffffffff1673ffffffffffffffffffffffffffffffffffffffff166386da88656040518163ffffffff167c0100000000000000000000000000000000000000000000000000000000028152600401600060405180830381600087803b151561121a57600080fd5b6102c65a03f1151561122b57600080fd5b5050506001808281548110151561123e57fe5b906000526020600020906002020160010160146101000a81548160ff021916908315150217905550611279565b80806001019150506110f6565b5b5050565b8154818355818115116112aa576002028160020283600052602060002091820191016112a9919061135a565b5b505050565b8154818355818115116112d6578183600052602060002091820191016112d591906113db565b5b505050565b815481835581811511611308576002028160020283600052602060002091820191016113079190611400565b5b505050565b828054828255906000526020600020908101928215611349579160200282015b8281111561134857825182559160200191906001019061132d565b5b50905061135691906113db565b5090565b6113d891905b808211156113d457600080820160006101000a81549073ffffffffffffffffffffffffffffffffffffffff02191690556001820160006101000a81549073ffffffffffffffffffffffffffffffffffffffff02191690556001820160146101000a81549060ff021916905550600201611360565b5090565b90565b6113fd91905b808211156113f95760008160009055506001016113e1565b5090565b90565b61142c91905b8082111561142857600080820160009055600182016000905550600201611406565b5090565b905600a165627a7a72305820cadef0b9b109edae9d3a929255b26a4b58455581c730b82eeb82c4f0d786d5b7002960606040526040516110ca3803806110ca83398101604052808051820191906020018051820191906020018051906020019091908051906020019091908051906020019091908051906020019091908051906020019091905050336000806101000a81548173ffffffffffffffffffffffffffffffffffffffff021916908373ffffffffffffffffffffffffffffffffffffffff1602179055504285101515156100a857600080fd5b84841115156100b657600080fd5b6000600860146101000a81548160ff02191690831515021790555033600860006101000a81548173ffffffffffffffffffffffffffffffffffffffff021916908373ffffffffffffffffffffffffffffffffffffffff16021790555080600781905550866001908051906020019061012f92919061020a565b50856002908051906020019061014692919061020a565b50846003819055508360048190555082600560006101000a81548173ffffffffffffffffffffffffffffffffffffffff021916908373ffffffffffffffffffffffffffffffffffffffff16021790555081600660006101000a81548173ffffffffffffffffffffffffffffffffffffffff021916908373ffffffffffffffffffffffffffffffffffffffff1602179055507fffffffffffffffffffffffffffffffffffffffffffffffffffffffffffffff9c6009819055505050505050505061027c565b828054828255906000526020600020908101928215610246579160200282015b8281111561024557825182559160200191906001019061022a565b5b5090506102539190610257565b5090565b61027991905b8082111561027557600081600090555060010161025d565b5090565b90565b610e3f8061028b6000396000f3006060604052600436106100af576000357c0100000000000000000000000000000000000000000000000000000000900463ffffffff16806355593dc514610113578063609bb7941461011d57806386da88651461012757806387f7f37f1461013c5780638da5cb5b146102ae578063a50ec32614610303578063be9a65551461030d578063c032846b14610317578063c6a40af414610340578063d56b288914610379578063f2fde38b1461038e575b600860009054906101000a900473ffffffffffffffffffffffffffffffffffffffff1673ffffffffffffffffffffffffffffffffffffffff166108fc349081150290604051600060405180830381858888f19350505050151561011157600080fd5b005b61011b6103c7565b005b610125610430565b005b341561013257600080fd5b61013a61066e565b005b341561014757600080fd5b61014f61073f565b6040518080602001806020018b81526020018a81526020018973ffffffffffffffffffffffffffffffffffffffff1673ffffffffffffffffffffffffffffffffffffffff1681526020018873ffffffffffffffffffffffffffffffffffffffff1673ffffffffffffffffffffffffffffffffffffffff1681526020018781526020018673ffffffffffffffffffffffffffffffffffffffff1673ffffffffffffffffffffffffffffffffffffffff1681526020018515151515815260200184815260200183810383528d818151815260200191508051906020019060200280838360005b8381101561024e578082015181840152602081019050610233565b5050505090500183810382528c818151815260200191508051906020019060200280838360005b83811015610290578082015181840152602081019050610275565b505050509050019c5050505050505050505050505060405180910390f35b34156102b957600080fd5b6102c16108a8565b604051808273ffffffffffffffffffffffffffffffffffffffff1673ffffffffffffffffffffffffffffffffffffffff16815260200191505060405180910390f35b61030b6108cd565b005b610315610900565b005b341561032257600080fd5b61032a610a0d565b6040518082815260200191505060405180910390f35b341561034b57600080fd5b610377600480803573ffffffffffffffffffffffffffffffffffffffff16906020019091905050610a17565b005b341561038457600080fd5b61038c610c26565b005b341561039957600080fd5b6103c5600480803573ffffffffffffffffffffffffffffffffffffffff16906020019091905050610caa565b005b600754341115156103d757600080fd5b7fffffffffffffffffffffffffffffffffffffffffffffffffffffffffffffffff60095414151561040757600080fd5b60076201518080600354420381151561041c57fe5b040181151561042757fe5b06600981905550565b6000600860009054906101000a900473ffffffffffffffffffffffffffffffffffffffff1673ffffffffffffffffffffffffffffffffffffffff163373ffffffffffffffffffffffffffffffffffffffff1614806104db5750600660009054906101000a900473ffffffffffffffffffffffffffffffffffffffff1673ffffffffffffffffffffffffffffffffffffffff163373ffffffffffffffffffffffffffffffffffffffff16145b15156104e657600080fd5b6000600954121515156104f857600080fd5b62015180600760095460035442030181151561051057fe5b0610151561051d57600080fd5b600860149054906101000a900460ff1615151561053957600080fd5b6007543073ffffffffffffffffffffffffffffffffffffffff163110156105a9577fffffffffffffffffffffffffffffffffffffffffffffffffffffffffffffffff6009819055507fffffffffffffffffffffffffffffffffffffffffffffffffffffffffffffffff9050610634565b600560009054906101000a900473ffffffffffffffffffffffffffffffffffffffff1673ffffffffffffffffffffffffffffffffffffffff166108fc6007549081150290604051600060405180830381858888f19350505050151561060d57600080fd5b6007543073ffffffffffffffffffffffffffffffffffffffff1631101561063357600190505b5b7f7c7c3b4bb364dd81f16a3ca5653cb81414bcc0966ccd8b47ab6658e2eab9c33d816040518082815260200191505060405180910390a150565b600860009054906101000a900473ffffffffffffffffffffffffffffffffffffffff1673ffffffffffffffffffffffffffffffffffffffff163373ffffffffffffffffffffffffffffffffffffffff1614806107175750600560009054906101000a900473ffffffffffffffffffffffffffffffffffffffff1673ffffffffffffffffffffffffffffffffffffffff163373ffffffffffffffffffffffffffffffffffffffff16145b151561072257600080fd5b6001600860146101000a81548160ff021916908315150217905550565b610747610dff565b61074f610dff565b60008060008060008060008060016002600354600454600560009054906101000a900473ffffffffffffffffffffffffffffffffffffffff16600660009054906101000a900473ffffffffffffffffffffffffffffffffffffffff16600754600860009054906101000a900473ffffffffffffffffffffffffffffffffffffffff16600860149054906101000a900460ff166009548980548060200260200160405190810160405280929190818152602001828054801561082f57602002820191906000526020600020905b81548152602001906001019080831161081b575b505050505099508880548060200260200160405190810160405280929190818152602001828054801561088157602002820191906000526020600020905b81548152602001906001019080831161086d575b50505050509850995099509950995099509950995099509950995090919293949596979899565b6000809054906101000a900473ffffffffffffffffffffffffffffffffffffffff1681565b7fffffffffffffffffffffffffffffffffffffffffffffffffffffffffffffffff600954121515156108fe57600080fd5b565b600860009054906101000a900473ffffffffffffffffffffffffffffffffffffffff1673ffffffffffffffffffffffffffffffffffffffff163373ffffffffffffffffffffffffffffffffffffffff1614806109a95750600660009054906101000a900473ffffffffffffffffffffffffffffffffffffffff1673ffffffffffffffffffffffffffffffffffffffff163373ffffffffffffffffffffffffffffffffffffffff16145b15156109b457600080fd5b7fffffffffffffffffffffffffffffffffffffffffffffffffffffffffffffff9c6009541415156109e457600080fd5b6007620151808060035442038115156109f957fe5b0401811515610a0457fe5b06600981905550565b6000600954905090565b6000809054906101000a900473ffffffffffffffffffffffffffffffffffffffff1673ffffffffffffffffffffffffffffffffffffffff163373ffffffffffffffffffffffffffffffffffffffff16141515610a7257600080fd5b600560009054906101000a900473ffffffffffffffffffffffffffffffffffffffff1673ffffffffffffffffffffffffffffffffffffffff168173ffffffffffffffffffffffffffffffffffffffff161480610b1b5750600660009054906101000a900473ffffffffffffffffffffffffffffffffffffffff1673ffffffffffffffffffffffffffffffffffffffff168173ffffffffffffffffffffffffffffffffffffffff16145b1515610b2657600080fd5b600860149054906101000a900460ff161515610b4157600080fd5b7ffffffffffffffffffffffffffffffffffffffffffffffffffffffffffffffe0c600981905550600560009054906101000a900473ffffffffffffffffffffffffffffffffffffffff1673ffffffffffffffffffffffffffffffffffffffff168173ffffffffffffffffffffffffffffffffffffffff161415610c2357600560009054906101000a900473ffffffffffffffffffffffffffffffffffffffff1673ffffffffffffffffffffffffffffffffffffffff166108fc6007549081150290604051600060405180830381858888f193505050501515610c2257600080fd5b5b50565b6000809054906101000a900473ffffffffffffffffffffffffffffffffffffffff1673ffffffffffffffffffffffffffffffffffffffff163373ffffffffffffffffffffffffffffffffffffffff16141515610c8157600080fd5b7fffffffffffffffffffffffffffffffffffffffffffffffffffffffffffffff38600981905550565b6000809054906101000a900473ffffffffffffffffffffffffffffffffffffffff1673ffffffffffffffffffffffffffffffffffffffff163373ffffffffffffffffffffffffffffffffffffffff16141515610d0557600080fd5b600073ffffffffffffffffffffffffffffffffffffffff168173ffffffffffffffffffffffffffffffffffffffff1614151515610d4157600080fd5b8073ffffffffffffffffffffffffffffffffffffffff166000809054906101000a900473ffffffffffffffffffffffffffffffffffffffff1673ffffffffffffffffffffffffffffffffffffffff167f8be0079c531659141344cd1fd0a4f28419497f9722a3daafe3b4186f6b6457e060405160405180910390a3806000806101000a81548173ffffffffffffffffffffffffffffffffffffffff021916908373ffffffffffffffffffffffffffffffffffffffff16021790555050565b6020604051908101604052806000815250905600a165627a7a723058207bf34783125ed664eb92b53d07a157d272866cb0c075ef26fd93733b07bb842e00296060604052341561000f57600080fd5b604051610c88380380610c8883398101604052808051820191906020018051906020019091908051906020019091905050336000806101000a81548173ffffffffffffffffffffffffffffffffffffffff021916908373ffffffffffffffffffffffffffffffffffffffff16021790555082600190805190602001906100969291906100e7565b508160028190555080600460006101000a81548173ffffffffffffffffffffffffffffffffffffffff021916908373ffffffffffffffffffffffffffffffffffffffff16021790555050505061018c565b828054600181600116156101000203166002900490600052602060002090601f016020900481019282601f1061012857805160ff1916838001178555610156565b82800160010185558215610156579182015b8281111561015557825182559160200191906001019061013a565b5b5090506101639190610167565b5090565b61018991905b8082111561018557600081600090555060010161016d565b5090565b90565b610aed8061019b6000396000f30060606040526004361061008e576000357c0100000000000000000000000000000000000000000000000000000000900463ffffffff16806306fdde03146100f1578063637b825c1461017f578063660512bc146101a257806380f474f6146101d05780638da5cb5b146101f9578063d108177a1461024e578063f2fde38b14610287578063f3cb8c31146102c0575b6000809054906101000a900473ffffffffffffffffffffffffffffffffffffffff1673ffffffffffffffffffffffffffffffffffffffff166108fc349081150290604051600060405180830381858888f1935050505015156100ef57600080fd5b005b34156100fc57600080fd5b6101046102f9565b6040518080602001828103825283818151815260200191508051906020019080838360005b83811015610144578082015181840152602081019050610129565b50505050905090810190601f1680156101715780820380516001836020036101000a031916815260200191505b509250505060405180910390f35b341561018a57600080fd5b6101a06004808035906020019091905050610397565b005b6101ce600480803573ffffffffffffffffffffffffffffffffffffffff169060200190919050506103fc565b005b34156101db57600080fd5b6101e3610477565b6040518082815260200191505060405180910390f35b341561020457600080fd5b61020c61047d565b604051808273ffffffffffffffffffffffffffffffffffffffff1673ffffffffffffffffffffffffffffffffffffffff16815260200191505060405180910390f35b341561025957600080fd5b610285600480803573ffffffffffffffffffffffffffffffffffffffff169060200190919050506104a2565b005b341561029257600080fd5b6102be600480803573ffffffffffffffffffffffffffffffffffffffff169060200190919050506105c2565b005b34156102cb57600080fd5b6102f7600480803573ffffffffffffffffffffffffffffffffffffffff16906020019091905050610717565b005b60018054600181600116156101000203166002900480601f01602080910402602001604051908101604052809291908181526020018280546001816001161561010002031660029004801561038f5780601f106103645761010080835404028352916020019161038f565b820191906000526020600020905b81548152906001019060200180831161037257829003601f168201915b505050505081565b6000809054906101000a900473ffffffffffffffffffffffffffffffffffffffff1673ffffffffffffffffffffffffffffffffffffffff163373ffffffffffffffffffffffffffffffffffffffff161415156103f257600080fd5b8060028190555050565b8073ffffffffffffffffffffffffffffffffffffffff1663609bb794346040518263ffffffff167c01000000000000000000000000000000000000000000000000000000000281526004016000604051808303818588803b151561045f57600080fd5b6125ee5a03f1151561047057600080fd5b5050505050565b60025481565b6000809054906101000a900473ffffffffffffffffffffffffffffffffffffffff1681565b60008060009054906101000a900473ffffffffffffffffffffffffffffffffffffffff1673ffffffffffffffffffffffffffffffffffffffff163373ffffffffffffffffffffffffffffffffffffffff16148061054c5750600460009054906101000a900473ffffffffffffffffffffffffffffffffffffffff1673ffffffffffffffffffffffffffffffffffffffff163373ffffffffffffffffffffffffffffffffffffffff16145b151561055757600080fd5b610560826108ff565b90506000811015151561057257600080fd5b600060038281548110151561058357fe5b906000526020600020900160000160146101000a81548160ff02191690831515021790555060038054809190600190036105bd91906109dd565b505050565b6000809054906101000a900473ffffffffffffffffffffffffffffffffffffffff1673ffffffffffffffffffffffffffffffffffffffff163373ffffffffffffffffffffffffffffffffffffffff1614151561061d57600080fd5b600073ffffffffffffffffffffffffffffffffffffffff168173ffffffffffffffffffffffffffffffffffffffff161415151561065957600080fd5b8073ffffffffffffffffffffffffffffffffffffffff166000809054906101000a900473ffffffffffffffffffffffffffffffffffffffff1673ffffffffffffffffffffffffffffffffffffffff167f8be0079c531659141344cd1fd0a4f28419497f9722a3daafe3b4186f6b6457e060405160405180910390a3806000806101000a81548173ffffffffffffffffffffffffffffffffffffffff021916908373ffffffffffffffffffffffffffffffffffffffff16021790555050565b6000610721610a09565b6000809054906101000a900473ffffffffffffffffffffffffffffffffffffffff1673ffffffffffffffffffffffffffffffffffffffff163373ffffffffffffffffffffffffffffffffffffffff1614806107c95750600460009054906101000a900473ffffffffffffffffffffffffffffffffffffffff1673ffffffffffffffffffffffffffffffffffffffff163373ffffffffffffffffffffffffffffffffffffffff16145b15156107d457600080fd5b6107dd836108ff565b915060008210156108ae5760408051908101604052808473ffffffffffffffffffffffffffffffffffffffff1681526020016001151581525090506003805480600101828161082c9190610a3b565b9160005260206000209001600083909190915060008201518160000160006101000a81548173ffffffffffffffffffffffffffffffffffffffff021916908373ffffffffffffffffffffffffffffffffffffffff16021790555060208201518160000160146101000a81548160ff0219169083151502179055505050506108fa565b60016003838154811015156108bf57fe5b906000526020600020900160000160146101000a81548160ff021916908315150217905550600380548091906001016108f891906109dd565b505b505050565b600080600090505b6003805490508110156109d3578273ffffffffffffffffffffffffffffffffffffffff1660038381548110151561093a57fe5b906000526020600020900160000160009054906101000a900473ffffffffffffffffffffffffffffffffffffffff1673ffffffffffffffffffffffffffffffffffffffff16141561098d578191506109d7565b60038281548110151561099c57fe5b906000526020600020900160000160149054906101000a900460ff16156109c65780806001019150505b8180600101925050610907565b8191505b50919050565b815481835581811511610a0457818360005260206000209182019101610a039190610a67565b5b505050565b6040805190810160405280600073ffffffffffffffffffffffffffffffffffffffff1681526020016000151581525090565b815481835581811511610a6257818360005260206000209182019101610a619190610a67565b5b505050565b610abe91905b80821115610aba57600080820160006101000a81549073ffffffffffffffffffffffffffffffffffffffff02191690556000820160146101000a81549060ff021916905550600101610a6d565b5090565b905600a165627a7a7230582035627828e01c964baa7a1bc322660fad8ba8108df64b3e16dab11c7cc65330580029a165627a7a72305820c3f3d7e2d28d1c84ad9f23b72bc447128da5ff30c0af458b36fa38587106b26e0029",
  "source": "pragma solidity ^0.4.11;\r\nimport \"zeppelin-solidity/contracts/ownership/Ownable.sol\";\r\nimport \"./Employee.sol\";\r\nimport \"./Company.sol\";\r\nimport \"./Contract.sol\";\r\n\r\n\r\ncontract Main is Ownable {\r\n\r\n    Employee[] public employees;\r\n    Company[] public companies;\r\n    Contract[] public contracts;\r\n    address public specializations;\r\n\r\n    function Main() public payable {}\r\n\r\n    function () public payable {}\r\n\r\n    function newEmployee(string _firstName, string _lastName, string _email, address _address) public onlyOwner {\r\n        Employee employee = new Employee(_firstName, _lastName, _email, _address);\r\n        employees.push(employee);\r\n    }\r\n\r\n    function newCompany(string _name, uint _rating, address _address) public onlyOwner {\r\n        Company company = new Company(_name, _rating, _address);\r\n        companies.push(company);\r\n    }\r\n\r\n    function newContract(uint[] _skillCodes, uint[] _skillToPosition,\r\n                            uint _startDate, uint _endDate, Employee _empoloyee,\r\n                            Company _company, uint _weekPayment) public onlyOwner {\r\n        Contract _contract = new Contract(_skillCodes, _skillToPosition,\r\n                                            _startDate, _endDate, _empoloyee, _company, _weekPayment);\r\n        contracts.push(_contract);\r\n    }\r\n\r\n    function getAccountSizes() public view returns (uint, uint, uint) {\r\n        return (employees.length, companies.length, contracts.length);\r\n    }\r\n\r\n    function setSpecializations(address _specializations) public {\r\n        specializations = _specializations;\r\n    }\r\n\r\n    function kill() public {\r\n        selfdestruct(owner);\r\n    }\r\n\r\n}\r\n",
  "sourcePath": "D:\\node_projects\\smart\\smart_contract_example\\contracts\\Main.sol",
  "compiler": {
    "name": "solc",
    "version": "0.4.19+commit.c4cbbb05.Emscripten.clang"
  },
  "schemaVersion": "1.0.1",
  "updatedAt": "2018-02-18T16:11:58.647Z"
}