{
  "contractName": "Specializations",
  "abi": [
    {
      "constant": true,
      "inputs": [],
      "name": "owner",
      "outputs": [
        {
          "name": "",
          "type": "address"
        }
      ],
      "payable": false,
      "stateMutability": "view",
      "type": "function"
    },
    {
      "constant": false,
      "inputs": [
        {
          "name": "newOwner",
          "type": "address"
        }
      ],
      "name": "transferOwnership",
      "outputs": [],
      "payable": false,
      "stateMutability": "nonpayable",
      "type": "function"
    },
    {
      "payable": true,
      "stateMutability": "payable",
      "type": "fallback"
    },
    {
      "anonymous": false,
      "inputs": [
        {
          "indexed": true,
          "name": "previousOwner",
          "type": "address"
        },
        {
          "indexed": true,
          "name": "newOwner",
          "type": "address"
        }
      ],
      "name": "OwnershipTransferred",
      "type": "event"
    },
    {
      "constant": false,
      "inputs": [
        {
          "name": "specialization",
          "type": "string"
        }
      ],
      "name": "addSpecialization",
      "outputs": [],
      "payable": false,
      "stateMutability": "nonpayable",
      "type": "function"
    },
    {
      "constant": false,
      "inputs": [
        {
          "name": "skill",
          "type": "string"
        }
      ],
      "name": "addSkill",
      "outputs": [],
      "payable": false,
      "stateMutability": "nonpayable",
      "type": "function"
    },
    {
      "constant": false,
      "inputs": [
        {
          "name": "specialization",
          "type": "string"
        }
      ],
      "name": "removeSpecialization",
      "outputs": [],
      "payable": false,
      "stateMutability": "nonpayable",
      "type": "function"
    },
    {
      "constant": false,
      "inputs": [
        {
          "name": "skill",
          "type": "string"
        }
      ],
      "name": "removeSkill",
      "outputs": [],
      "payable": false,
      "stateMutability": "nonpayable",
      "type": "function"
    },
    {
      "constant": true,
      "inputs": [
        {
          "name": "code",
          "type": "uint256"
        }
      ],
      "name": "getSpecializationByCode",
      "outputs": [
        {
          "name": "",
          "type": "string"
        },
        {
          "name": "",
          "type": "string"
        }
      ],
      "payable": false,
      "stateMutability": "view",
      "type": "function"
    },
    {
      "constant": true,
      "inputs": [
        {
          "name": "_specialization",
          "type": "string"
        },
        {
          "name": "_skill",
          "type": "string"
        }
      ],
      "name": "generateCode",
      "outputs": [
        {
          "name": "result",
          "type": "uint256"
        }
      ],
      "payable": false,
      "stateMutability": "view",
      "type": "function"
    },
    {
      "constant": false,
      "inputs": [],
      "name": "kill",
      "outputs": [],
      "payable": false,
      "stateMutability": "nonpayable",
      "type": "function"
    }
  ],
  "bytecode": "0x6060604052336000806101000a81548173ffffffffffffffffffffffffffffffffffffffff021916908373ffffffffffffffffffffffffffffffffffffffff160217905550611240806100536000396000f300606060405260043610610099576000357c0100000000000000000000000000000000000000000000000000000000900463ffffffff1680630c676cfa1461009e5780631e3249901461015257806341c0e1b5146101af5780636042ab1c146101c45780638da5cb5b146102215780638e1c53f114610276578063e78a21de146102d3578063f29d748314610330578063f2fde38b14610438575b600080fd5b34156100a957600080fd5b61013c600480803590602001908201803590602001908080601f0160208091040260200160405190810160405280939291908181526020018383808284378201915050505050509190803590602001908201803590602001908080601f01602080910402602001604051908101604052809392919081815260200183838082843782019150505050505091905050610471565b6040518082815260200191505060405180910390f35b341561015d57600080fd5b6101ad600480803590602001908201803590602001908080601f0160208091040260200160405190810160405280939291908181526020018383808284378201915050505050509190505061066d565b005b34156101ba57600080fd5b6101c2610707565b005b34156101cf57600080fd5b61021f600480803590602001908201803590602001908080601f01602080910402602001604051908101604052809392919081815260200183838082843782019150505050505091905050610741565b005b341561022c57600080fd5b61023461094f565b604051808273ffffffffffffffffffffffffffffffffffffffff1673ffffffffffffffffffffffffffffffffffffffff16815260200191505060405180910390f35b341561028157600080fd5b6102d1600480803590602001908201803590602001908080601f01602080910402602001604051908101604052809392919081815260200183838082843782019150505050505091905050610974565b005b34156102de57600080fd5b61032e600480803590602001908201803590602001908080601f01602080910402602001604051908101604052809392919081815260200183838082843782019150505050505091905050610a0e565b005b341561033b57600080fd5b6103516004808035906020019091905050610c1b565b604051808060200180602001838103835285818151815260200191508051906020019080838360005b8381101561039557808201518184015260208101905061037a565b50505050905090810190601f1680156103c25780820380516001836020036101000a031916815260200191505b50838103825284818151815260200191508051906020019080838360005b838110156103fb5780820151818401526020810190506103e0565b50505050905090810190601f1680156104285780820380516001836020036101000a031916815260200191505b5094505050505060405180910390f35b341561044357600080fd5b61046f600480803573ffffffffffffffffffffffffffffffffffffffff16906020019091905050610dda565b005b60008060005b60028054905082108015610544575061054260028381548110151561049857fe5b90600052602060002090018054600181600116156101000203166002900480601f0160208091040260200160405190810160405280929190818152602001828054600181600116156101000203166002900480156105375780601f1061050c57610100808354040283529160200191610537565b820191906000526020600020905b81548152906001019060200180831161051a57829003601f168201915b505050505085610f2f565b155b15610556578180600101925050610477565b5b60018054905081108015610624575061062260018281548110151561057857fe5b90600052602060002090018054600181600116156101000203166002900480601f0160208091040260200160405190810160405280929190818152602001828054600181600116156101000203166002900480156106175780601f106105ec57610100808354040283529160200191610617565b820191906000526020600020905b8154815290600101906020018083116105fa57829003601f168201915b505050505086610f2f565b155b15610636578080600101915050610557565b6002805490508210801561064e575060018054905081105b151561065957600080fd5b81600c829060020a02019250505092915050565b6000809054906101000a900473ffffffffffffffffffffffffffffffffffffffff1673ffffffffffffffffffffffffffffffffffffffff163373ffffffffffffffffffffffffffffffffffffffff161415156106c857600080fd5b600280548060010182816106dc9190611008565b916000526020600020900160008390919091509080519060200190610702929190611034565b505050565b6000809054906101000a900473ffffffffffffffffffffffffffffffffffffffff1673ffffffffffffffffffffffffffffffffffffffff16ff5b60008060009054906101000a900473ffffffffffffffffffffffffffffffffffffffff1673ffffffffffffffffffffffffffffffffffffffff163373ffffffffffffffffffffffffffffffffffffffff1614151561079e57600080fd5b600090505b6002805490508110156108835761086c6002828154811015156107c257fe5b90600052602060002090018054600181600116156101000203166002900480601f0160208091040260200160405190810160405280929190818152602001828054600181600116156101000203166002900480156108615780601f1061083657610100808354040283529160200191610861565b820191906000526020600020905b81548152906001019060200180831161084457829003601f168201915b505050505083610f2f565b1561087657610883565b80806001019150506107a3565b60028054905081141561089557600080fd5b80806001019150505b60028054905081101561090f576002818154811015156108ba57fe5b90600052602060002090016002600183038154811015156108d757fe5b906000526020600020900190805460018160011615610100020316600290046109019291906110b4565b50808060010191505061089e565b60028181548110151561091e57fe5b90600052602060002090016000610935919061113b565b600280548091906001900361094a9190611183565b505050565b6000809054906101000a900473ffffffffffffffffffffffffffffffffffffffff1681565b6000809054906101000a900473ffffffffffffffffffffffffffffffffffffffff1673ffffffffffffffffffffffffffffffffffffffff163373ffffffffffffffffffffffffffffffffffffffff161415156109cf57600080fd5b600180548060010182816109e39190611008565b916000526020600020900160008390919091509080519060200190610a09929190611034565b505050565b60008060009054906101000a900473ffffffffffffffffffffffffffffffffffffffff1673ffffffffffffffffffffffffffffffffffffffff163373ffffffffffffffffffffffffffffffffffffffff16141515610a6b57600080fd5b600090505b600180549050811015610b5057610b39600182815481101515610a8f57fe5b90600052602060002090018054600181600116156101000203166002900480601f016020809104026020016040519081016040528092919081815260200182805460018160011615610100020316600290048015610b2e5780601f10610b0357610100808354040283529160200191610b2e565b820191906000526020600020905b815481529060010190602001808311610b1157829003601f168201915b505050505083610f2f565b15610b4357610b50565b8080600101915050610a70565b600180549050811415610b6257600080fd5b80806001019150505b600180549050811015610bdb57600181815481101515610b8757fe5b90600052602060002090016001808303815481101515610ba357fe5b90600052602060002090019080546001816001161561010002031660029004610bcd9291906110b4565b508080600101915050610b6b565b600181815481101515610bea57fe5b90600052602060002090016000610c01919061113b565b6001805480919060019003610c169190611183565b505050565b610c236111af565b610c2b6111af565b600080610fff85169150600c859060020a9004905060028054905082108015610c58575060018054905081105b1515610c6357600080fd5b600181815481101515610c7257fe5b9060005260206000209001600283815481101515610c8c57fe5b9060005260206000209001818054600181600116156101000203166002900480601f016020809104026020016040519081016040528092919081815260200182805460018160011615610100020316600290048015610d2c5780601f10610d0157610100808354040283529160200191610d2c565b820191906000526020600020905b815481529060010190602001808311610d0f57829003601f168201915b50505050509150808054600181600116156101000203166002900480601f016020809104026020016040519081016040528092919081815260200182805460018160011615610100020316600290048015610dc85780601f10610d9d57610100808354040283529160200191610dc8565b820191906000526020600020905b815481529060010190602001808311610dab57829003601f168201915b50505050509050935093505050915091565b6000809054906101000a900473ffffffffffffffffffffffffffffffffffffffff1673ffffffffffffffffffffffffffffffffffffffff163373ffffffffffffffffffffffffffffffffffffffff16141515610e3557600080fd5b600073ffffffffffffffffffffffffffffffffffffffff168173ffffffffffffffffffffffffffffffffffffffff1614151515610e7157600080fd5b8073ffffffffffffffffffffffffffffffffffffffff166000809054906101000a900473ffffffffffffffffffffffffffffffffffffffff1673ffffffffffffffffffffffffffffffffffffffff167f8be0079c531659141344cd1fd0a4f28419497f9722a3daafe3b4186f6b6457e060405160405180910390a3806000806101000a81548173ffffffffffffffffffffffffffffffffffffffff021916908373ffffffffffffffffffffffffffffffffffffffff16021790555050565b6000816040518082805190602001908083835b602083101515610f675780518252602082019150602081019050602083039250610f42565b6001836020036101000a038019825116818451168082178552505050505050905001915050604051809103902060001916836040518082805190602001908083835b602083101515610fce5780518252602082019150602081019050602083039250610fa9565b6001836020036101000a03801982511681845116808217855250505050505090500191505060405180910390206000191614905092915050565b81548183558181151161102f5781836000526020600020918201910161102e91906111c3565b5b505050565b828054600181600116156101000203166002900490600052602060002090601f016020900481019282601f1061107557805160ff19168380011785556110a3565b828001600101855582156110a3579182015b828111156110a2578251825591602001919060010190611087565b5b5090506110b091906111ef565b5090565b828054600181600116156101000203166002900490600052602060002090601f016020900481019282601f106110ed578054855561112a565b8280016001018555821561112a57600052602060002091601f016020900482015b8281111561112957825482559160010191906001019061110e565b5b50905061113791906111ef565b5090565b50805460018160011615610100020316600290046000825580601f106111615750611180565b601f01602090049060005260206000209081019061117f91906111ef565b5b50565b8154818355818115116111aa578183600052602060002091820191016111a991906111c3565b5b505050565b602060405190810160405280600081525090565b6111ec91905b808211156111e857600081816111df919061113b565b506001016111c9565b5090565b90565b61121191905b8082111561120d5760008160009055506001016111f5565b5090565b905600a165627a7a723058200311bd639d39998f1e26bcac370ca21d64b6242c2253fc96d909c973402208620029",
  "source": "pragma solidity ^0.4.11;\r\nimport \"zeppelin-solidity/contracts/ownership/Ownable.sol\";\r\n\r\n\r\ncontract Specializations is Ownable {\r\n\r\n    string[] private specializations;\r\n    string[] private skills;\r\n\r\n    function () public payable {revert();}\r\n\r\n    function addSpecialization(string specialization) public onlyOwner {\r\n        specializations.push(specialization);\r\n    }\r\n\r\n    function addSkill(string skill) public onlyOwner {\r\n        skills.push(skill);\r\n    }\r\n\r\n    function removeSpecialization(string specialization) public onlyOwner {\r\n        uint index = 0;\r\n\r\n        for (index; index < specializations.length; index++) {\r\n            if (compareStrings(specializations[index], specialization))\r\n                break;\r\n        }\r\n\r\n        if (index == specializations.length)\r\n            revert();\r\n        index++;\r\n\r\n        for (index; index < specializations.length; index++) {\r\n            specializations[index - 1] = specializations[index];\r\n        }\r\n\r\n        delete specializations[index];\r\n        specializations.length--;\r\n    }\r\n\r\n    function removeSkill(string skill) public onlyOwner {\r\n        uint index = 0;\r\n\r\n        for (index; index < skills.length; index++) {\r\n            if (compareStrings(skills[index], skill))\r\n                break;\r\n        }\r\n\r\n        if (index == skills.length)\r\n            revert();\r\n        index++;\r\n\r\n        for (index; index < skills.length; index++) {\r\n            skills[index - 1] = skills[index];\r\n        }\r\n\r\n        delete skills[index];\r\n        skills.length--;\r\n    }\r\n\r\n    function getSpecializationByCode(uint code) public view returns (string, string) {\r\n        uint skill = code & (4096 - 1);\r\n        uint specialization = code >> 12;\r\n        require(skill < skills.length && specialization < specializations.length);\r\n\r\n        return (specializations[specialization], skills[skill]);\r\n    }\r\n\r\n    function generateCode(string _specialization, string _skill) public view returns (uint result) {\r\n        uint skill;\r\n        uint specialization;\r\n\r\n        while (skill < skills.length && !compareStrings(skills[skill], _skill))\r\n            skill++;\r\n\r\n        while (\r\n            specialization < specializations.length\r\n            &&\r\n            !compareStrings(specializations[specialization], _specialization)\r\n        )\r\n            specialization++;\r\n\r\n        require(skill < skills.length && specialization < specializations.length);\r\n\r\n        result = (specialization << 12) + skill;\r\n    }\r\n\r\n    function kill() public {\r\n        selfdestruct(owner);\r\n    }\r\n\r\n    function compareStrings (string a, string b) private pure returns (bool) {\r\n        return keccak256(a) == keccak256(b);\r\n    }\r\n\r\n}\r\n",
  "sourcePath": "D:\\node_projects\\smart\\smart_contract_example\\contracts\\Specializations.sol",
  "compiler": {
    "name": "solc",
    "version": "0.4.19+commit.c4cbbb05.Emscripten.clang"
  },
  "schemaVersion": "1.0.1",
  "updatedAt": "2018-03-06T00:24:58.466Z"
}