{
  "contractName": "Store",
  "abi": [
    {
      "constant": true,
      "inputs": [
        {
          "name": "",
          "type": "uint256"
        }
      ],
      "name": "companies",
      "outputs": [
        {
          "name": "",
          "type": "address"
        }
      ],
      "payable": false,
      "stateMutability": "view",
      "type": "function"
    },
    {
      "constant": true,
      "inputs": [
        {
          "name": "",
          "type": "uint256"
        }
      ],
      "name": "employees",
      "outputs": [
        {
          "name": "",
          "type": "address"
        }
      ],
      "payable": false,
      "stateMutability": "view",
      "type": "function"
    },
    {
      "constant": true,
      "inputs": [
        {
          "name": "",
          "type": "uint256"
        }
      ],
      "name": "contracts",
      "outputs": [
        {
          "name": "",
          "type": "address"
        }
      ],
      "payable": false,
      "stateMutability": "view",
      "type": "function"
    },
    {
      "constant": true,
      "inputs": [],
      "name": "specializations",
      "outputs": [
        {
          "name": "",
          "type": "address"
        }
      ],
      "payable": false,
      "stateMutability": "view",
      "type": "function"
    },
    {
      "constant": true,
      "inputs": [],
      "name": "owner",
      "outputs": [
        {
          "name": "",
          "type": "address"
        }
      ],
      "payable": false,
      "stateMutability": "view",
      "type": "function"
    },
    {
      "constant": false,
      "inputs": [
        {
          "name": "newOwner",
          "type": "address"
        }
      ],
      "name": "transferOwnership",
      "outputs": [],
      "payable": false,
      "stateMutability": "nonpayable",
      "type": "function"
    },
    {
      "inputs": [],
      "payable": true,
      "stateMutability": "payable",
      "type": "constructor"
    },
    {
      "payable": true,
      "stateMutability": "payable",
      "type": "fallback"
    },
    {
      "anonymous": false,
      "inputs": [
        {
          "indexed": true,
          "name": "previousOwner",
          "type": "address"
        },
        {
          "indexed": true,
          "name": "newOwner",
          "type": "address"
        }
      ],
      "name": "OwnershipTransferred",
      "type": "event"
    },
    {
      "constant": true,
      "inputs": [],
      "name": "getAccountSizes",
      "outputs": [
        {
          "name": "",
          "type": "uint256"
        },
        {
          "name": "",
          "type": "uint256"
        },
        {
          "name": "",
          "type": "uint256"
        }
      ],
      "payable": false,
      "stateMutability": "view",
      "type": "function"
    },
    {
      "constant": false,
      "inputs": [
        {
          "name": "employee",
          "type": "address"
        }
      ],
      "name": "addEmployee",
      "outputs": [],
      "payable": false,
      "stateMutability": "nonpayable",
      "type": "function"
    },
    {
      "constant": false,
      "inputs": [
        {
          "name": "company",
          "type": "address"
        }
      ],
      "name": "addCompany",
      "outputs": [],
      "payable": false,
      "stateMutability": "nonpayable",
      "type": "function"
    },
    {
      "constant": false,
      "inputs": [
        {
          "name": "_contract",
          "type": "address"
        }
      ],
      "name": "addContract",
      "outputs": [],
      "payable": false,
      "stateMutability": "nonpayable",
      "type": "function"
    },
    {
      "constant": false,
      "inputs": [
        {
          "name": "_specializations",
          "type": "address"
        }
      ],
      "name": "setSpecializations",
      "outputs": [],
      "payable": false,
      "stateMutability": "nonpayable",
      "type": "function"
    },
    {
      "constant": false,
      "inputs": [],
      "name": "kill",
      "outputs": [],
      "payable": false,
      "stateMutability": "nonpayable",
      "type": "function"
    }
  ],
  "bytecode": "0x6060604052336000806101000a81548173ffffffffffffffffffffffffffffffffffffffff021916908373ffffffffffffffffffffffffffffffffffffffff160217905550610a10806100536000396000f3006060604052600436106100ba576000357c0100000000000000000000000000000000000000000000000000000000900463ffffffff1680632813d19d146100bc57806341c0e1b51461011f5780634739326b14610134578063474da79a146101975780635f539d69146101fa5780636050da1014610233578063634513ca1461026a5780636a684b00146102a357806381ae711f146102f85780638da5cb5b14610331578063f2fde38b14610386578063f3cb8c31146103bf575b005b34156100c757600080fd5b6100dd60048080359060200190919050506103f8565b604051808273ffffffffffffffffffffffffffffffffffffffff1673ffffffffffffffffffffffffffffffffffffffff16815260200191505060405180910390f35b341561012a57600080fd5b610132610437565b005b341561013f57600080fd5b6101556004808035906020019091905050610471565b604051808273ffffffffffffffffffffffffffffffffffffffff1673ffffffffffffffffffffffffffffffffffffffff16815260200191505060405180910390f35b34156101a257600080fd5b6101b860048080359060200190919050506104b0565b604051808273ffffffffffffffffffffffffffffffffffffffff1673ffffffffffffffffffffffffffffffffffffffff16815260200191505060405180910390f35b341561020557600080fd5b610231600480803573ffffffffffffffffffffffffffffffffffffffff169060200190919050506104ef565b005b341561023e57600080fd5b6102466105b0565b60405180848152602001838152602001828152602001935050505060405180910390f35b341561027557600080fd5b6102a1600480803573ffffffffffffffffffffffffffffffffffffffff169060200190919050506105d2565b005b34156102ae57600080fd5b6102b6610693565b604051808273ffffffffffffffffffffffffffffffffffffffff1673ffffffffffffffffffffffffffffffffffffffff16815260200191505060405180910390f35b341561030357600080fd5b61032f600480803573ffffffffffffffffffffffffffffffffffffffff169060200190919050506106b9565b005b341561033c57600080fd5b610344610758565b604051808273ffffffffffffffffffffffffffffffffffffffff1673ffffffffffffffffffffffffffffffffffffffff16815260200191505060405180910390f35b341561039157600080fd5b6103bd600480803573ffffffffffffffffffffffffffffffffffffffff1690602001909190505061077d565b005b34156103ca57600080fd5b6103f6600480803573ffffffffffffffffffffffffffffffffffffffff169060200190919050506108d2565b005b60028181548110151561040757fe5b90600052602060002090016000915054906101000a900473ffffffffffffffffffffffffffffffffffffffff1681565b6000809054906101000a900473ffffffffffffffffffffffffffffffffffffffff1673ffffffffffffffffffffffffffffffffffffffff16ff5b60018181548110151561048057fe5b90600052602060002090016000915054906101000a900473ffffffffffffffffffffffffffffffffffffffff1681565b6003818154811015156104bf57fe5b90600052602060002090016000915054906101000a900473ffffffffffffffffffffffffffffffffffffffff1681565b6000809054906101000a900473ffffffffffffffffffffffffffffffffffffffff1673ffffffffffffffffffffffffffffffffffffffff163373ffffffffffffffffffffffffffffffffffffffff1614151561054a57600080fd5b6003805480600101828161055e9190610993565b9160005260206000209001600083909190916101000a81548173ffffffffffffffffffffffffffffffffffffffff021916908373ffffffffffffffffffffffffffffffffffffffff1602179055505050565b6000806000600180549050600280549050600380549050925092509250909192565b6000809054906101000a900473ffffffffffffffffffffffffffffffffffffffff1673ffffffffffffffffffffffffffffffffffffffff163373ffffffffffffffffffffffffffffffffffffffff1614151561062d57600080fd5b600280548060010182816106419190610993565b9160005260206000209001600083909190916101000a81548173ffffffffffffffffffffffffffffffffffffffff021916908373ffffffffffffffffffffffffffffffffffffffff1602179055505050565b600460009054906101000a900473ffffffffffffffffffffffffffffffffffffffff1681565b6000809054906101000a900473ffffffffffffffffffffffffffffffffffffffff1673ffffffffffffffffffffffffffffffffffffffff163373ffffffffffffffffffffffffffffffffffffffff1614151561071457600080fd5b80600460006101000a81548173ffffffffffffffffffffffffffffffffffffffff021916908373ffffffffffffffffffffffffffffffffffffffff16021790555050565b6000809054906101000a900473ffffffffffffffffffffffffffffffffffffffff1681565b6000809054906101000a900473ffffffffffffffffffffffffffffffffffffffff1673ffffffffffffffffffffffffffffffffffffffff163373ffffffffffffffffffffffffffffffffffffffff161415156107d857600080fd5b600073ffffffffffffffffffffffffffffffffffffffff168173ffffffffffffffffffffffffffffffffffffffff161415151561081457600080fd5b8073ffffffffffffffffffffffffffffffffffffffff166000809054906101000a900473ffffffffffffffffffffffffffffffffffffffff1673ffffffffffffffffffffffffffffffffffffffff167f8be0079c531659141344cd1fd0a4f28419497f9722a3daafe3b4186f6b6457e060405160405180910390a3806000806101000a81548173ffffffffffffffffffffffffffffffffffffffff021916908373ffffffffffffffffffffffffffffffffffffffff16021790555050565b6000809054906101000a900473ffffffffffffffffffffffffffffffffffffffff1673ffffffffffffffffffffffffffffffffffffffff163373ffffffffffffffffffffffffffffffffffffffff1614151561092d57600080fd5b600180548060010182816109419190610993565b9160005260206000209001600083909190916101000a81548173ffffffffffffffffffffffffffffffffffffffff021916908373ffffffffffffffffffffffffffffffffffffffff1602179055505050565b8154818355818115116109ba578183600052602060002091820191016109b991906109bf565b5b505050565b6109e191905b808211156109dd5760008160009055506001016109c5565b5090565b905600a165627a7a7230582090347a8920474e1696690532c69132342482f1e6e29ac3637c5ffb2b1fa7ca7a0029",
  "source": "pragma solidity ^0.4.11;\r\nimport \"zeppelin-solidity/contracts/ownership/Ownable.sol\";\r\n\r\n\r\ncontract Store is Ownable {\r\n\r\n    address[] public employees;\r\n    address[] public companies;\r\n    address[] public contracts;\r\n    address public specializations;\r\n\r\n    function Store() public payable {}\r\n\r\n    /* event NewContract(int, address); */\r\n\r\n    function () public payable {}\r\n\r\n    /* function newEmployee(string _firstName, string _lastName, string _email, address _address) public onlyOwner {\r\n        Employee employee = new Employee(_firstName, _lastName, _email, _address);\r\n        employees.push(employee);\r\n        NewContract(0, employee);\r\n    }\r\n\r\n    function newCompany(string _name, uint _rating, address _address) public onlyOwner {\r\n        Company company = new Company(_name, _rating, _address);\r\n        companies.push(company);\r\n        NewContract(1, company);\r\n    }\r\n\r\n    function newContract(uint[] _skillCodes, uint[] _skillToPosition,\r\n                            uint _duration, Employee _empoloyee,\r\n                            Company _company, uint _weekPayment) public onlyOwner {\r\n        Contract _contract = new Contract(_skillCodes, _skillToPosition,\r\n                                            _duration, _empoloyee, _company, _weekPayment);\r\n        contracts.push(_contract);\r\n        NewContract(2, _contract);\r\n    } */\r\n\r\n    function getAccountSizes() public view returns (uint, uint, uint) {\r\n        return (employees.length, companies.length, contracts.length);\r\n    }\r\n\r\n    function addEmployee(address employee) public onlyOwner {\r\n        employees.push(employee);\r\n    }\r\n\r\n    function addCompany(address company) public onlyOwner {\r\n        companies.push(company);\r\n    }\r\n\r\n    function addContract(address _contract) public onlyOwner {\r\n        contracts.push(_contract);\r\n    }\r\n\r\n    function setSpecializations(address _specializations) public onlyOwner {\r\n        specializations = _specializations;\r\n    }\r\n\r\n    function kill() public {\r\n        selfdestruct(owner);\r\n    }\r\n\r\n}\r\n",
  "sourcePath": "D:\\node_projects\\smart\\smart_contract_example\\contracts\\Store.sol",
  "compiler": {
    "name": "solc",
    "version": "0.4.19+commit.c4cbbb05.Emscripten.clang"
  },
  "schemaVersion": "1.0.1",
  "updatedAt": "2018-02-18T21:45:15.406Z"
}