{
  "contractName": "Work",
  "abi": [
    {
      "constant": true,
      "inputs": [],
      "name": "owner",
      "outputs": [
        {
          "name": "",
          "type": "address"
        }
      ],
      "payable": false,
      "stateMutability": "view",
      "type": "function"
    },
    {
      "constant": false,
      "inputs": [
        {
          "name": "newOwner",
          "type": "address"
        }
      ],
      "name": "transferOwnership",
      "outputs": [],
      "payable": false,
      "stateMutability": "nonpayable",
      "type": "function"
    },
    {
      "inputs": [
        {
          "name": "_skillCodes",
          "type": "uint256[]"
        },
        {
          "name": "_duration",
          "type": "uint256"
        },
        {
          "name": "_empoloyee",
          "type": "address"
        },
        {
          "name": "_company",
          "type": "address"
        },
        {
          "name": "_companyContractAddress",
          "type": "address"
        },
        {
          "name": "_weekPayment",
          "type": "uint256"
        }
      ],
      "payable": true,
      "stateMutability": "payable",
      "type": "constructor"
    },
    {
      "payable": true,
      "stateMutability": "payable",
      "type": "fallback"
    },
    {
      "anonymous": false,
      "inputs": [
        {
          "indexed": false,
          "name": "code",
          "type": "int256"
        }
      ],
      "name": "WeekPaymentSent",
      "type": "event"
    },
    {
      "anonymous": false,
      "inputs": [
        {
          "indexed": true,
          "name": "previousOwner",
          "type": "address"
        },
        {
          "indexed": true,
          "name": "newOwner",
          "type": "address"
        }
      ],
      "name": "OwnershipTransferred",
      "type": "event"
    },
    {
      "constant": false,
      "inputs": [],
      "name": "deposit",
      "outputs": [],
      "payable": true,
      "stateMutability": "payable",
      "type": "function"
    },
    {
      "constant": false,
      "inputs": [
        {
          "name": "_hours",
          "type": "uint256"
        }
      ],
      "name": "sendWeekSalary",
      "outputs": [],
      "payable": true,
      "stateMutability": "payable",
      "type": "function"
    },
    {
      "constant": false,
      "inputs": [],
      "name": "solveFrizzing",
      "outputs": [],
      "payable": true,
      "stateMutability": "payable",
      "type": "function"
    },
    {
      "constant": false,
      "inputs": [],
      "name": "disputeStatusOn",
      "outputs": [],
      "payable": false,
      "stateMutability": "nonpayable",
      "type": "function"
    },
    {
      "constant": false,
      "inputs": [
        {
          "name": "winner",
          "type": "address"
        }
      ],
      "name": "solveDispute",
      "outputs": [],
      "payable": false,
      "stateMutability": "nonpayable",
      "type": "function"
    },
    {
      "constant": false,
      "inputs": [],
      "name": "start",
      "outputs": [],
      "payable": true,
      "stateMutability": "payable",
      "type": "function"
    },
    {
      "constant": false,
      "inputs": [],
      "name": "finish",
      "outputs": [],
      "payable": false,
      "stateMutability": "nonpayable",
      "type": "function"
    },
    {
      "constant": true,
      "inputs": [],
      "name": "getWorkData",
      "outputs": [
        {
          "name": "",
          "type": "uint256[]"
        },
        {
          "name": "",
          "type": "uint256"
        },
        {
          "name": "",
          "type": "uint256"
        },
        {
          "name": "",
          "type": "address"
        },
        {
          "name": "",
          "type": "address"
        },
        {
          "name": "",
          "type": "uint256"
        },
        {
          "name": "",
          "type": "address"
        },
        {
          "name": "",
          "type": "bool"
        },
        {
          "name": "",
          "type": "int256"
        },
        {
          "name": "",
          "type": "uint256"
        },
        {
          "name": "",
          "type": "address"
        }
      ],
      "payable": false,
      "stateMutability": "view",
      "type": "function"
    },
    {
      "constant": true,
      "inputs": [],
      "name": "getWorkedHours",
      "outputs": [
        {
          "name": "",
          "type": "uint256"
        }
      ],
      "payable": false,
      "stateMutability": "view",
      "type": "function"
    },
    {
      "constant": true,
      "inputs": [],
      "name": "getWeekPayment",
      "outputs": [
        {
          "name": "",
          "type": "uint256"
        }
      ],
      "payable": false,
      "stateMutability": "view",
      "type": "function"
    },
    {
      "constant": true,
      "inputs": [],
      "name": "getEmployee",
      "outputs": [
        {
          "name": "",
          "type": "address"
        }
      ],
      "payable": false,
      "stateMutability": "view",
      "type": "function"
    },
    {
      "constant": true,
      "inputs": [],
      "name": "getCompanyContractAddress",
      "outputs": [
        {
          "name": "",
          "type": "address"
        }
      ],
      "payable": false,
      "stateMutability": "view",
      "type": "function"
    },
    {
      "constant": true,
      "inputs": [],
      "name": "getDisputeStatus",
      "outputs": [
        {
          "name": "",
          "type": "bool"
        }
      ],
      "payable": false,
      "stateMutability": "view",
      "type": "function"
    },
    {
      "constant": true,
      "inputs": [
        {
          "name": "skillCode",
          "type": "uint256"
        }
      ],
      "name": "hasSkill",
      "outputs": [
        {
          "name": "",
          "type": "bool"
        }
      ],
      "payable": false,
      "stateMutability": "view",
      "type": "function"
    },
    {
      "constant": true,
      "inputs": [],
      "name": "getCompanyWorkRating",
      "outputs": [
        {
          "name": "result",
          "type": "int256"
        }
      ],
      "payable": false,
      "stateMutability": "view",
      "type": "function"
    },
    {
      "constant": true,
      "inputs": [],
      "name": "getContractStatus",
      "outputs": [
        {
          "name": "",
          "type": "int256"
        }
      ],
      "payable": false,
      "stateMutability": "view",
      "type": "function"
    }
  ],
  "bytecode": "0x6060604052604051620018233803806200182383398101604052808051820191906020018051906020019091908051906020019091908051906020019091908051906020019091908051906020019091905050336000806101000a81548173ffffffffffffffffffffffffffffffffffffffff021916908373ffffffffffffffffffffffffffffffffffffffff160217905550600085111515620000a257600080fd5b8560019080519060200190620000ba929190620001bf565b508460028190555083600560006101000a81548173ffffffffffffffffffffffffffffffffffffffff021916908373ffffffffffffffffffffffffffffffffffffffff16021790555082600760006101000a81548173ffffffffffffffffffffffffffffffffffffffff021916908373ffffffffffffffffffffffffffffffffffffffff16021790555081600660006101000a81548173ffffffffffffffffffffffffffffffffffffffff021916908373ffffffffffffffffffffffffffffffffffffffff160217905550806008819055507fffffffffffffffffffffffffffffffffffffffffffffffffffffffffffffff9c600a8190555050505050505062000239565b828054828255906000526020600020908101928215620001fe579160200282015b82811115620001fd578251825591602001919060010190620001e0565b5b5090506200020d919062000211565b5090565b6200023691905b808211156200023257600081600090555060010162000218565b5090565b90565b6115da80620002496000396000f3006060604052600436106100fc576000357c0100000000000000000000000000000000000000000000000000000000900463ffffffff1680631bcbe2d91461015f5780633c98a2d51461019a5780634132db8f146101b257806355593dc514610207578063645c1ce0146102115780636734c5ec1461023a5780637aeb875d1461027357806386da88651461029c57806387f7f37f146102b15780638918767f146104155780638da5cb5b1461043e578063be9a655514610493578063c032846b1461049d578063d0e30db0146104c6578063d56b2889146104d0578063d6ae724f146104e5578063f2fde38b14610512578063f3fe8bec1461054b575b6000809054906101000a900473ffffffffffffffffffffffffffffffffffffffff1673ffffffffffffffffffffffffffffffffffffffff166108fc349081150290604051600060405180830381858888f19350505050151561015d57600080fd5b005b341561016a57600080fd5b61018060048080359060200190919050506105a0565b604051808215151515815260200191505060405180910390f35b6101b060048080359060200190919050506105f8565b005b34156101bd57600080fd5b6101c56109fa565b604051808273ffffffffffffffffffffffffffffffffffffffff1673ffffffffffffffffffffffffffffffffffffffff16815260200191505060405180910390f35b61020f610a24565b005b341561021c57600080fd5b610224610a8e565b6040518082815260200191505060405180910390f35b341561024557600080fd5b610271600480803573ffffffffffffffffffffffffffffffffffffffff16906020019091905050610a98565b005b341561027e57600080fd5b610286610cfe565b6040518082815260200191505060405180910390f35b34156102a757600080fd5b6102af610d08565b005b34156102bc57600080fd5b6102c4610dd9565b60405180806020018c81526020018b81526020018a73ffffffffffffffffffffffffffffffffffffffff1673ffffffffffffffffffffffffffffffffffffffff1681526020018973ffffffffffffffffffffffffffffffffffffffff1673ffffffffffffffffffffffffffffffffffffffff1681526020018881526020018773ffffffffffffffffffffffffffffffffffffffff1673ffffffffffffffffffffffffffffffffffffffff168152602001861515151581526020018581526020018481526020018373ffffffffffffffffffffffffffffffffffffffff1673ffffffffffffffffffffffffffffffffffffffff16815260200182810382528d818151815260200191508051906020019060200280838360005b838110156103f75780820151818401526020810190506103dc565b505050509050019c5050505050505050505050505060405180910390f35b341561042057600080fd5b610428610f11565b6040518082815260200191505060405180910390f35b341561044957600080fd5b610451611023565b604051808273ffffffffffffffffffffffffffffffffffffffff1673ffffffffffffffffffffffffffffffffffffffff16815260200191505060405180910390f35b61049b611048565b005b34156104a857600080fd5b6104b0611343565b6040518082815260200191505060405180910390f35b6104ce61134d565b005b34156104db57600080fd5b6104e3611380565b005b34156104f057600080fd5b6104f8611404565b604051808215151515815260200191505060405180910390f35b341561051d57600080fd5b610549600480803573ffffffffffffffffffffffffffffffffffffffff1690602001909190505061141b565b005b341561055657600080fd5b61055e611570565b604051808273ffffffffffffffffffffffffffffffffffffffff1673ffffffffffffffffffffffffffffffffffffffff16815260200191505060405180910390f35b600080600090505b6001805490508110156105ed57826001828154811015156105c557fe5b90600052602060002090015414156105e057600191506105f2565b80806001019150506105a8565b600091505b50919050565b6000806000809054906101000a900473ffffffffffffffffffffffffffffffffffffffff1673ffffffffffffffffffffffffffffffffffffffff163373ffffffffffffffffffffffffffffffffffffffff1614806106a35750600760009054906101000a900473ffffffffffffffffffffffffffffffffffffffff1673ffffffffffffffffffffffffffffffffffffffff163373ffffffffffffffffffffffffffffffffffffffff16145b15156106ae57600080fd5b6000600a54121515156106c057600080fd5b620151806007600a546003544203018115156106d857fe5b061015156106e557600080fd5b600960009054906101000a900460ff1615151561070157600080fd5b6008543073ffffffffffffffffffffffffffffffffffffffff16311015610771577fffffffffffffffffffffffffffffffffffffffffffffffffffffffffffffffff600a819055507fffffffffffffffffffffffffffffffffffffffffffffffffffffffffffffffff91506107fc565b600560009054906101000a900473ffffffffffffffffffffffffffffffffffffffff1673ffffffffffffffffffffffffffffffffffffffff166108fc6008549081150290604051600060405180830381858888f1935050505015156107d557600080fd5b6008543073ffffffffffffffffffffffffffffffffffffffff163110156107fb57600191505b5b82600460008282540192505081905550600090505b60018054905081101561092557600560009054906101000a900473ffffffffffffffffffffffffffffffffffffffff1673ffffffffffffffffffffffffffffffffffffffff16631ff0d04a308560018581548110151561086d57fe5b9060005260206000209001546040518463ffffffff167c0100000000000000000000000000000000000000000000000000000000028152600401808473ffffffffffffffffffffffffffffffffffffffff1673ffffffffffffffffffffffffffffffffffffffff1681526020018381526020018281526020019350505050600060405180830381600087803b151561090457600080fd5b6102c65a03f1151561091557600080fd5b5050508080600101915050610811565b600660009054906101000a900473ffffffffffffffffffffffffffffffffffffffff1673ffffffffffffffffffffffffffffffffffffffff1663a035442f6040518163ffffffff167c0100000000000000000000000000000000000000000000000000000000028152600401600060405180830381600087803b15156109aa57600080fd5b6102c65a03f115156109bb57600080fd5b5050507f7c7c3b4bb364dd81f16a3ca5653cb81414bcc0966ccd8b47ab6658e2eab9c33d826040518082815260200191505060405180910390a1505050565b6000600560009054906101000a900473ffffffffffffffffffffffffffffffffffffffff16905090565b6008543410151515610a3557600080fd5b7fffffffffffffffffffffffffffffffffffffffffffffffffffffffffffffffff600a54141515610a6557600080fd5b600762015180806003544203811515610a7a57fe5b0401811515610a8557fe5b06600a81905550565b6000600854905090565b6000809054906101000a900473ffffffffffffffffffffffffffffffffffffffff1673ffffffffffffffffffffffffffffffffffffffff163373ffffffffffffffffffffffffffffffffffffffff16141515610af357600080fd5b600560009054906101000a900473ffffffffffffffffffffffffffffffffffffffff1673ffffffffffffffffffffffffffffffffffffffff168173ffffffffffffffffffffffffffffffffffffffff161480610b9c5750600760009054906101000a900473ffffffffffffffffffffffffffffffffffffffff1673ffffffffffffffffffffffffffffffffffffffff168173ffffffffffffffffffffffffffffffffffffffff16145b1515610ba757600080fd5b600960009054906101000a900460ff161515610bc257600080fd5b7ffffffffffffffffffffffffffffffffffffffffffffffffffffffffffffffe0c600a81905550600560009054906101000a900473ffffffffffffffffffffffffffffffffffffffff1673ffffffffffffffffffffffffffffffffffffffff168173ffffffffffffffffffffffffffffffffffffffff161415610c82578073ffffffffffffffffffffffffffffffffffffffff166108fc6008549081150290604051600060405180830381858888f193505050501515610c8157600080fd5b5b600760009054906101000a900473ffffffffffffffffffffffffffffffffffffffff1673ffffffffffffffffffffffffffffffffffffffff166108fc3073ffffffffffffffffffffffffffffffffffffffff16319081150290604051600060405180830381858888f193505050501515610cfb57600080fd5b50565b6000600454905090565b600760009054906101000a900473ffffffffffffffffffffffffffffffffffffffff1673ffffffffffffffffffffffffffffffffffffffff163373ffffffffffffffffffffffffffffffffffffffff161480610db15750600560009054906101000a900473ffffffffffffffffffffffffffffffffffffffff1673ffffffffffffffffffffffffffffffffffffffff163373ffffffffffffffffffffffffffffffffffffffff16145b1515610dbc57600080fd5b6001600960006101000a81548160ff021916908315150217905550565b610de161159a565b6000806000806000806000806000806001600354600254600560009054906101000a900473ffffffffffffffffffffffffffffffffffffffff16600760009054906101000a900473ffffffffffffffffffffffffffffffffffffffff166008546000809054906101000a900473ffffffffffffffffffffffffffffffffffffffff16600960009054906101000a900460ff16600a54600454600660009054906101000a900473ffffffffffffffffffffffffffffffffffffffff168a805480602002602001604051908101604052809291908181526020018280548015610ee757602002820191906000526020600020905b815481526020019060010190808311610ed3575b50505050509a509a509a509a509a509a509a509a509a509a509a509a50909192939495969798999a565b600080600090505b60018054905081101561100557600560009054906101000a900473ffffffffffffffffffffffffffffffffffffffff1673ffffffffffffffffffffffffffffffffffffffff1663ea24f653600183815481101515610f7357fe5b9060005260206000209001546000604051602001526040518263ffffffff167c010000000000000000000000000000000000000000000000000000000002815260040180828152602001915050602060405180830381600087803b1515610fd957600080fd5b6102c65a03f11515610fea57600080fd5b50505060405180519050820191508080600101915050610f19565b600454820291506001805490508281151561101c57fe5b0591505090565b6000809054906101000a900473ffffffffffffffffffffffffffffffffffffffff1681565b6000809054906101000a900473ffffffffffffffffffffffffffffffffffffffff1673ffffffffffffffffffffffffffffffffffffffff163373ffffffffffffffffffffffffffffffffffffffff1614806110f05750600760009054906101000a900473ffffffffffffffffffffffffffffffffffffffff1673ffffffffffffffffffffffffffffffffffffffff163373ffffffffffffffffffffffffffffffffffffffff16145b15156110fb57600080fd5b7fffffffffffffffffffffffffffffffffffffffffffffffffffffffffffffff9c600a5414151561112b57600080fd5b600854341015151561113c57600080fd5b426003819055506000600a81905550600560009054906101000a900473ffffffffffffffffffffffffffffffffffffffff1673ffffffffffffffffffffffffffffffffffffffff166397f75df830600660009054906101000a900473ffffffffffffffffffffffffffffffffffffffff166040518363ffffffff167c0100000000000000000000000000000000000000000000000000000000028152600401808373ffffffffffffffffffffffffffffffffffffffff1673ffffffffffffffffffffffffffffffffffffffff1681526020018273ffffffffffffffffffffffffffffffffffffffff1673ffffffffffffffffffffffffffffffffffffffff16815260200192505050600060405180830381600087803b151561125d57600080fd5b6102c65a03f1151561126e57600080fd5b505050600660009054906101000a900473ffffffffffffffffffffffffffffffffffffffff1673ffffffffffffffffffffffffffffffffffffffff16632f0dca8e306040518263ffffffff167c0100000000000000000000000000000000000000000000000000000000028152600401808273ffffffffffffffffffffffffffffffffffffffff1673ffffffffffffffffffffffffffffffffffffffff168152602001915050600060405180830381600087803b151561132d57600080fd5b6102c65a03f1151561133e57600080fd5b505050565b6000600a54905090565b7fffffffffffffffffffffffffffffffffffffffffffffffffffffffffffffffff600a541215151561137e57600080fd5b565b6000809054906101000a900473ffffffffffffffffffffffffffffffffffffffff1673ffffffffffffffffffffffffffffffffffffffff163373ffffffffffffffffffffffffffffffffffffffff161415156113db57600080fd5b7fffffffffffffffffffffffffffffffffffffffffffffffffffffffffffffff38600a81905550565b6000600960009054906101000a900460ff16905090565b6000809054906101000a900473ffffffffffffffffffffffffffffffffffffffff1673ffffffffffffffffffffffffffffffffffffffff163373ffffffffffffffffffffffffffffffffffffffff1614151561147657600080fd5b600073ffffffffffffffffffffffffffffffffffffffff168173ffffffffffffffffffffffffffffffffffffffff16141515156114b257600080fd5b8073ffffffffffffffffffffffffffffffffffffffff166000809054906101000a900473ffffffffffffffffffffffffffffffffffffffff1673ffffffffffffffffffffffffffffffffffffffff167f8be0079c531659141344cd1fd0a4f28419497f9722a3daafe3b4186f6b6457e060405160405180910390a3806000806101000a81548173ffffffffffffffffffffffffffffffffffffffff021916908373ffffffffffffffffffffffffffffffffffffffff16021790555050565b6000600660009054906101000a900473ffffffffffffffffffffffffffffffffffffffff16905090565b6020604051908101604052806000815250905600a165627a7a72305820b6265d4a31d77e1e7ae5ec99341ccce2cbed0c31a57af9567aef957ed5cf79b30029",
  "source": "pragma solidity ^0.4.11;\r\nimport \"zeppelin-solidity/contracts/ownership/Ownable.sol\";\r\nimport \"./Employee.sol\";\r\nimport \"./Company.sol\";\r\n\r\n\r\ncontract Work is Ownable {\r\n\r\n    uint[] private skillCodes;\r\n\r\n    uint private duration;\r\n    uint private startDate;\r\n    uint private hoursWorked;\r\n    Employee private employee;\r\n    Company private companyContractAddress;\r\n    address private company;\r\n    uint private weekPayment;\r\n    bool private disputeStatus;\r\n    /*\r\n      frizzing time\r\n        [0; 6]      range of freezing delay\r\n\r\n        -1          freezing - not enought money for next week payment\r\n\r\n        -100        contract not start\r\n\r\n        -200        contract ended\r\n\r\n        -500        contract ended with disput\r\n    */\r\n    int private frizzing;\r\n\r\n    event WeekPaymentSent(int code);\r\n\r\n    function Work (\r\n        uint[] _skillCodes,\r\n        uint _duration,\r\n        Employee _empoloyee,\r\n        address _company,\r\n        Company _companyContractAddress,\r\n        uint _weekPayment\r\n    )\r\n        public\r\n        payable\r\n    {\r\n        require(_duration > 0);\r\n\r\n        skillCodes = _skillCodes;\r\n        duration = _duration;\r\n        employee = _empoloyee;\r\n        company = _company;\r\n        companyContractAddress = _companyContractAddress;\r\n        weekPayment = _weekPayment;\r\n        frizzing = -100;\r\n    }\r\n\r\n    modifier onlyOwnerOrCompany() {\r\n        require(msg.sender == owner || msg.sender == company);\r\n        _;\r\n    }\r\n\r\n    modifier onlyEmployeeOrCompany() {\r\n        require(msg.sender == company || msg.sender == address(employee));\r\n        _;\r\n    }\r\n\r\n    function () public payable {\r\n        owner.transfer(msg.value);\r\n    }\r\n\r\n    function deposit() public payable {\r\n        require(frizzing >= -1);\r\n    }\r\n\r\n    /*\r\n        return status:\r\n            -1  no enough money yo week payment\r\n            1   no enough money for next week payment\r\n            0   ok, all right\r\n    */\r\n    function sendWeekSalary(uint _hours) public onlyOwnerOrCompany payable {\r\n        require(frizzing >= 0);\r\n        require((now - startDate + uint(frizzing)) % 7 < 1 days);\r\n        require(!disputeStatus);\r\n\r\n        int code;\r\n\r\n        if (this.balance < weekPayment) {\r\n            frizzing = -1;\r\n            code = -1;\r\n        } else {\r\n            employee.transfer(weekPayment);\r\n\r\n            if (this.balance < weekPayment)\r\n                code = 1;\r\n        }\r\n\r\n        hoursWorked += _hours;\r\n\r\n        for (uint i = 0; i < skillCodes.length; i++) {\r\n            employee.addSkillRatingForWork(this, _hours, skillCodes[i]);\r\n        }\r\n        companyContractAddress.changeRating();\r\n\r\n        WeekPaymentSent(code);\r\n    }\r\n\r\n    function solveFrizzing() public payable {\r\n        require(msg.value >= weekPayment);\r\n        require(frizzing == -1);\r\n        frizzing = int(((now - startDate) / 1 days + 1 days) % 7);\r\n    }\r\n\r\n    function disputeStatusOn() public onlyEmployeeOrCompany {\r\n        disputeStatus = true;\r\n    }\r\n\r\n    function solveDispute(address winner) public onlyOwner {\r\n        require(winner == address(employee) || winner == company);\r\n        require(disputeStatus);\r\n\r\n        frizzing = -500;\r\n\r\n        if (winner == address(employee))\r\n            winner.transfer(weekPayment);\r\n\r\n        company.transfer(this.balance);\r\n    }\r\n\r\n    function start() public payable onlyOwnerOrCompany() {\r\n        require(frizzing == -100);\r\n        require(msg.value >= weekPayment);\r\n        /* frizzing = int(((now - startDate) / 1 days + 1 days) % 7); */\r\n        startDate = now;\r\n        frizzing = 0;\r\n        employee.addWork(this, companyContractAddress);\r\n        companyContractAddress.addWork(this);\r\n    }\r\n\r\n    function finish() public onlyOwner {\r\n        frizzing = -200;\r\n    }\r\n\r\n    function getWorkData ()\r\n        public\r\n        view\r\n        returns (\r\n            uint[],\r\n            uint,\r\n            uint,\r\n            Employee,\r\n            address,\r\n            uint,\r\n            address,\r\n            bool,\r\n            int,\r\n            uint,\r\n            Company\r\n        )\r\n    {\r\n\r\n        return (\r\n            skillCodes,\r\n            startDate,\r\n            duration,\r\n            employee,\r\n            company,\r\n            weekPayment,\r\n            owner,\r\n            disputeStatus,\r\n            frizzing,\r\n            hoursWorked,\r\n            companyContractAddress\r\n        );\r\n    }\r\n\r\n    function getWorkedHours() public view returns(uint) {\r\n        return hoursWorked;\r\n    }\r\n\r\n    function getWeekPayment() public view returns(uint) {\r\n        return weekPayment;\r\n    }\r\n\r\n    function getEmployee() public view returns(address) {\r\n        return employee;\r\n    }\r\n\r\n    function getCompanyContractAddress() public view returns(address) {\r\n        return companyContractAddress;\r\n    }\r\n\r\n    function getDisputeStatus() public view returns(bool) {\r\n        return disputeStatus;\r\n    }\r\n\r\n    function hasSkill(uint skillCode) public view returns(bool) {\r\n        for (uint i = 0; i < skillCodes.length; i++) {\r\n            if (skillCodes[i] == skillCode)\r\n                return true;\r\n        }\r\n        return false;\r\n    }\r\n\r\n    // R(empl) I\r\n    function getCompanyWorkRating() public view returns(int result) {\r\n        for (uint i = 0; i < skillCodes.length; i++) {\r\n            result += int(employee.getSkillRatingBySkillCode(skillCodes[i]));\r\n        }\r\n        result *= int(hoursWorked);\r\n        result /= int(skillCodes.length);\r\n    }\r\n\r\n    function getContractStatus() public view returns(int) {\r\n        return frizzing;\r\n    }\r\n\r\n}\r\n",
  "sourcePath": "D:\\node_projects\\smart\\smart_contract_example\\contracts\\Work.sol",
  "compiler": {
    "name": "solc",
    "version": "0.4.19+commit.c4cbbb05.Emscripten.clang"
  },
  "schemaVersion": "1.0.1",
  "updatedAt": "2018-03-28T23:25:11.296Z"
}