{
  "contractName": "Work",
  "abi": [
    {
      "constant": true,
      "inputs": [],
      "name": "owner",
      "outputs": [
        {
          "name": "",
          "type": "address"
        }
      ],
      "payable": false,
      "stateMutability": "view",
      "type": "function"
    },
    {
      "constant": false,
      "inputs": [
        {
          "name": "newOwner",
          "type": "address"
        }
      ],
      "name": "transferOwnership",
      "outputs": [],
      "payable": false,
      "stateMutability": "nonpayable",
      "type": "function"
    },
    {
      "inputs": [
        {
          "name": "_skillCodes",
          "type": "uint256[]"
        },
        {
          "name": "_duration",
          "type": "uint256"
        },
        {
          "name": "_employee",
          "type": "address"
        },
        {
          "name": "_employeeContractAddress",
          "type": "address"
        },
        {
          "name": "_company",
          "type": "address"
        },
        {
          "name": "_companyContractAddress",
          "type": "address"
        },
        {
          "name": "_weekPayment",
          "type": "uint256"
        }
      ],
      "payable": true,
      "stateMutability": "payable",
      "type": "constructor"
    },
    {
      "payable": true,
      "stateMutability": "payable",
      "type": "fallback"
    },
    {
      "anonymous": false,
      "inputs": [
        {
          "indexed": false,
          "name": "code",
          "type": "int256"
        }
      ],
      "name": "WeekPaymentSent",
      "type": "event"
    },
    {
      "anonymous": false,
      "inputs": [
        {
          "indexed": true,
          "name": "previousOwner",
          "type": "address"
        },
        {
          "indexed": true,
          "name": "newOwner",
          "type": "address"
        }
      ],
      "name": "OwnershipTransferred",
      "type": "event"
    },
    {
      "constant": false,
      "inputs": [],
      "name": "deposit",
      "outputs": [],
      "payable": true,
      "stateMutability": "payable",
      "type": "function"
    },
    {
      "constant": false,
      "inputs": [
        {
          "name": "_hours",
          "type": "uint256"
        }
      ],
      "name": "sendWeekSalary",
      "outputs": [],
      "payable": true,
      "stateMutability": "payable",
      "type": "function"
    },
    {
      "constant": false,
      "inputs": [],
      "name": "solveFrizzing",
      "outputs": [],
      "payable": true,
      "stateMutability": "payable",
      "type": "function"
    },
    {
      "constant": false,
      "inputs": [],
      "name": "disputeStatusOn",
      "outputs": [],
      "payable": false,
      "stateMutability": "nonpayable",
      "type": "function"
    },
    {
      "constant": false,
      "inputs": [
        {
          "name": "winner",
          "type": "address"
        }
      ],
      "name": "solveDispute",
      "outputs": [],
      "payable": false,
      "stateMutability": "nonpayable",
      "type": "function"
    },
    {
      "constant": false,
      "inputs": [],
      "name": "start",
      "outputs": [],
      "payable": true,
      "stateMutability": "payable",
      "type": "function"
    },
    {
      "constant": false,
      "inputs": [],
      "name": "finish",
      "outputs": [],
      "payable": false,
      "stateMutability": "nonpayable",
      "type": "function"
    },
    {
      "constant": true,
      "inputs": [],
      "name": "getWorkData",
      "outputs": [
        {
          "name": "",
          "type": "uint256[]"
        },
        {
          "name": "",
          "type": "uint256"
        },
        {
          "name": "",
          "type": "uint256"
        },
        {
          "name": "",
          "type": "address"
        },
        {
          "name": "",
          "type": "address"
        },
        {
          "name": "",
          "type": "uint256"
        },
        {
          "name": "",
          "type": "address"
        },
        {
          "name": "",
          "type": "bool"
        },
        {
          "name": "",
          "type": "int256"
        },
        {
          "name": "",
          "type": "uint256"
        },
        {
          "name": "",
          "type": "address"
        },
        {
          "name": "",
          "type": "address"
        }
      ],
      "payable": false,
      "stateMutability": "view",
      "type": "function"
    },
    {
      "constant": true,
      "inputs": [],
      "name": "getWorkedHours",
      "outputs": [
        {
          "name": "",
          "type": "uint256"
        }
      ],
      "payable": false,
      "stateMutability": "view",
      "type": "function"
    },
    {
      "constant": true,
      "inputs": [],
      "name": "getWeekPayment",
      "outputs": [
        {
          "name": "",
          "type": "uint256"
        }
      ],
      "payable": false,
      "stateMutability": "view",
      "type": "function"
    },
    {
      "constant": true,
      "inputs": [],
      "name": "getEmployee",
      "outputs": [
        {
          "name": "",
          "type": "address"
        }
      ],
      "payable": false,
      "stateMutability": "view",
      "type": "function"
    },
    {
      "constant": true,
      "inputs": [],
      "name": "getCompanyContractAddress",
      "outputs": [
        {
          "name": "",
          "type": "address"
        }
      ],
      "payable": false,
      "stateMutability": "view",
      "type": "function"
    },
    {
      "constant": true,
      "inputs": [],
      "name": "getDisputeStatus",
      "outputs": [
        {
          "name": "",
          "type": "bool"
        }
      ],
      "payable": false,
      "stateMutability": "view",
      "type": "function"
    },
    {
      "constant": true,
      "inputs": [
        {
          "name": "skillCode",
          "type": "uint256"
        }
      ],
      "name": "hasSkill",
      "outputs": [
        {
          "name": "",
          "type": "bool"
        }
      ],
      "payable": false,
      "stateMutability": "view",
      "type": "function"
    },
    {
      "constant": true,
      "inputs": [],
      "name": "getCompanyWorkRating",
      "outputs": [
        {
          "name": "result",
          "type": "int256"
        }
      ],
      "payable": false,
      "stateMutability": "view",
      "type": "function"
    },
    {
      "constant": true,
      "inputs": [],
      "name": "getContractStatus",
      "outputs": [
        {
          "name": "",
          "type": "int256"
        }
      ],
      "payable": false,
      "stateMutability": "view",
      "type": "function"
    }
  ],
  "bytecode": "0x6060604052604051620018c9380380620018c983398101604052808051820191906020018051906020019091908051906020019091908051906020019091908051906020019091908051906020019091908051906020019091905050336000806101000a81548173ffffffffffffffffffffffffffffffffffffffff021916908373ffffffffffffffffffffffffffffffffffffffff160217905550600086111515620000ab57600080fd5b8660019080519060200190620000c39291906200020a565b508560028190555084600660006101000a81548173ffffffffffffffffffffffffffffffffffffffff021916908373ffffffffffffffffffffffffffffffffffffffff16021790555083600560006101000a81548173ffffffffffffffffffffffffffffffffffffffff021916908373ffffffffffffffffffffffffffffffffffffffff16021790555082600860006101000a81548173ffffffffffffffffffffffffffffffffffffffff021916908373ffffffffffffffffffffffffffffffffffffffff16021790555081600760006101000a81548173ffffffffffffffffffffffffffffffffffffffff021916908373ffffffffffffffffffffffffffffffffffffffff160217905550806009819055507fffffffffffffffffffffffffffffffffffffffffffffffffffffffffffffff9c600b819055505050505050505062000284565b82805482825590600052602060002090810192821562000249579160200282015b82811115620002485782518255916020019190600101906200022b565b5b5090506200025891906200025c565b5090565b6200028191905b808211156200027d57600081600090555060010162000263565b5090565b90565b61163580620002946000396000f3006060604052600436106100fc576000357c0100000000000000000000000000000000000000000000000000000000900463ffffffff1680631bcbe2d91461015f5780633c98a2d51461019a5780634132db8f146101b257806355593dc514610207578063645c1ce0146102115780636734c5ec1461023a5780637aeb875d1461027357806386da88651461029c57806387f7f37f146102b15780638918767f146104485780638da5cb5b14610471578063be9a6555146104c6578063c032846b146104d0578063d0e30db0146104f9578063d56b288914610503578063d6ae724f14610518578063f2fde38b14610545578063f3fe8bec1461057e575b6000809054906101000a900473ffffffffffffffffffffffffffffffffffffffff1673ffffffffffffffffffffffffffffffffffffffff166108fc349081150290604051600060405180830381858888f19350505050151561015d57600080fd5b005b341561016a57600080fd5b61018060048080359060200190919050506105d3565b604051808215151515815260200191505060405180910390f35b6101b0600480803590602001909190505061062b565b005b34156101bd57600080fd5b6101c5610a2d565b604051808273ffffffffffffffffffffffffffffffffffffffff1673ffffffffffffffffffffffffffffffffffffffff16815260200191505060405180910390f35b61020f610a57565b005b341561021c57600080fd5b610224610ac1565b6040518082815260200191505060405180910390f35b341561024557600080fd5b610271600480803573ffffffffffffffffffffffffffffffffffffffff16906020019091905050610acb565b005b341561027e57600080fd5b610286610d31565b6040518082815260200191505060405180910390f35b34156102a757600080fd5b6102af610d3b565b005b34156102bc57600080fd5b6102c4610e0c565b60405180806020018d81526020018c81526020018b73ffffffffffffffffffffffffffffffffffffffff1673ffffffffffffffffffffffffffffffffffffffff1681526020018a73ffffffffffffffffffffffffffffffffffffffff1673ffffffffffffffffffffffffffffffffffffffff1681526020018981526020018873ffffffffffffffffffffffffffffffffffffffff1673ffffffffffffffffffffffffffffffffffffffff168152602001871515151581526020018681526020018581526020018473ffffffffffffffffffffffffffffffffffffffff1673ffffffffffffffffffffffffffffffffffffffff1681526020018373ffffffffffffffffffffffffffffffffffffffff1673ffffffffffffffffffffffffffffffffffffffff16815260200182810382528e818151815260200191508051906020019060200280838360005b8381101561042957808201518184015260208101905061040e565b505050509050019d505050505050505050505050505060405180910390f35b341561045357600080fd5b61045b610f6c565b6040518082815260200191505060405180910390f35b341561047c57600080fd5b61048461107e565b604051808273ffffffffffffffffffffffffffffffffffffffff1673ffffffffffffffffffffffffffffffffffffffff16815260200191505060405180910390f35b6104ce6110a3565b005b34156104db57600080fd5b6104e361139e565b6040518082815260200191505060405180910390f35b6105016113a8565b005b341561050e57600080fd5b6105166113db565b005b341561052357600080fd5b61052b61145f565b604051808215151515815260200191505060405180910390f35b341561055057600080fd5b61057c600480803573ffffffffffffffffffffffffffffffffffffffff16906020019091905050611476565b005b341561058957600080fd5b6105916115cb565b604051808273ffffffffffffffffffffffffffffffffffffffff1673ffffffffffffffffffffffffffffffffffffffff16815260200191505060405180910390f35b600080600090505b60018054905081101561062057826001828154811015156105f857fe5b90600052602060002090015414156106135760019150610625565b80806001019150506105db565b600091505b50919050565b6000806000809054906101000a900473ffffffffffffffffffffffffffffffffffffffff1673ffffffffffffffffffffffffffffffffffffffff163373ffffffffffffffffffffffffffffffffffffffff1614806106d65750600860009054906101000a900473ffffffffffffffffffffffffffffffffffffffff1673ffffffffffffffffffffffffffffffffffffffff163373ffffffffffffffffffffffffffffffffffffffff16145b15156106e157600080fd5b6000600b54121515156106f357600080fd5b620151806007600b5460035442030181151561070b57fe5b0610151561071857600080fd5b600a60009054906101000a900460ff1615151561073457600080fd5b6009543073ffffffffffffffffffffffffffffffffffffffff163110156107a4577fffffffffffffffffffffffffffffffffffffffffffffffffffffffffffffffff600b819055507fffffffffffffffffffffffffffffffffffffffffffffffffffffffffffffffff915061082f565b600660009054906101000a900473ffffffffffffffffffffffffffffffffffffffff1673ffffffffffffffffffffffffffffffffffffffff166108fc6009549081150290604051600060405180830381858888f19350505050151561080857600080fd5b6009543073ffffffffffffffffffffffffffffffffffffffff1631101561082e57600191505b5b82600460008282540192505081905550600090505b60018054905081101561095857600560009054906101000a900473ffffffffffffffffffffffffffffffffffffffff1673ffffffffffffffffffffffffffffffffffffffff16631ff0d04a30856001858154811015156108a057fe5b9060005260206000209001546040518463ffffffff167c0100000000000000000000000000000000000000000000000000000000028152600401808473ffffffffffffffffffffffffffffffffffffffff1673ffffffffffffffffffffffffffffffffffffffff1681526020018381526020018281526020019350505050600060405180830381600087803b151561093757600080fd5b6102c65a03f1151561094857600080fd5b5050508080600101915050610844565b600760009054906101000a900473ffffffffffffffffffffffffffffffffffffffff1673ffffffffffffffffffffffffffffffffffffffff1663a035442f6040518163ffffffff167c0100000000000000000000000000000000000000000000000000000000028152600401600060405180830381600087803b15156109dd57600080fd5b6102c65a03f115156109ee57600080fd5b5050507f7c7c3b4bb364dd81f16a3ca5653cb81414bcc0966ccd8b47ab6658e2eab9c33d826040518082815260200191505060405180910390a1505050565b6000600560009054906101000a900473ffffffffffffffffffffffffffffffffffffffff16905090565b6009543410151515610a6857600080fd5b7fffffffffffffffffffffffffffffffffffffffffffffffffffffffffffffffff600b54141515610a9857600080fd5b600762015180806003544203811515610aad57fe5b0401811515610ab857fe5b06600b81905550565b6000600954905090565b6000809054906101000a900473ffffffffffffffffffffffffffffffffffffffff1673ffffffffffffffffffffffffffffffffffffffff163373ffffffffffffffffffffffffffffffffffffffff16141515610b2657600080fd5b600660009054906101000a900473ffffffffffffffffffffffffffffffffffffffff1673ffffffffffffffffffffffffffffffffffffffff168173ffffffffffffffffffffffffffffffffffffffff161480610bcf5750600860009054906101000a900473ffffffffffffffffffffffffffffffffffffffff1673ffffffffffffffffffffffffffffffffffffffff168173ffffffffffffffffffffffffffffffffffffffff16145b1515610bda57600080fd5b600a60009054906101000a900460ff161515610bf557600080fd5b7ffffffffffffffffffffffffffffffffffffffffffffffffffffffffffffffe0c600b81905550600660009054906101000a900473ffffffffffffffffffffffffffffffffffffffff1673ffffffffffffffffffffffffffffffffffffffff168173ffffffffffffffffffffffffffffffffffffffff161415610cb5578073ffffffffffffffffffffffffffffffffffffffff166108fc6009549081150290604051600060405180830381858888f193505050501515610cb457600080fd5b5b600860009054906101000a900473ffffffffffffffffffffffffffffffffffffffff1673ffffffffffffffffffffffffffffffffffffffff166108fc3073ffffffffffffffffffffffffffffffffffffffff16319081150290604051600060405180830381858888f193505050501515610d2e57600080fd5b50565b6000600454905090565b600860009054906101000a900473ffffffffffffffffffffffffffffffffffffffff1673ffffffffffffffffffffffffffffffffffffffff163373ffffffffffffffffffffffffffffffffffffffff161480610de45750600660009054906101000a900473ffffffffffffffffffffffffffffffffffffffff1673ffffffffffffffffffffffffffffffffffffffff163373ffffffffffffffffffffffffffffffffffffffff16145b1515610def57600080fd5b6001600a60006101000a81548160ff021916908315150217905550565b610e146115f5565b60008060008060008060008060008060006001600354600254600560009054906101000a900473ffffffffffffffffffffffffffffffffffffffff16600860009054906101000a900473ffffffffffffffffffffffffffffffffffffffff166009546000809054906101000a900473ffffffffffffffffffffffffffffffffffffffff16600a60009054906101000a900460ff16600b54600454600760009054906101000a900473ffffffffffffffffffffffffffffffffffffffff16600660009054906101000a900473ffffffffffffffffffffffffffffffffffffffff168b805480602002602001604051908101604052809291908181526020018280548015610f3f57602002820191906000526020600020905b815481526020019060010190808311610f2b575b50505050509b509b509b509b509b509b509b509b509b509b509b509b509b50909192939495969798999a9b565b600080600090505b60018054905081101561106057600560009054906101000a900473ffffffffffffffffffffffffffffffffffffffff1673ffffffffffffffffffffffffffffffffffffffff1663ea24f653600183815481101515610fce57fe5b9060005260206000209001546000604051602001526040518263ffffffff167c010000000000000000000000000000000000000000000000000000000002815260040180828152602001915050602060405180830381600087803b151561103457600080fd5b6102c65a03f1151561104557600080fd5b50505060405180519050820191508080600101915050610f74565b600454820291506001805490508281151561107757fe5b0591505090565b6000809054906101000a900473ffffffffffffffffffffffffffffffffffffffff1681565b6000809054906101000a900473ffffffffffffffffffffffffffffffffffffffff1673ffffffffffffffffffffffffffffffffffffffff163373ffffffffffffffffffffffffffffffffffffffff16148061114b5750600860009054906101000a900473ffffffffffffffffffffffffffffffffffffffff1673ffffffffffffffffffffffffffffffffffffffff163373ffffffffffffffffffffffffffffffffffffffff16145b151561115657600080fd5b7fffffffffffffffffffffffffffffffffffffffffffffffffffffffffffffff9c600b5414151561118657600080fd5b600954341015151561119757600080fd5b426003819055506000600b81905550600560009054906101000a900473ffffffffffffffffffffffffffffffffffffffff1673ffffffffffffffffffffffffffffffffffffffff166397f75df830600760009054906101000a900473ffffffffffffffffffffffffffffffffffffffff166040518363ffffffff167c0100000000000000000000000000000000000000000000000000000000028152600401808373ffffffffffffffffffffffffffffffffffffffff1673ffffffffffffffffffffffffffffffffffffffff1681526020018273ffffffffffffffffffffffffffffffffffffffff1673ffffffffffffffffffffffffffffffffffffffff16815260200192505050600060405180830381600087803b15156112b857600080fd5b6102c65a03f115156112c957600080fd5b505050600760009054906101000a900473ffffffffffffffffffffffffffffffffffffffff1673ffffffffffffffffffffffffffffffffffffffff16632f0dca8e306040518263ffffffff167c0100000000000000000000000000000000000000000000000000000000028152600401808273ffffffffffffffffffffffffffffffffffffffff1673ffffffffffffffffffffffffffffffffffffffff168152602001915050600060405180830381600087803b151561138857600080fd5b6102c65a03f1151561139957600080fd5b505050565b6000600b54905090565b7fffffffffffffffffffffffffffffffffffffffffffffffffffffffffffffffff600b54121515156113d957600080fd5b565b6000809054906101000a900473ffffffffffffffffffffffffffffffffffffffff1673ffffffffffffffffffffffffffffffffffffffff163373ffffffffffffffffffffffffffffffffffffffff1614151561143657600080fd5b7fffffffffffffffffffffffffffffffffffffffffffffffffffffffffffffff38600b81905550565b6000600a60009054906101000a900460ff16905090565b6000809054906101000a900473ffffffffffffffffffffffffffffffffffffffff1673ffffffffffffffffffffffffffffffffffffffff163373ffffffffffffffffffffffffffffffffffffffff161415156114d157600080fd5b600073ffffffffffffffffffffffffffffffffffffffff168173ffffffffffffffffffffffffffffffffffffffff161415151561150d57600080fd5b8073ffffffffffffffffffffffffffffffffffffffff166000809054906101000a900473ffffffffffffffffffffffffffffffffffffffff1673ffffffffffffffffffffffffffffffffffffffff167f8be0079c531659141344cd1fd0a4f28419497f9722a3daafe3b4186f6b6457e060405160405180910390a3806000806101000a81548173ffffffffffffffffffffffffffffffffffffffff021916908373ffffffffffffffffffffffffffffffffffffffff16021790555050565b6000600760009054906101000a900473ffffffffffffffffffffffffffffffffffffffff16905090565b6020604051908101604052806000815250905600a165627a7a72305820e905950d8f0ff4c5e675f0b6d56aedc4fb033fa6c2decd3c2282d5c5c76207020029",
  "source": "pragma solidity ^0.4.11;\r\nimport \"zeppelin-solidity/contracts/ownership/Ownable.sol\";\r\nimport \"./Employee.sol\";\r\nimport \"./Company.sol\";\r\n\r\n\r\ncontract Work is Ownable {\r\n\r\n    uint[] private skillCodes;\r\n\r\n    uint private duration;\r\n    uint private startDate;\r\n    uint private hoursWorked;\r\n    Employee private employeeContractAddress;\r\n    address private employee;\r\n    Company private companyContractAddress;\r\n    address private company;\r\n    uint private weekPayment;\r\n    bool private disputeStatus;\r\n    /*\r\n      frizzing time\r\n        [0; 6]      range of freezing delay\r\n\r\n        -1          freezing - not enought money for next week payment\r\n\r\n        -100        contract not start\r\n\r\n        -200        contract ended\r\n\r\n        -500        contract ended with disput\r\n    */\r\n    int private frizzing;\r\n\r\n    event WeekPaymentSent(int code);\r\n\r\n    function Work (\r\n        uint[] _skillCodes,\r\n        uint _duration,\r\n        address _employee,\r\n        Employee _employeeContractAddress,\r\n        address _company,\r\n        Company _companyContractAddress,\r\n        uint _weekPayment\r\n    )\r\n        public\r\n        payable\r\n    {\r\n        require(_duration > 0);\r\n\r\n        skillCodes = _skillCodes;\r\n        duration = _duration;\r\n        employee = _employee;\r\n        employeeContractAddress = _employeeContractAddress;\r\n        company = _company;\r\n        companyContractAddress = _companyContractAddress;\r\n        weekPayment = _weekPayment;\r\n        frizzing = -100;\r\n    }\r\n\r\n    modifier onlyOwnerOrCompany() {\r\n        require(msg.sender == owner || msg.sender == company);\r\n        _;\r\n    }\r\n\r\n    modifier onlyEmployeeOrCompany() {\r\n        require(msg.sender == company || msg.sender == employee);\r\n        _;\r\n    }\r\n\r\n    function () public payable {\r\n        owner.transfer(msg.value);\r\n    }\r\n\r\n    function deposit() public payable {\r\n        require(frizzing >= -1);\r\n    }\r\n\r\n    /*\r\n        return status:\r\n            -1  no enough money yo week payment\r\n            1   no enough money for next week payment\r\n            0   ok, all right\r\n    */\r\n    function sendWeekSalary(uint _hours) public onlyOwnerOrCompany payable {\r\n        require(frizzing >= 0);\r\n        require((now - startDate + uint(frizzing)) % 7 < 1 days);\r\n        require(!disputeStatus);\r\n\r\n        int code;\r\n\r\n        if (this.balance < weekPayment) {\r\n            frizzing = -1;\r\n            code = -1;\r\n        } else {\r\n            employee.transfer(weekPayment);\r\n\r\n            if (this.balance < weekPayment)\r\n                code = 1;\r\n        }\r\n\r\n        hoursWorked += _hours;\r\n\r\n        for (uint i = 0; i < skillCodes.length; i++) {\r\n            employeeContractAddress.addSkillRatingForWork(this, _hours, skillCodes[i]);\r\n        }\r\n        companyContractAddress.changeRating();\r\n\r\n        WeekPaymentSent(code);\r\n    }\r\n\r\n    function solveFrizzing() public payable {\r\n        require(msg.value >= weekPayment);\r\n        require(frizzing == -1);\r\n        frizzing = int(((now - startDate) / 1 days + 1 days) % 7);\r\n    }\r\n\r\n    function disputeStatusOn() public onlyEmployeeOrCompany {\r\n        disputeStatus = true;\r\n    }\r\n\r\n    function solveDispute(address winner) public onlyOwner {\r\n        require(winner == employee || winner == company);\r\n        require(disputeStatus);\r\n\r\n        frizzing = -500;\r\n\r\n        if (winner == employee)\r\n            winner.transfer(weekPayment);\r\n\r\n        company.transfer(this.balance);\r\n    }\r\n\r\n    function start() public payable onlyOwnerOrCompany() {\r\n        require(frizzing == -100);\r\n        require(msg.value >= weekPayment);\r\n        /* frizzing = int(((now - startDate) / 1 days + 1 days) % 7); */\r\n        startDate = now;\r\n        frizzing = 0;\r\n        employeeContractAddress.addWork(this, companyContractAddress);\r\n        companyContractAddress.addWork(this);\r\n    }\r\n\r\n    function finish() public onlyOwner {\r\n        frizzing = -200;\r\n    }\r\n\r\n    function getWorkData ()\r\n        public\r\n        view\r\n        returns (\r\n            uint[],\r\n            uint,\r\n            uint,\r\n            Employee,\r\n            address,\r\n            uint,\r\n            address,\r\n            bool,\r\n            int,\r\n            uint,\r\n            Company,\r\n            address\r\n        )\r\n    {\r\n\r\n        return (\r\n            skillCodes,\r\n            startDate,\r\n            duration,\r\n            employeeContractAddress,\r\n            company,\r\n            weekPayment,\r\n            owner,\r\n            disputeStatus,\r\n            frizzing,\r\n            hoursWorked,\r\n            companyContractAddress,\r\n            employee\r\n        );\r\n    }\r\n\r\n    function getWorkedHours() public view returns(uint) {\r\n        return hoursWorked;\r\n    }\r\n\r\n    function getWeekPayment() public view returns(uint) {\r\n        return weekPayment;\r\n    }\r\n\r\n    function getEmployee() public view returns(address) {\r\n        return employeeContractAddress;\r\n    }\r\n\r\n    function getCompanyContractAddress() public view returns(address) {\r\n        return companyContractAddress;\r\n    }\r\n\r\n    function getDisputeStatus() public view returns(bool) {\r\n        return disputeStatus;\r\n    }\r\n\r\n    function hasSkill(uint skillCode) public view returns(bool) {\r\n        for (uint i = 0; i < skillCodes.length; i++) {\r\n            if (skillCodes[i] == skillCode)\r\n                return true;\r\n        }\r\n        return false;\r\n    }\r\n\r\n    // R(empl) I\r\n    function getCompanyWorkRating() public view returns(int result) {\r\n        for (uint i = 0; i < skillCodes.length; i++) {\r\n            result += int(employeeContractAddress.getSkillRatingBySkillCode(skillCodes[i]));\r\n        }\r\n        result *= int(hoursWorked);\r\n        result /= int(skillCodes.length);\r\n    }\r\n\r\n    function getContractStatus() public view returns(int) {\r\n        return frizzing;\r\n    }\r\n\r\n}\r\n",
  "sourcePath": "D:\\node_projects\\smart\\smart_contract_example\\contracts\\Work.sol",
  "compiler": {
    "name": "solc",
    "version": "0.4.19+commit.c4cbbb05.Emscripten.clang"
  },
  "schemaVersion": "1.0.1",
  "updatedAt": "2018-03-29T22:41:38.967Z"
}